{
    "_format": "hh-sol-artifact-1",
    "contractName": "LaelapsSkullKey",
    "sourceName": "contracts/subscriptionTester.sol",
    "abi": [
        {
            "inputs": [
                {
                    "internalType": "address",
                    "name": "_defaultAdmin",
                    "type": "address"
                },
                {
                    "internalType": "string",
                    "name": "_name",
                    "type": "string"
                },
                {
                    "internalType": "string",
                    "name": "_symbol",
                    "type": "string"
                },
                {
                    "internalType": "address",
                    "name": "_royaltyRecipient",
                    "type": "address"
                },
                {
                    "internalType": "uint128",
                    "name": "_royaltyBps",
                    "type": "uint128"
                }
            ],
            "stateMutability": "nonpayable",
            "type": "constructor"
        },
        {
            "inputs": [
                {
                    "internalType": "address",
                    "name": "operator",
                    "type": "address"
                }
            ],
            "name": "OperatorNotAllowed",
            "type": "error"
        },
        {
            "anonymous": false,
            "inputs": [
                {
                    "indexed": true,
                    "internalType": "address",
                    "name": "_owner",
                    "type": "address"
                },
                {
                    "indexed": true,
                    "internalType": "address",
                    "name": "_operator",
                    "type": "address"
                },
                {
                    "indexed": false,
                    "internalType": "bool",
                    "name": "_approved",
                    "type": "bool"
                }
            ],
            "name": "ApprovalForAll",
            "type": "event"
        },
        {
            "anonymous": false,
            "inputs": [
                {
                    "indexed": false,
                    "internalType": "string",
                    "name": "prevURI",
                    "type": "string"
                },
                {
                    "indexed": false,
                    "internalType": "string",
                    "name": "newURI",
                    "type": "string"
                }
            ],
            "name": "ContractURIUpdated",
            "type": "event"
        },
        {
            "anonymous": false,
            "inputs": [
                {
                    "indexed": true,
                    "internalType": "address",
                    "name": "newRoyaltyRecipient",
                    "type": "address"
                },
                {
                    "indexed": false,
                    "internalType": "uint256",
                    "name": "newRoyaltyBps",
                    "type": "uint256"
                }
            ],
            "name": "DefaultRoyalty",
            "type": "event"
        },
        {
            "anonymous": false,
            "inputs": [
                {
                    "indexed": false,
                    "internalType": "bool",
                    "name": "restriction",
                    "type": "bool"
                }
            ],
            "name": "OperatorRestriction",
            "type": "event"
        },
        {
            "anonymous": false,
            "inputs": [
                {
                    "indexed": true,
                    "internalType": "address",
                    "name": "prevOwner",
                    "type": "address"
                },
                {
                    "indexed": true,
                    "internalType": "address",
                    "name": "newOwner",
                    "type": "address"
                }
            ],
            "name": "OwnerUpdated",
            "type": "event"
        },
        {
            "anonymous": false,
            "inputs": [
                {
                    "indexed": true,
                    "internalType": "bytes32",
                    "name": "role",
                    "type": "bytes32"
                },
                {
                    "indexed": true,
                    "internalType": "bytes32",
                    "name": "previousAdminRole",
                    "type": "bytes32"
                },
                {
                    "indexed": true,
                    "internalType": "bytes32",
                    "name": "newAdminRole",
                    "type": "bytes32"
                }
            ],
            "name": "RoleAdminChanged",
            "type": "event"
        },
        {
            "anonymous": false,
            "inputs": [
                {
                    "indexed": true,
                    "internalType": "bytes32",
                    "name": "role",
                    "type": "bytes32"
                },
                {
                    "indexed": true,
                    "internalType": "address",
                    "name": "account",
                    "type": "address"
                },
                {
                    "indexed": true,
                    "internalType": "address",
                    "name": "sender",
                    "type": "address"
                }
            ],
            "name": "RoleGranted",
            "type": "event"
        },
        {
            "anonymous": false,
            "inputs": [
                {
                    "indexed": true,
                    "internalType": "bytes32",
                    "name": "role",
                    "type": "bytes32"
                },
                {
                    "indexed": true,
                    "internalType": "address",
                    "name": "account",
                    "type": "address"
                },
                {
                    "indexed": true,
                    "internalType": "address",
                    "name": "sender",
                    "type": "address"
                }
            ],
            "name": "RoleRevoked",
            "type": "event"
        },
        {
            "anonymous": false,
            "inputs": [
                {
                    "indexed": true,
                    "internalType": "uint256",
                    "name": "tokenId",
                    "type": "uint256"
                },
                {
                    "indexed": true,
                    "internalType": "address",
                    "name": "royaltyRecipient",
                    "type": "address"
                },
                {
                    "indexed": false,
                    "internalType": "uint256",
                    "name": "royaltyBps",
                    "type": "uint256"
                }
            ],
            "name": "RoyaltyForToken",
            "type": "event"
        },
        {
            "anonymous": false,
            "inputs": [
                {
                    "indexed": true,
                    "internalType": "address",
                    "name": "_operator",
                    "type": "address"
                },
                {
                    "indexed": true,
                    "internalType": "address",
                    "name": "_from",
                    "type": "address"
                },
                {
                    "indexed": true,
                    "internalType": "address",
                    "name": "_to",
                    "type": "address"
                },
                {
                    "indexed": false,
                    "internalType": "uint256[]",
                    "name": "_ids",
                    "type": "uint256[]"
                },
                {
                    "indexed": false,
                    "internalType": "uint256[]",
                    "name": "_values",
                    "type": "uint256[]"
                }
            ],
            "name": "TransferBatch",
            "type": "event"
        },
        {
            "anonymous": false,
            "inputs": [
                {
                    "indexed": true,
                    "internalType": "address",
                    "name": "_operator",
                    "type": "address"
                },
                {
                    "indexed": true,
                    "internalType": "address",
                    "name": "_from",
                    "type": "address"
                },
                {
                    "indexed": true,
                    "internalType": "address",
                    "name": "_to",
                    "type": "address"
                },
                {
                    "indexed": false,
                    "internalType": "uint256",
                    "name": "_id",
                    "type": "uint256"
                },
                {
                    "indexed": false,
                    "internalType": "uint256",
                    "name": "_value",
                    "type": "uint256"
                }
            ],
            "name": "TransferSingle",
            "type": "event"
        },
        {
            "anonymous": false,
            "inputs": [
                {
                    "indexed": false,
                    "internalType": "string",
                    "name": "_value",
                    "type": "string"
                },
                {
                    "indexed": true,
                    "internalType": "uint256",
                    "name": "_id",
                    "type": "uint256"
                }
            ],
            "name": "URI",
            "type": "event"
        },
        {
            "inputs": [],
            "name": "BURN_ADDRESS",
            "outputs": [
                {
                    "internalType": "address",
                    "name": "",
                    "type": "address"
                }
            ],
            "stateMutability": "view",
            "type": "function"
        },
        {
            "inputs": [],
            "name": "DEFAULT_ADMIN_ROLE",
            "outputs": [
                {
                    "internalType": "bytes32",
                    "name": "",
                    "type": "bytes32"
                }
            ],
            "stateMutability": "view",
            "type": "function"
        },
        {
            "inputs": [],
            "name": "LAELAPS_ADDRESS",
            "outputs": [
                {
                    "internalType": "address",
                    "name": "",
                    "type": "address"
                }
            ],
            "stateMutability": "view",
            "type": "function"
        },
        {
            "inputs": [],
            "name": "OPERATOR_FILTER_REGISTRY",
            "outputs": [
                {
                    "internalType": "contract IOperatorFilterRegistry",
                    "name": "",
                    "type": "address"
                }
            ],
            "stateMutability": "view",
            "type": "function"
        },
        {
            "inputs": [],
            "name": "REWARD_WALLET",
            "outputs": [
                {
                    "internalType": "address",
                    "name": "",
                    "type": "address"
                }
            ],
            "stateMutability": "view",
            "type": "function"
        },
        {
            "inputs": [
                {
                    "internalType": "address",
                    "name": "",
                    "type": "address"
                },
                {
                    "internalType": "uint256",
                    "name": "",
                    "type": "uint256"
                }
            ],
            "name": "balanceOf",
            "outputs": [
                {
                    "internalType": "uint256",
                    "name": "",
                    "type": "uint256"
                }
            ],
            "stateMutability": "view",
            "type": "function"
        },
        {
            "inputs": [
                {
                    "internalType": "address[]",
                    "name": "accounts",
                    "type": "address[]"
                },
                {
                    "internalType": "uint256[]",
                    "name": "ids",
                    "type": "uint256[]"
                }
            ],
            "name": "balanceOfBatch",
            "outputs": [
                {
                    "internalType": "uint256[]",
                    "name": "",
                    "type": "uint256[]"
                }
            ],
            "stateMutability": "view",
            "type": "function"
        },
        {
            "inputs": [
                {
                    "internalType": "address",
                    "name": "_to",
                    "type": "address"
                },
                {
                    "internalType": "uint256[]",
                    "name": "_tokenIds",
                    "type": "uint256[]"
                },
                {
                    "internalType": "uint256[]",
                    "name": "_amounts",
                    "type": "uint256[]"
                },
                {
                    "internalType": "string",
                    "name": "_baseURI",
                    "type": "string"
                }
            ],
            "name": "batchMintTo",
            "outputs": [],
            "stateMutability": "nonpayable",
            "type": "function"
        },
        {
            "inputs": [
                {
                    "internalType": "address",
                    "name": "_owner",
                    "type": "address"
                },
                {
                    "internalType": "uint256",
                    "name": "_tokenId",
                    "type": "uint256"
                },
                {
                    "internalType": "uint256",
                    "name": "_amount",
                    "type": "uint256"
                }
            ],
            "name": "burn",
            "outputs": [],
            "stateMutability": "nonpayable",
            "type": "function"
        },
        {
            "inputs": [
                {
                    "internalType": "address",
                    "name": "_owner",
                    "type": "address"
                },
                {
                    "internalType": "uint256[]",
                    "name": "_tokenIds",
                    "type": "uint256[]"
                },
                {
                    "internalType": "uint256[]",
                    "name": "_amounts",
                    "type": "uint256[]"
                }
            ],
            "name": "burnBatch",
            "outputs": [],
            "stateMutability": "nonpayable",
            "type": "function"
        },
        {
            "inputs": [],
            "name": "buybackburn",
            "outputs": [
                {
                    "internalType": "bool",
                    "name": "",
                    "type": "bool"
                }
            ],
            "stateMutability": "view",
            "type": "function"
        },
        {
            "inputs": [],
            "name": "contractURI",
            "outputs": [
                {
                    "internalType": "string",
                    "name": "",
                    "type": "string"
                }
            ],
            "stateMutability": "view",
            "type": "function"
        },
        {
            "inputs": [],
            "name": "getBaseURICount",
            "outputs": [
                {
                    "internalType": "uint256",
                    "name": "",
                    "type": "uint256"
                }
            ],
            "stateMutability": "view",
            "type": "function"
        },
        {
            "inputs": [
                {
                    "internalType": "uint256",
                    "name": "_index",
                    "type": "uint256"
                }
            ],
            "name": "getBatchIdAtIndex",
            "outputs": [
                {
                    "internalType": "uint256",
                    "name": "",
                    "type": "uint256"
                }
            ],
            "stateMutability": "view",
            "type": "function"
        },
        {
            "inputs": [],
            "name": "getDefaultRoyaltyInfo",
            "outputs": [
                {
                    "internalType": "address",
                    "name": "",
                    "type": "address"
                },
                {
                    "internalType": "uint16",
                    "name": "",
                    "type": "uint16"
                }
            ],
            "stateMutability": "view",
            "type": "function"
        },
        {
            "inputs": [
                {
                    "internalType": "bytes32",
                    "name": "role",
                    "type": "bytes32"
                }
            ],
            "name": "getRoleAdmin",
            "outputs": [
                {
                    "internalType": "bytes32",
                    "name": "",
                    "type": "bytes32"
                }
            ],
            "stateMutability": "view",
            "type": "function"
        },
        {
            "inputs": [
                {
                    "internalType": "bytes32",
                    "name": "role",
                    "type": "bytes32"
                },
                {
                    "internalType": "uint256",
                    "name": "index",
                    "type": "uint256"
                }
            ],
            "name": "getRoleMember",
            "outputs": [
                {
                    "internalType": "address",
                    "name": "member",
                    "type": "address"
                }
            ],
            "stateMutability": "view",
            "type": "function"
        },
        {
            "inputs": [
                {
                    "internalType": "bytes32",
                    "name": "role",
                    "type": "bytes32"
                }
            ],
            "name": "getRoleMemberCount",
            "outputs": [
                {
                    "internalType": "uint256",
                    "name": "count",
                    "type": "uint256"
                }
            ],
            "stateMutability": "view",
            "type": "function"
        },
        {
            "inputs": [
                {
                    "internalType": "uint256",
                    "name": "_tokenId",
                    "type": "uint256"
                }
            ],
            "name": "getRoyaltyInfoForToken",
            "outputs": [
                {
                    "internalType": "address",
                    "name": "",
                    "type": "address"
                },
                {
                    "internalType": "uint16",
                    "name": "",
                    "type": "uint16"
                }
            ],
            "stateMutability": "view",
            "type": "function"
        },
        {
            "inputs": [
                {
                    "internalType": "bytes32",
                    "name": "role",
                    "type": "bytes32"
                },
                {
                    "internalType": "address",
                    "name": "account",
                    "type": "address"
                }
            ],
            "name": "grantRole",
            "outputs": [],
            "stateMutability": "nonpayable",
            "type": "function"
        },
        {
            "inputs": [
                {
                    "internalType": "bytes32",
                    "name": "role",
                    "type": "bytes32"
                },
                {
                    "internalType": "address",
                    "name": "account",
                    "type": "address"
                }
            ],
            "name": "hasRole",
            "outputs": [
                {
                    "internalType": "bool",
                    "name": "",
                    "type": "bool"
                }
            ],
            "stateMutability": "view",
            "type": "function"
        },
        {
            "inputs": [
                {
                    "internalType": "bytes32",
                    "name": "role",
                    "type": "bytes32"
                },
                {
                    "internalType": "address",
                    "name": "account",
                    "type": "address"
                }
            ],
            "name": "hasRoleWithSwitch",
            "outputs": [
                {
                    "internalType": "bool",
                    "name": "",
                    "type": "bool"
                }
            ],
            "stateMutability": "view",
            "type": "function"
        },
        {
            "inputs": [
                {
                    "internalType": "address",
                    "name": "",
                    "type": "address"
                },
                {
                    "internalType": "address",
                    "name": "",
                    "type": "address"
                }
            ],
            "name": "isApprovedForAll",
            "outputs": [
                {
                    "internalType": "bool",
                    "name": "",
                    "type": "bool"
                }
            ],
            "stateMutability": "view",
            "type": "function"
        },
        {
            "inputs": [
                {
                    "internalType": "address",
                    "name": "_to",
                    "type": "address"
                },
                {
                    "internalType": "uint256",
                    "name": "_tokenId",
                    "type": "uint256"
                },
                {
                    "internalType": "string",
                    "name": "_tokenURI",
                    "type": "string"
                },
                {
                    "internalType": "uint256",
                    "name": "_amount",
                    "type": "uint256"
                }
            ],
            "name": "mintTo",
            "outputs": [],
            "stateMutability": "nonpayable",
            "type": "function"
        },
        {
            "inputs": [
                {
                    "internalType": "address",
                    "name": "_to",
                    "type": "address"
                },
                {
                    "internalType": "uint256",
                    "name": "_tokenId",
                    "type": "uint256"
                }
            ],
            "name": "mintToPaid",
            "outputs": [],
            "stateMutability": "payable",
            "type": "function"
        },
        {
            "inputs": [],
            "name": "mint_price",
            "outputs": [
                {
                    "internalType": "uint256",
                    "name": "",
                    "type": "uint256"
                }
            ],
            "stateMutability": "view",
            "type": "function"
        },
        {
            "inputs": [
                {
                    "internalType": "bytes[]",
                    "name": "data",
                    "type": "bytes[]"
                }
            ],
            "name": "multicall",
            "outputs": [
                {
                    "internalType": "bytes[]",
                    "name": "results",
                    "type": "bytes[]"
                }
            ],
            "stateMutability": "nonpayable",
            "type": "function"
        },
        {
            "inputs": [],
            "name": "name",
            "outputs": [
                {
                    "internalType": "string",
                    "name": "",
                    "type": "string"
                }
            ],
            "stateMutability": "view",
            "type": "function"
        },
        {
            "inputs": [],
            "name": "nextTokenIdToMint",
            "outputs": [
                {
                    "internalType": "uint256",
                    "name": "",
                    "type": "uint256"
                }
            ],
            "stateMutability": "view",
            "type": "function"
        },
        {
            "inputs": [],
            "name": "operatorRestriction",
            "outputs": [
                {
                    "internalType": "bool",
                    "name": "",
                    "type": "bool"
                }
            ],
            "stateMutability": "view",
            "type": "function"
        },
        {
            "inputs": [],
            "name": "owner",
            "outputs": [
                {
                    "internalType": "address",
                    "name": "",
                    "type": "address"
                }
            ],
            "stateMutability": "view",
            "type": "function"
        },
        {
            "inputs": [],
            "name": "paySubscription",
            "outputs": [],
            "stateMutability": "payable",
            "type": "function"
        },
        {
            "inputs": [
                {
                    "internalType": "bytes32",
                    "name": "role",
                    "type": "bytes32"
                },
                {
                    "internalType": "address",
                    "name": "account",
                    "type": "address"
                }
            ],
            "name": "renounceRole",
            "outputs": [],
            "stateMutability": "nonpayable",
            "type": "function"
        },
        {
            "inputs": [
                {
                    "internalType": "bytes32",
                    "name": "role",
                    "type": "bytes32"
                },
                {
                    "internalType": "address",
                    "name": "account",
                    "type": "address"
                }
            ],
            "name": "revokeRole",
            "outputs": [],
            "stateMutability": "nonpayable",
            "type": "function"
        },
        {
            "inputs": [
                {
                    "internalType": "uint256",
                    "name": "tokenId",
                    "type": "uint256"
                },
                {
                    "internalType": "uint256",
                    "name": "salePrice",
                    "type": "uint256"
                }
            ],
            "name": "royaltyInfo",
            "outputs": [
                {
                    "internalType": "address",
                    "name": "receiver",
                    "type": "address"
                },
                {
                    "internalType": "uint256",
                    "name": "royaltyAmount",
                    "type": "uint256"
                }
            ],
            "stateMutability": "view",
            "type": "function"
        },
        {
            "inputs": [
                {
                    "internalType": "address",
                    "name": "from",
                    "type": "address"
                },
                {
                    "internalType": "address",
                    "name": "to",
                    "type": "address"
                },
                {
                    "internalType": "uint256[]",
                    "name": "ids",
                    "type": "uint256[]"
                },
                {
                    "internalType": "uint256[]",
                    "name": "amounts",
                    "type": "uint256[]"
                },
                {
                    "internalType": "bytes",
                    "name": "data",
                    "type": "bytes"
                }
            ],
            "name": "safeBatchTransferFrom",
            "outputs": [],
            "stateMutability": "nonpayable",
            "type": "function"
        },
        {
            "inputs": [
                {
                    "internalType": "address",
                    "name": "from",
                    "type": "address"
                },
                {
                    "internalType": "address",
                    "name": "to",
                    "type": "address"
                },
                {
                    "internalType": "uint256",
                    "name": "id",
                    "type": "uint256"
                },
                {
                    "internalType": "uint256",
                    "name": "amount",
                    "type": "uint256"
                },
                {
                    "internalType": "bytes",
                    "name": "data",
                    "type": "bytes"
                }
            ],
            "name": "safeTransferFrom",
            "outputs": [],
            "stateMutability": "nonpayable",
            "type": "function"
        },
        {
            "inputs": [
                {
                    "internalType": "address",
                    "name": "operator",
                    "type": "address"
                },
                {
                    "internalType": "bool",
                    "name": "approved",
                    "type": "bool"
                }
            ],
            "name": "setApprovalForAll",
            "outputs": [],
            "stateMutability": "nonpayable",
            "type": "function"
        },
        {
            "inputs": [
                {
                    "internalType": "bool",
                    "name": "_mode",
                    "type": "bool"
                }
            ],
            "name": "setBuyBackBurn",
            "outputs": [],
            "stateMutability": "nonpayable",
            "type": "function"
        },
        {
            "inputs": [
                {
                    "internalType": "string",
                    "name": "_uri",
                    "type": "string"
                }
            ],
            "name": "setContractURI",
            "outputs": [],
            "stateMutability": "nonpayable",
            "type": "function"
        },
        {
            "inputs": [
                {
                    "internalType": "address",
                    "name": "_royaltyRecipient",
                    "type": "address"
                },
                {
                    "internalType": "uint256",
                    "name": "_royaltyBps",
                    "type": "uint256"
                }
            ],
            "name": "setDefaultRoyaltyInfo",
            "outputs": [],
            "stateMutability": "nonpayable",
            "type": "function"
        },
        {
            "inputs": [
                {
                    "internalType": "address",
                    "name": "_addr",
                    "type": "address"
                }
            ],
            "name": "setLaelapsContract",
            "outputs": [],
            "stateMutability": "nonpayable",
            "type": "function"
        },
        {
            "inputs": [
                {
                    "internalType": "bool",
                    "name": "_lock",
                    "type": "bool"
                }
            ],
            "name": "setLock",
            "outputs": [],
            "stateMutability": "nonpayable",
            "type": "function"
        },
        {
            "inputs": [
                {
                    "internalType": "bool",
                    "name": "_restriction",
                    "type": "bool"
                }
            ],
            "name": "setOperatorRestriction",
            "outputs": [],
            "stateMutability": "nonpayable",
            "type": "function"
        },
        {
            "inputs": [
                {
                    "internalType": "address",
                    "name": "_newOwner",
                    "type": "address"
                }
            ],
            "name": "setOwner",
            "outputs": [],
            "stateMutability": "nonpayable",
            "type": "function"
        },
        {
            "inputs": [
                {
                    "internalType": "uint256",
                    "name": "_price",
                    "type": "uint256"
                }
            ],
            "name": "setPrice",
            "outputs": [],
            "stateMutability": "nonpayable",
            "type": "function"
        },
        {
            "inputs": [
                {
                    "internalType": "uint256",
                    "name": "_tokenId",
                    "type": "uint256"
                },
                {
                    "internalType": "address",
                    "name": "_recipient",
                    "type": "address"
                },
                {
                    "internalType": "uint256",
                    "name": "_bps",
                    "type": "uint256"
                }
            ],
            "name": "setRoyaltyInfoForToken",
            "outputs": [],
            "stateMutability": "nonpayable",
            "type": "function"
        },
        {
            "inputs": [
                {
                    "internalType": "uint256",
                    "name": "_sub_price",
                    "type": "uint256"
                }
            ],
            "name": "setSubscriptionPrice",
            "outputs": [],
            "stateMutability": "nonpayable",
            "type": "function"
        },
        {
            "inputs": [
                {
                    "internalType": "address",
                    "name": "_subscription",
                    "type": "address"
                }
            ],
            "name": "subscribeToRegistry",
            "outputs": [],
            "stateMutability": "nonpayable",
            "type": "function"
        },
        {
            "inputs": [],
            "name": "subscription_price",
            "outputs": [
                {
                    "internalType": "uint256",
                    "name": "",
                    "type": "uint256"
                }
            ],
            "stateMutability": "view",
            "type": "function"
        },
        {
            "inputs": [
                {
                    "internalType": "bytes4",
                    "name": "interfaceId",
                    "type": "bytes4"
                }
            ],
            "name": "supportsInterface",
            "outputs": [
                {
                    "internalType": "bool",
                    "name": "",
                    "type": "bool"
                }
            ],
            "stateMutability": "view",
            "type": "function"
        },
        {
            "inputs": [],
            "name": "symbol",
            "outputs": [
                {
                    "internalType": "string",
                    "name": "",
                    "type": "string"
                }
            ],
            "stateMutability": "view",
            "type": "function"
        },
        {
            "inputs": [
                {
                    "internalType": "uint256",
                    "name": "",
                    "type": "uint256"
                }
            ],
            "name": "totalSupply",
            "outputs": [
                {
                    "internalType": "uint256",
                    "name": "",
                    "type": "uint256"
                }
            ],
            "stateMutability": "view",
            "type": "function"
        },
        {
            "inputs": [
                {
                    "internalType": "uint256",
                    "name": "_tokenId",
                    "type": "uint256"
                }
            ],
            "name": "uri",
            "outputs": [
                {
                    "internalType": "string",
                    "name": "",
                    "type": "string"
                }
            ],
            "stateMutability": "view",
            "type": "function"
        }
    ],
    "bytecode": "0x608060405261271060118190556012556013805460ff19166001179055601480546001600160a01b031990811661dead179091556015805490911673326c977e6efc84e512bb9c30f76e30c160ed06fb1790556016805474017a188ee785589636059738dda5f26e93062f473f6001600160a81b03199091161790553480156200008857600080fd5b506040516200542938038062005429833981016040819052620000ab91620005b4565b8484848484733cc6cdda760b79bafa08df41ecfa224f810dceb6600185856000620000d78382620006f2565b506001620000e68282620006f2565b505050620000fb82826200017360201b60201c565b5062000109905085620002a1565b6200011e826001600160801b038316620002f3565b6200012a60016200039e565b506200013f93506000925033915050620003e5565b505060138054610100600160a81b031916747a250d5630b4cf539739df2c5dacb4c659f2488d0017905550620007e6915050565b6daaeb6d7670e522a718067333cd4e3b156200029d576001600160a01b0382163b15620002565780156200021557604051633e9f1edf60e11b81523060048201526001600160a01b03831660248201526daaeb6d7670e522a718067333cd4e90637d3e3dbe906044015b600060405180830381600087803b158015620001f857600080fd5b505af11580156200020d573d6000803e3d6000fd5b505050505050565b60405163a0af290360e01b81523060048201526001600160a01b03831660248201526daaeb6d7670e522a718067333cd4e9063a0af290390604401620001dd565b604051632210724360e11b81523060048201526daaeb6d7670e522a718067333cd4e90634420e48690602401600060405180830381600087803b158015620001f857600080fd5b5050565b600680546001600160a01b038381166001600160a01b0319831681179093556040519116919082907f8292fce18fa69edf4db7b94ea2e58241df0ae57f97e0a6c9b29067028bf92d7690600090a35050565b6127108111156200033c5760405162461bcd60e51b815260206004820152600f60248201526e45786365656473206d61782062707360881b604482015260640160405180910390fd5b600780546001600160a01b0384166001600160b01b03199091168117600160a01b61ffff851602179091556040518281527f90d7ec04bcb8978719414f82e52e4cb651db41d0e6f8cea6118c2191e6183adb9060200160405180910390a25050565b600b805460ff19168215159081179091556040519081527f38475885990d8dfe9ca01f0ef160a1b5514426eab9ddbc953a3353410ba780969060200160405180910390a150565b620003fc82826200040860201b62001d161760201c565b6200029d828262000463565b6000828152600e602090815260408083206001600160a01b0385168085529252808320805460ff1916600117905551339285917f2f8788117e7eff1d82e926ec794901d17c78024a50270940304540a733656f0d9190a45050565b600082815260106020526040812080549160019190620004848385620007be565b9091555050600092835260106020908152604080852083865260018101835281862080546001600160a01b039096166001600160a01b03199096168617905593855260029093019052912055565b80516001600160a01b0381168114620004ea57600080fd5b919050565b634e487b7160e01b600052604160045260246000fd5b600082601f8301126200051757600080fd5b81516001600160401b0380821115620005345762000534620004ef565b604051601f8301601f19908116603f011681019082821181831017156200055f576200055f620004ef565b816040528381526020925086838588010111156200057c57600080fd5b600091505b83821015620005a0578582018301518183018401529082019062000581565b600093810190920192909252949350505050565b600080600080600060a08688031215620005cd57600080fd5b620005d886620004d2565b60208701519095506001600160401b0380821115620005f657600080fd5b6200060489838a0162000505565b955060408801519150808211156200061b57600080fd5b506200062a8882890162000505565b9350506200063b60608701620004d2565b60808701519092506001600160801b03811681146200065957600080fd5b809150509295509295909350565b600181811c908216806200067c57607f821691505b6020821081036200069d57634e487b7160e01b600052602260045260246000fd5b50919050565b601f821115620006ed57600081815260208120601f850160051c81016020861015620006cc5750805b601f850160051c820191505b818110156200020d57828155600101620006d8565b505050565b81516001600160401b038111156200070e576200070e620004ef565b62000726816200071f845462000667565b84620006a3565b602080601f8311600181146200075e5760008415620007455750858301515b600019600386901b1c1916600185901b1785556200020d565b600085815260208120601f198616915b828110156200078f578886015182559484019460019091019084016200076e565b5085821015620007ae5787850151600019600388901b60f8161c191681555b5050505050600190811b01905550565b80820180821115620007e057634e487b7160e01b600052601160045260246000fd5b92915050565b614c3380620007f66000396000f3fe6080604052600436106103345760003560e01c80638da5cb5b116101ab578063ac9650d8116100f7578063d547741f11610095578063e985e9c51161006f578063e985e9c5146109d4578063f242432a14610a0f578063f5298aca14610a2f578063fccc281314610a4f57600080fd5b8063d547741f14610989578063e0d25c97146109a9578063e8a3d485146109bf57600080fd5b8063b66ceef6116100d1578063b66ceef6146108fc578063b7103f671461091c578063bd85b0391461093c578063ca15c8731461096957600080fd5b8063ac9650d814610884578063b03f4528146108b1578063b24f2d39146108d157600080fd5b806395d89b4111610164578063a217fddf1161013e578063a217fddf1461080f578063a22cb46514610824578063a32fa5b314610844578063a62dac461461086457600080fd5b806395d89b41146107d257806397e18d6e146107e75780639bcf7a15146107ef57600080fd5b80638da5cb5b146107145780639010d07c1461073257806391b7f5ed1461075257806391d1485414610772578063938e3d7b14610792578063949c09f7146107b257600080fd5b806332f0cd641161028557806357fd84551161022357806363b45e2d116101fd57806363b45e2d146106a55780636b20c454146106ba5780638139b96d146106da578063863065fb146106f457600080fd5b806357fd845514610645578063600dd5ea14610665578063619d51941461068557600080fd5b806341f434341161025f57806341f43434146105825780634cc157df146105bc5780634e1273f4146105fe578063504c6e011461062b57600080fd5b806332f0cd641461052d57806336568abe1461054d5780633b1475a71461056d57600080fd5b80631a5ee779116102f25780632762d3cb116102cc5780632762d3cb1461049b5780632a55205a146104ae5780632eb2c2d6146104ed5780632f2ff15d1461050d57600080fd5b80631a5ee7791461042e5780632419f51b1461044e578063248a9ca31461046e57600080fd5b8062fdd58e1461033957806301ffc9a71461038457806306fdde03146103b45780630e89341c146103d657806313af4035146103f65780631a4231a414610418575b600080fd5b34801561034557600080fd5b50610371610354366004613cec565b600260209081526000928352604080842090915290825290205481565b6040519081526020015b60405180910390f35b34801561039057600080fd5b506103a461039f366004613d2e565b610a6f565b604051901515815260200161037b565b3480156103c057600080fd5b506103c9610adc565b60405161037b9190613d9b565b3480156103e257600080fd5b506103c96103f1366004613dae565b610b6a565b34801561040257600080fd5b50610416610411366004613dc7565b610c58565b005b34801561042457600080fd5b5061037160115481565b34801561043a57600080fd5b50610416610449366004613dae565b610c91565b34801561045a57600080fd5b50610371610469366004613dae565b610ca3565b34801561047a57600080fd5b50610371610489366004613dae565b6000908152600f602052604090205490565b6104166104a9366004613cec565b610d11565b3480156104ba57600080fd5b506104ce6104c9366004613de4565b610e7d565b604080516001600160a01b03909316835260208301919091520161037b565b3480156104f957600080fd5b50610416610508366004613f4f565b610eba565b34801561051957600080fd5b50610416610528366004613ffc565b610ee9565b34801561053957600080fd5b5061041661054836600461403a565b610f7f565b34801561055957600080fd5b50610416610568366004613ffc565b610ff0565b34801561057957600080fd5b50600c54610371565b34801561058e57600080fd5b506105a46daaeb6d7670e522a718067333cd4e81565b6040516001600160a01b03909116815260200161037b565b3480156105c857600080fd5b506105dc6105d7366004613dae565b611052565b604080516001600160a01b03909316835261ffff90911660208301520161037b565b34801561060a57600080fd5b5061061e610619366004614057565b6110bd565b60405161037b919061415e565b34801561063757600080fd5b50600b546103a49060ff1681565b34801561065157600080fd5b50610416610660366004613dc7565b6111d1565b34801561067157600080fd5b50610416610680366004613cec565b611241565b34801561069157600080fd5b506104166106a036600461403a565b61126f565b3480156106b157600080fd5b50600954610371565b3480156106c657600080fd5b506104166106d5366004614171565b61129a565b3480156106e657600080fd5b506013546103a49060ff1681565b34801561070057600080fd5b506015546105a4906001600160a01b031681565b34801561072057600080fd5b506006546001600160a01b03166105a4565b34801561073e57600080fd5b506105a461074d366004613de4565b61143c565b34801561075e57600080fd5b5061041661076d366004613dae565b61152a565b34801561077e57600080fd5b506103a461078d366004613ffc565b61153c565b34801561079e57600080fd5b506104166107ad3660046141e6565b611567565b3480156107be57600080fd5b506104166107cd36600461421a565b611594565b3480156107de57600080fd5b506103c961178f565b61041661179c565b3480156107fb57600080fd5b5061041661080a3660046142b4565b611884565b34801561081b57600080fd5b50610371600081565b34801561083057600080fd5b5061041661083f3660046142ec565b6118b3565b34801561085057600080fd5b506103a461085f366004613ffc565b6118c7565b34801561087057600080fd5b5061041661087f36600461403a565b61191d565b34801561089057600080fd5b506108a461089f36600461431a565b61193d565b60405161037b919061438e565b3480156108bd57600080fd5b506104166108cc3660046143f0565b611a31565b3480156108dd57600080fd5b506007546001600160a01b03811690600160a01b900461ffff166105dc565b34801561090857600080fd5b506016546105a4906001600160a01b031681565b34801561092857600080fd5b50610416610937366004613dc7565b611b1c565b34801561094857600080fd5b50610371610957366004613dae565b600d6020526000908152604090205481565b34801561097557600080fd5b50610371610984366004613dae565b611b4b565b34801561099557600080fd5b506104166109a4366004613ffc565b611bd4565b3480156109b557600080fd5b5061037160125481565b3480156109cb57600080fd5b506103c9611bed565b3480156109e057600080fd5b506103a46109ef366004614450565b600360209081526000928352604080842090915290825290205460ff1681565b348015610a1b57600080fd5b50610416610a2a36600461447e565b611bfa565b348015610a3b57600080fd5b50610416610a4a3660046144e6565b611c21565b348015610a5b57600080fd5b506014546105a4906001600160a01b031681565b60006301ffc9a760e01b6001600160e01b031983161480610aa05750636cdb3d1360e11b6001600160e01b03198316145b80610abb57506303a24d0760e21b6001600160e01b03198316145b80610ad657506001600160e01b0319821663152a902d60e11b145b92915050565b60008054610ae99061451b565b80601f0160208091040260200160405190810160405280929190818152602001828054610b159061451b565b8015610b625780601f10610b3757610100808354040283529160200191610b62565b820191906000526020600020905b815481529060010190602001808311610b4557829003601f168201915b505050505081565b600081815260046020526040812080546060929190610b889061451b565b80601f0160208091040260200160405190810160405280929190818152602001828054610bb49061451b565b8015610c015780601f10610bd657610100808354040283529160200191610c01565b820191906000526020600020905b815481529060010190602001808311610be457829003601f168201915b50505050509050600081511115610c185792915050565b6000610c2384611d71565b905080610c2f85611f0d565b604051602001610c4092919061454f565b60405160208183030381529060405292505050919050565b610c60612015565b610c855760405162461bcd60e51b8152600401610c7c9061457e565b60405180910390fd5b610c8e81612042565b50565b6000610c9d8133612094565b50601255565b6000610cae60095490565b8210610cec5760405162461bcd60e51b815260206004820152600d60248201526c092dcecc2d8d2c840d2dcc8caf609b1b6044820152606401610c7c565b60098281548110610cff57610cff6145a6565b90600052602060002001549050919050565b601154341015610d5b5760405162461bcd60e51b8152602060048201526015602482015274696e76616c6964206d696e74696e6720707269636560581b6044820152606401610c7c565b601654600160a01b900460ff1615610da75760405162461bcd60e51b815260206004820152600f60248201526e18dbdb9d1c9858dd081b1bd8dad959608a1b6044820152606401610c7c565b60135460ff1615610dda57610dba612114565b610dd6828260016040518060200160405280600081525061248e565b5050565b4780610e215760405162461bcd60e51b81526020600482015260166024820152752737903130b630b731b2903a37903a3930b739b332b960511b6044820152606401610c7c565b6016546040516001600160a01b039091169082156108fc029083906000818181858888f19350505050158015610e5b573d6000803e3d6000fd5b50610e78838360016040518060200160405280600081525061248e565b505050565b600080600080610e8c86611052565b90945084925061ffff169050612710610ea582876145d2565b610eaf91906145ff565b925050509250929050565b846001600160a01b0381163314610ed457610ed43361256e565b610ee18686868686612632565b505050505050565b6000828152600f6020526040902054610f029033612094565b6000828152600e602090815260408083206001600160a01b038516845290915290205460ff1615610f755760405162461bcd60e51b815260206004820152601d60248201527f43616e206f6e6c79206772616e7420746f206e6f6e20686f6c646572730000006044820152606401610c7c565b610dd682826126ba565b610f87612015565b610fe75760405162461bcd60e51b815260206004820152602b60248201527f4e6f7420617574686f72697a656420746f20736574206f70657261746f72207260448201526a32b9ba3934b1ba34b7b71760a91b6064820152608401610c7c565b610c8e816126ce565b336001600160a01b038216146110485760405162461bcd60e51b815260206004820152601a60248201527f43616e206f6e6c792072656e6f756e636520666f722073656c660000000000006044820152606401610c7c565b610dd68282612715565b6000818152600860209081526040808320815180830190925280546001600160a01b03168083526001909101549282019290925282911561109957805160208201516110b3565b6007546001600160a01b03811690600160a01b900461ffff165b9250925050915091565b606081518351146110e05760405162461bcd60e51b8152600401610c7c90614613565b600083516001600160401b038111156110fb576110fb613e06565b604051908082528060200260200182016040528015611124578160200160208202803683370190505b50905060005b84518110156111c95760026000868381518110611149576111496145a6565b60200260200101516001600160a01b03166001600160a01b031681526020019081526020016000206000858381518110611185576111856145a6565b60200260200101518152602001908152602001600020548282815181106111ae576111ae6145a6565b60209081029190910101526111c28161463c565b905061112a565b509392505050565b6111d9612015565b6112365760405162461bcd60e51b815260206004820152602860248201527f4e6f7420617574686f72697a656420746f2073756273637269626520746f207260448201526732b3b4b9ba393c9760c11b6064820152608401610c7c565b610c8e81600161276c565b611249612015565b6112655760405162461bcd60e51b8152600401610c7c9061457e565b610dd68282612872565b600061127b8133612094565b5060168054911515600160a01b0260ff60a01b19909216919091179055565b336001600160a01b0384168114806112d757506001600160a01b0380851660009081526003602090815260408083209385168352929052205460ff165b6113175760405162461bcd60e51b81526020600482015260116024820152702ab730b8383937bb32b21031b0b63632b960791b6044820152606401610c7c565b815183511461135a5760405162461bcd60e51b815260206004820152600f60248201526e098cadccee8d040dad2e6dac2e8c6d608b1b6044820152606401610c7c565b60005b835181101561142a57828181518110611378576113786145a6565b602002602001015160026000876001600160a01b03166001600160a01b0316815260200190815260200160002060008684815181106113b9576113b96145a6565b602002602001015181526020019081526020016000205410156114185760405162461bcd60e51b8152602060048201526017602482015276139bdd08195b9bdd59da081d1bdad95b9cc81bdddb9959604a1b6044820152606401610c7c565b611423600182614655565b905061135d565b50611436848484612918565b50505050565b60008281526010602052604081205481805b828110156115215760008681526010602090815260408083208484526001019091529020546001600160a01b0316156114ca578482036114b85760008681526010602090815260408083209383526001909301905220546001600160a01b03169250610ad6915050565b6114c3600183614655565b915061150f565b6114d586600061153c565b80156114fc5750600086815260106020908152604080832083805260020190915290205481145b1561150f5761150c600183614655565b91505b61151a600182614655565b905061144e565b50505092915050565b60006115368133612094565b50601155565b6000918252600e602090815260408084206001600160a01b0393909316845291905290205460ff1690565b61156f612015565b61158b5760405162461bcd60e51b8152600401610c7c9061457e565b610c8e81612acd565b61159c612015565b6115e25760405162461bcd60e51b81526020600482015260176024820152762737ba1030baba3437b934bd32b2103a379036b4b73a1760491b6044820152606401610c7c565b600082511161162a5760405162461bcd60e51b815260206004820152601460248201527326b4b73a34b733903d32b937903a37b5b2b7399760611b6044820152606401610c7c565b815183511461166e5760405162461bcd60e51b815260206004820152601060248201526f2632b733ba341036b4b9b6b0ba31b41760811b6044820152606401610c7c565b6000611679600c5490565b9050806000805b865181101561174f5760001987828151811061169e5761169e6145a6565b6020026020010151036116e857838782815181106116be576116be6145a6565b60209081029190910101526116d4600185614655565b93506116e1600183614655565b915061173d565b838782815181106116fb576116fb6145a6565b60200260200101511061173d5760405162461bcd60e51b815260206004820152600a6024820152691a5b9d985b1a59081a5960b21b6044820152606401610c7c565b611748600182614655565b9050611680565b50801561176457611761828286612ba9565b50505b82600c8190555061178687878760405180602001604052806000815250612c0d565b50505050505050565b60018054610ae99061451b565b6012543410156117ee5760405162461bcd60e51b815260206004820152601a60248201527f696e76616c696420737562736372697074696f6e2070726963650000000000006044820152606401610c7c565b60135460ff161561180357611801612114565b565b478061184a5760405162461bcd60e51b81526020600482015260166024820152752737903130b630b731b2903a37903a3930b739b332b960511b6044820152606401610c7c565b6016546040516001600160a01b039091169082156108fc029083906000818181858888f19350505050158015610dd6573d6000803e3d6000fd5b61188c612015565b6118a85760405162461bcd60e51b8152600401610c7c9061457e565b610e78838383612d68565b816118bd8161256e565b610e788383612e32565b6000828152600e6020908152604080832083805290915281205460ff1661191457506000828152600e602090815260408083206001600160a01b038516845290915290205460ff16610ad6565b50600192915050565b60006119298133612094565b506013805460ff1916911515919091179055565b6060816001600160401b0381111561195757611957613e06565b60405190808252806020026020018201604052801561198a57816020015b60608152602001906001900390816119755790505b50905060005b82811015611a2a576119fa308585848181106119ae576119ae6145a6565b90506020028101906119c09190614668565b8080601f016020809104026020016040519081016040528093929190818152602001838380828437600092019190915250612ee192505050565b828281518110611a0c57611a0c6145a6565b60200260200101819052508080611a229061463c565b915050611990565b5092915050565b611a39612015565b611a7f5760405162461bcd60e51b81526020600482015260176024820152762737ba1030baba3437b934bd32b2103a379036b4b73a1760491b6044820152606401610c7c565b600080611a8b600c5490565b90506000198503611ac1578091506001600c6000828254611aac9190614655565b90915550611abc90508185612f0d565b611b01565b808510611afd5760405162461bcd60e51b815260206004820152600a6024820152691a5b9d985b1a59081a5960b21b6044820152606401610c7c565b8491505b610ee18683856040518060200160405280600081525061248e565b6000611b288133612094565b50601580546001600160a01b0319166001600160a01b0392909216919091179055565b600081815260106020526040812054815b81811015611baf5760008481526010602090815260408083208484526001019091529020546001600160a01b031615611b9d57611b9a600184614655565b92505b611ba8600182614655565b9050611b5c565b50611bbb83600061153c565b15611bce57611bcb600183614655565b91505b50919050565b6000828152600f60205260409020546110489033612094565b60058054610ae99061451b565b846001600160a01b0381163314611c1457611c143361256e565b610ee18686868686612f25565b336001600160a01b038416811480611c5e57506001600160a01b0380851660009081526003602090815260408083209385168352929052205460ff165b611c9e5760405162461bcd60e51b81526020600482015260116024820152702ab730b8383937bb32b21031b0b63632b960791b6044820152606401610c7c565b6001600160a01b0384166000908152600260209081526040808320868452909152902054821115611d0b5760405162461bcd60e51b8152602060048201526017602482015276139bdd08195b9bdd59da081d1bdad95b9cc81bdddb9959604a1b6044820152606401610c7c565b611436848484612fad565b6000828152600e602090815260408083206001600160a01b0385168085529252808320805460ff1916600117905551339285917f2f8788117e7eff1d82e926ec794901d17c78024a50270940304540a733656f0d9190a45050565b60606000611d7e60095490565b905060006009805480602002602001604051908101604052809291908181526020018280548015611dce57602002820191906000526020600020905b815481526020019060010190808311611dba575b5050505050905060005b82811015611ed257818181518110611df257611df26145a6565b6020026020010151851015611ec057600a6000838381518110611e1757611e176145a6565b602002602001015181526020019081526020016000208054611e389061451b565b80601f0160208091040260200160405190810160405280929190818152602001828054611e649061451b565b8015611eb15780601f10611e8657610100808354040283529160200191611eb1565b820191906000526020600020905b815481529060010190602001808311611e9457829003601f168201915b50505050509350505050919050565b611ecb600182614655565b9050611dd8565b5060405162461bcd60e51b815260206004820152600f60248201526e125b9d985b1a59081d1bdad95b9259608a1b6044820152606401610c7c565b606081600003611f345750506040805180820190915260018152600360fc1b602082015290565b8160005b8115611f5e5780611f488161463c565b9150611f579050600a836145ff565b9150611f38565b6000816001600160401b03811115611f7857611f78613e06565b6040519080825280601f01601f191660200182016040528015611fa2576020820181803683370190505b5090505b841561200d57611fb76001836146b5565b9150611fc4600a866146c8565b611fcf906030614655565b60f81b818381518110611fe457611fe46145a6565b60200101906001600160f81b031916908160001a905350612006600a866145ff565b9450611fa6565b949350505050565b60006120296006546001600160a01b031690565b6001600160a01b0316336001600160a01b031614905090565b600680546001600160a01b038381166001600160a01b0319831681179093556040519116919082907f8292fce18fa69edf4db7b94ea2e58241df0ae57f97e0a6c9b29067028bf92d7690600090a35050565b6000828152600e602090815260408083206001600160a01b038516845290915290205460ff16610dd6576120d2816001600160a01b031660146130d2565b6120dd8360206130d2565b6040516020016120ee9291906146dc565b60408051601f198184030181529082905262461bcd60e51b8252610c7c91600401613d9b565b60408051600280825260608201835260009260208301908036833701905050905060004790506000601360019054906101000a90046001600160a01b03166001600160a01b031663ad5c46486040518163ffffffff1660e01b8152600401602060405180830381865afa15801561218f573d6000803e3d6000fd5b505050506040513d601f19601f820116820180604052508101906121b39190614749565b905080836000815181106121c9576121c96145a6565b6001600160a01b0392831660209182029290920101526015548451911690849060019081106121fa576121fa6145a6565b60200260200101906001600160a01b031690816001600160a01b031681525050600082116122605760405162461bcd60e51b81526020600482015260136024820152721e5bdd481a185d99481b9bc8195d1a081e595d606a1b6044820152606401610c7c565b30600061226e426064614655565b601354604051637ff36ab560e01b815291925061010090046001600160a01b031690637ff36ab59086906122ac9082908a9088908890600401614766565b60006040518083038185885af11580156122ca573d6000803e3d6000fd5b50505050506040513d6000823e601f3d908101601f191682016040526122f391908101906147d0565b506015546040516370a0823160e01b81523060048201526001600160a01b039091169060009082906370a0823190602401602060405180830381865afa158015612341573d6000803e3d6000fd5b505050506040513d601f19601f82011682018060405250810190612365919061486b565b10156123a85760405162461bcd60e51b8152602060048201526012602482015271496e73756666696369656e742066756e647360701b6044820152606401610c7c565b6014546040516370a0823160e01b81523060048201526001600160a01b038381169263a9059cbb9291169083906370a0823190602401602060405180830381865afa1580156123fb573d6000803e3d6000fd5b505050506040513d601f19601f8201168201806040525081019061241f919061486b565b6040516001600160e01b031960e085901b1681526001600160a01b03909216600483015260248201526044016020604051808303816000875af115801561246a573d6000803e3d6000fd5b505050506040513d601f19601f820116820180604052508101906117869190614884565b6001600160a01b0384166124b45760405162461bcd60e51b8152600401610c7c906148a1565b336124d4816000876124c58861326d565b6124ce8861326d565b876132b8565b6001600160a01b038516600090815260026020908152604080832087845290915281208054859290612507908490614655565b909155505060408051858152602081018590526001600160a01b0380881692600092918516917fc3d58168c5ae7397731d063d5bbf3d657854427343f4c083240f7aacaa2d0f62910160405180910390a4612567816000878787876134dd565b5050505050565b600b5460ff1615610c8e576daaeb6d7670e522a718067333cd4e3b15610c8e57604051633185c44d60e21b81523060048201526001600160a01b03821660248201526daaeb6d7670e522a718067333cd4e9063c617113490604401602060405180830381865afa1580156125e6573d6000803e3d6000fd5b505050506040513d601f19601f8201168201806040525081019061260a9190614884565b610c8e57604051633b79c77360e21b81526001600160a01b0382166004820152602401610c7c565b6001600160a01b03851633148061266c57506001600160a01b038516600090815260036020908152604080832033845290915290205460ff165b6126ad5760405162461bcd60e51b81526020600482015260126024820152710853d5d3915497d3d497d054141493d5915160721b6044820152606401610c7c565b6125678585858585613630565b6126c48282611d16565b610dd682826137e3565b600b805460ff19168215159081179091556040519081527f38475885990d8dfe9ca01f0ef160a1b5514426eab9ddbc953a3353410ba780969060200160405180910390a150565b61271f8282613850565b60008281526010602090815260408083206001600160a01b03851680855260028201808552838620805487526001909301855292852080546001600160a01b031916905584529152555050565b6daaeb6d7670e522a718067333cd4e3b15610dd6576001600160a01b0382163b1561284157801561280157604051633e9f1edf60e11b81523060048201526001600160a01b03831660248201526daaeb6d7670e522a718067333cd4e90637d3e3dbe906044015b600060405180830381600087803b1580156127ed57600080fd5b505af1158015610ee1573d6000803e3d6000fd5b60405163a0af290360e01b81523060048201526001600160a01b03831660248201526daaeb6d7670e522a718067333cd4e9063a0af2903906044016127d3565b604051632210724360e11b81523060048201526daaeb6d7670e522a718067333cd4e90634420e486906024016127d3565b6127108111156128b65760405162461bcd60e51b815260206004820152600f60248201526e45786365656473206d61782062707360881b6044820152606401610c7c565b600780546001600160a01b0384166001600160b01b03199091168117600160a01b61ffff851602179091556040518281527f90d7ec04bcb8978719414f82e52e4cb651db41d0e6f8cea6118c2191e6183adb9060200160405180910390a25050565b6001600160a01b03831661295f5760405162461bcd60e51b815260206004820152600e60248201526d232927a6afad22a927afa0a2222960911b6044820152606401610c7c565b80518251146129805760405162461bcd60e51b8152600401610c7c90614613565b60003390506129a3818560008686604051806020016040528060008152506132b8565b60005b8351811015612a6e5760008482815181106129c3576129c36145a6565b6020026020010151905060008483815181106129e1576129e16145a6565b6020908102919091018101516001600160a01b0389166000908152600283526040808220868352909352919091205490915081811015612a335760405162461bcd60e51b8152600401610c7c906148c7565b6001600160a01b0388166000908152600260209081526040808320958352949052929092209103905580612a668161463c565b9150506129a6565b5060006001600160a01b0316846001600160a01b0316826001600160a01b03167f4a39dc06d4c0dbc64b70af90fd698a233a518aa5d07e595d983b8c0526c8f7fb8686604051612abf9291906148f1565b60405180910390a450505050565b600060058054612adc9061451b565b80601f0160208091040260200160405190810160405280929190818152602001828054612b089061451b565b8015612b555780601f10612b2a57610100808354040283529160200191612b55565b820191906000526020600020905b815481529060010190602001808311612b3857829003601f168201915b505050505090508160059081612b6b9190614965565b507fc9c7c3fe08b88b4df9d4d47ef47d2c43d55c025a0ba88ca442580ed9e7348a168183604051612b9d929190614a24565b60405180910390a15050565b600080612bb68486614655565b60098054600181019091557f6e1540171b6c0c960b71a7020d9f60077f6af931a8bbf590da0223dacf75c7af018190556000818152600a60205260409020909250829150612c048482614965565b50935093915050565b6001600160a01b038416612c335760405162461bcd60e51b8152600401610c7c906148a1565b8151835114612c545760405162461bcd60e51b8152600401610c7c90614613565b33612c64816000878787876132b8565b60005b8451811015612d0057838181518110612c8257612c826145a6565b602002602001015160026000886001600160a01b03166001600160a01b031681526020019081526020016000206000878481518110612cc357612cc36145a6565b602002602001015181526020019081526020016000206000828254612ce89190614655565b90915550819050612cf88161463c565b915050612c67565b50846001600160a01b031660006001600160a01b0316826001600160a01b03167f4a39dc06d4c0dbc64b70af90fd698a233a518aa5d07e595d983b8c0526c8f7fb8787604051612d519291906148f1565b60405180910390a4612567816000878787876138b2565b612710811115612dac5760405162461bcd60e51b815260206004820152600f60248201526e45786365656473206d61782062707360881b6044820152606401610c7c565b6040805180820182526001600160a01b038481168083526020808401868152600089815260088352869020945185546001600160a01b031916941693909317845591516001909301929092559151838152909185917f7365cf4122f072a3365c20d54eff9b38d73c096c28e1892ec8f5b0e403a0f12d91015b60405180910390a3505050565b336001600160a01b0383168103612e7c5760405162461bcd60e51b815260206004820152600e60248201526d20a8282927ab24a723afa9a2a62360911b6044820152606401610c7c565b6001600160a01b03818116600081815260036020908152604080832094881680845294825291829020805460ff191687151590811790915591519182527f17307eab39ab6107e8899845ad3d59bd9653f200f220920489ca2b5937696c319101612e25565b6060612f068383604051806060016040528060278152602001614bd76027913961398f565b9392505050565b6000828152600460205260409020610e788282614965565b6001600160a01b038516331480612f5f57506001600160a01b038516600090815260036020908152604080832033845290915290205460ff165b612fa05760405162461bcd60e51b81526020600482015260126024820152710853d5d3915497d3d497d054141493d5915160721b6044820152606401610c7c565b6125678585858585613a6c565b6001600160a01b038316612ff45760405162461bcd60e51b815260206004820152600e60248201526d232927a6afad22a927afa0a2222960911b6044820152606401610c7c565b33613023818560006130058761326d565b61300e8761326d565b604051806020016040528060008152506132b8565b6001600160a01b0384166000908152600260209081526040808320868452909152902054828110156130675760405162461bcd60e51b8152600401610c7c906148c7565b6001600160a01b03858116600081815260026020908152604080832089845282528083208887039055805189815291820188905291938616917fc3d58168c5ae7397731d063d5bbf3d657854427343f4c083240f7aacaa2d0f62910160405180910390a45050505050565b606060006130e18360026145d2565b6130ec906002614655565b6001600160401b0381111561310357613103613e06565b6040519080825280601f01601f19166020018201604052801561312d576020820181803683370190505b509050600360fc1b81600081518110613148576131486145a6565b60200101906001600160f81b031916908160001a905350600f60fb1b81600181518110613177576131776145a6565b60200101906001600160f81b031916908160001a905350600061319b8460026145d2565b6131a6906001614655565b90505b600181111561321e576f181899199a1a9b1b9c1cb0b131b232b360811b85600f16601081106131da576131da6145a6565b1a60f81b8282815181106131f0576131f06145a6565b60200101906001600160f81b031916908160001a90535060049490941c9361321781614a49565b90506131a9565b508315612f065760405162461bcd60e51b815260206004820181905260248201527f537472696e67733a20686578206c656e67746820696e73756666696369656e746044820152606401610c7c565b604080516001808252818301909252606091600091906020808301908036833701905050905082816000815181106132a7576132a76145a6565b602090810291909101015292915050565b6132c6868686868686613b92565b6132f17f8502233096d909befbda0999bb8ea2f3a6be3c138b9fbf003752a4c8bce86f6c600061153c565b15801561330657506001600160a01b03851615155b801561331a57506001600160a01b03841615155b156133d1576133497f8502233096d909befbda0999bb8ea2f3a6be3c138b9fbf003752a4c8bce86f6c8661153c565b8061337957506133797f8502233096d909befbda0999bb8ea2f3a6be3c138b9fbf003752a4c8bce86f6c8561153c565b6133d15760405162461bcd60e51b8152602060048201526024808201527f7265737472696374656420746f205452414e534645525f524f4c4520686f6c6460448201526332b9399760e11b6064820152608401610c7c565b6001600160a01b0385166134585760005b8351811015613456578281815181106133fd576133fd6145a6565b6020026020010151600d600086848151811061341b5761341b6145a6565b6020026020010151815260200190815260200160002060008282546134409190614655565b9091555061344f90508161463c565b90506133e2565b505b6001600160a01b038416610ee15760005b835181101561178657828181518110613484576134846145a6565b6020026020010151600d60008684815181106134a2576134a26145a6565b6020026020010151815260200190815260200160002060008282546134c791906146b5565b909155506134d690508161463c565b9050613469565b6001600160a01b0384163b15610ee15760405163f23a6e6160e01b81526001600160a01b0385169063f23a6e61906135219089908990889088908890600401614a60565b6020604051808303816000875af192505050801561355c575060408051601f3d908101601f1916820190925261355991810190614a9a565b60015b6135de57613568614ab7565b806308c379a0036135a1575061357c614ad3565b8061358757506135a3565b8060405162461bcd60e51b8152600401610c7c9190613d9b565b505b60405162461bcd60e51b815260206004820152601060248201526f10a2a92198989a9aa922a1a2a4ab22a960811b6044820152606401610c7c565b6001600160e01b0319811663f23a6e6160e01b146117865760405162461bcd60e51b815260206004820152600f60248201526e1513d2d15394d7d491529150d51151608a1b6044820152606401610c7c565b81518351146136515760405162461bcd60e51b8152600401610c7c90614613565b6001600160a01b0384166136775760405162461bcd60e51b8152600401610c7c906148a1565b336136868187878787876132b8565b60005b845181101561377d5760008582815181106136a6576136a66145a6565b6020026020010151905060008583815181106136c4576136c46145a6565b6020908102919091018101516001600160a01b038b1660009081526002835260408082208683529093529190912054909150818110156137165760405162461bcd60e51b8152600401610c7c906148c7565b6001600160a01b03808b16600090815260026020818152604080842088855282528084208787039055938d16835290815282822086835290529081208054849290613762908490614655565b92505081905550505050806137769061463c565b9050613689565b50846001600160a01b0316866001600160a01b0316826001600160a01b03167f4a39dc06d4c0dbc64b70af90fd698a233a518aa5d07e595d983b8c0526c8f7fb87876040516137cd9291906148f1565b60405180910390a4610ee18187878787876138b2565b6000828152601060205260408120805491600191906138028385614655565b9091555050600092835260106020908152604080852083865260018101835281862080546001600160a01b039096166001600160a01b03199096168617905593855260029093019052912055565b61385a8282612094565b6000828152600e602090815260408083206001600160a01b0385168085529252808320805460ff1916905551339285917ff6391f5c32d9c69d2a47ea670b442974b53935d1edc7fd64eb21e047a839171b9190a45050565b6001600160a01b0384163b15610ee15760405163bc197c8160e01b81526001600160a01b0385169063bc197c81906138f69089908990889088908890600401614b5c565b6020604051808303816000875af1925050508015613931575060408051601f3d908101601f1916820190925261392e91810190614a9a565b60015b61393d57613568614ab7565b6001600160e01b0319811663bc197c8160e01b146117865760405162461bcd60e51b815260206004820152600f60248201526e1513d2d15394d7d491529150d51151608a1b6044820152606401610c7c565b60606001600160a01b0384163b6139f75760405162461bcd60e51b815260206004820152602660248201527f416464726573733a2064656c65676174652063616c6c20746f206e6f6e2d636f6044820152651b9d1c9858dd60d21b6064820152608401610c7c565b600080856001600160a01b031685604051613a129190614bba565b600060405180830381855af49150503d8060008114613a4d576040519150601f19603f3d011682016040523d82523d6000602084013e613a52565b606091505b5091509150613a62828286613c9e565b9695505050505050565b6001600160a01b038416613a925760405162461bcd60e51b8152600401610c7c906148a1565b33613aa28187876124c58861326d565b6001600160a01b038616600090815260026020908152604080832087845290915290205483811015613ae65760405162461bcd60e51b8152600401610c7c906148c7565b6001600160a01b0380881660009081526002602081815260408084208a855282528084208987039055938a16835290815282822088835290529081208054869290613b32908490614655565b909155505060408051868152602081018690526001600160a01b03808916928a821692918616917fc3d58168c5ae7397731d063d5bbf3d657854427343f4c083240f7aacaa2d0f62910160405180910390a46117868288888888886134dd565b6001600160a01b038516613c195760005b8351811015613c1757828181518110613bbe57613bbe6145a6565b6020026020010151600d6000868481518110613bdc57613bdc6145a6565b602002602001015181526020019081526020016000206000828254613c019190614655565b90915550613c1090508161463c565b9050613ba3565b505b6001600160a01b038416610ee15760005b835181101561178657828181518110613c4557613c456145a6565b6020026020010151600d6000868481518110613c6357613c636145a6565b602002602001015181526020019081526020016000206000828254613c8891906146b5565b90915550613c9790508161463c565b9050613c2a565b60608315613cad575081612f06565b825115613cbd5782518084602001fd5b8160405162461bcd60e51b8152600401610c7c9190613d9b565b6001600160a01b0381168114610c8e57600080fd5b60008060408385031215613cff57600080fd5b8235613d0a81613cd7565b946020939093013593505050565b6001600160e01b031981168114610c8e57600080fd5b600060208284031215613d4057600080fd5b8135612f0681613d18565b60005b83811015613d66578181015183820152602001613d4e565b50506000910152565b60008151808452613d87816020860160208601613d4b565b601f01601f19169290920160200192915050565b602081526000612f066020830184613d6f565b600060208284031215613dc057600080fd5b5035919050565b600060208284031215613dd957600080fd5b8135612f0681613cd7565b60008060408385031215613df757600080fd5b50508035926020909101359150565b634e487b7160e01b600052604160045260246000fd5b601f8201601f191681016001600160401b0381118282101715613e4157613e41613e06565b6040525050565b60006001600160401b03821115613e6157613e61613e06565b5060051b60200190565b600082601f830112613e7c57600080fd5b81356020613e8982613e48565b604051613e968282613e1c565b83815260059390931b8501820192828101915086841115613eb657600080fd5b8286015b84811015613ed15780358352918301918301613eba565b509695505050505050565b600082601f830112613eed57600080fd5b81356001600160401b03811115613f0657613f06613e06565b604051613f1d601f8301601f191660200182613e1c565b818152846020838601011115613f3257600080fd5b816020850160208301376000918101602001919091529392505050565b600080600080600060a08688031215613f6757600080fd5b8535613f7281613cd7565b94506020860135613f8281613cd7565b935060408601356001600160401b0380821115613f9e57600080fd5b613faa89838a01613e6b565b94506060880135915080821115613fc057600080fd5b613fcc89838a01613e6b565b93506080880135915080821115613fe257600080fd5b50613fef88828901613edc565b9150509295509295909350565b6000806040838503121561400f57600080fd5b82359150602083013561402181613cd7565b809150509250929050565b8015158114610c8e57600080fd5b60006020828403121561404c57600080fd5b8135612f068161402c565b6000806040838503121561406a57600080fd5b82356001600160401b038082111561408157600080fd5b818501915085601f83011261409557600080fd5b813560206140a282613e48565b6040516140af8282613e1c565b83815260059390931b85018201928281019150898411156140cf57600080fd5b948201945b838610156140f65785356140e781613cd7565b825294820194908201906140d4565b9650508601359250508082111561410c57600080fd5b5061411985828601613e6b565b9150509250929050565b600081518084526020808501945080840160005b8381101561415357815187529582019590820190600101614137565b509495945050505050565b602081526000612f066020830184614123565b60008060006060848603121561418657600080fd5b833561419181613cd7565b925060208401356001600160401b03808211156141ad57600080fd5b6141b987838801613e6b565b935060408601359150808211156141cf57600080fd5b506141dc86828701613e6b565b9150509250925092565b6000602082840312156141f857600080fd5b81356001600160401b0381111561420e57600080fd5b61200d84828501613edc565b6000806000806080858703121561423057600080fd5b843561423b81613cd7565b935060208501356001600160401b038082111561425757600080fd5b61426388838901613e6b565b9450604087013591508082111561427957600080fd5b61428588838901613e6b565b9350606087013591508082111561429b57600080fd5b506142a887828801613edc565b91505092959194509250565b6000806000606084860312156142c957600080fd5b8335925060208401356142db81613cd7565b929592945050506040919091013590565b600080604083850312156142ff57600080fd5b823561430a81613cd7565b915060208301356140218161402c565b6000806020838503121561432d57600080fd5b82356001600160401b038082111561434457600080fd5b818501915085601f83011261435857600080fd5b81358181111561436757600080fd5b8660208260051b850101111561437c57600080fd5b60209290920196919550909350505050565b6000602080830181845280855180835260408601915060408160051b870101925083870160005b828110156143e357603f198886030184526143d1858351613d6f565b945092850192908501906001016143b5565b5092979650505050505050565b6000806000806080858703121561440657600080fd5b843561441181613cd7565b93506020850135925060408501356001600160401b0381111561443357600080fd5b61443f87828801613edc565b949793965093946060013593505050565b6000806040838503121561446357600080fd5b823561446e81613cd7565b9150602083013561402181613cd7565b600080600080600060a0868803121561449657600080fd5b85356144a181613cd7565b945060208601356144b181613cd7565b9350604086013592506060860135915060808601356001600160401b038111156144da57600080fd5b613fef88828901613edc565b6000806000606084860312156144fb57600080fd5b833561450681613cd7565b95602085013595506040909401359392505050565b600181811c9082168061452f57607f821691505b602082108103611bce57634e487b7160e01b600052602260045260246000fd5b60008351614561818460208801613d4b565b835190830190614575818360208801613d4b565b01949350505050565b6020808252600e908201526d139bdd08185d5d1a1bdc9a5e995960921b604082015260600190565b634e487b7160e01b600052603260045260246000fd5b634e487b7160e01b600052601160045260246000fd5b8082028115828204841417610ad657610ad66145bc565b634e487b7160e01b600052601260045260246000fd5b60008261460e5761460e6145e9565b500490565b6020808252600f908201526e0988a9c8ea890be9a92a69a82a8869608b1b604082015260600190565b60006001820161464e5761464e6145bc565b5060010190565b80820180821115610ad657610ad66145bc565b6000808335601e1984360301811261467f57600080fd5b8301803591506001600160401b0382111561469957600080fd5b6020019150368190038213156146ae57600080fd5b9250929050565b81810381811115610ad657610ad66145bc565b6000826146d7576146d76145e9565b500690565b7402832b936b4b9b9b4b7b7399d1030b1b1b7bab73a1605d1b81526000835161470c816015850160208801613d4b565b7001034b99036b4b9b9b4b733903937b6329607d1b601591840191820152835161473d816026840160208801613d4b565b01602601949350505050565b60006020828403121561475b57600080fd5b8151612f0681613cd7565b600060808201868352602060808185015281875180845260a086019150828901935060005b818110156147b05784516001600160a01b03168352938301939183019160010161478b565b50506001600160a01b039690961660408501525050506060015292915050565b600060208083850312156147e357600080fd5b82516001600160401b038111156147f957600080fd5b8301601f8101851361480a57600080fd5b805161481581613e48565b6040516148228282613e1c565b82815260059290921b830184019184810191508783111561484257600080fd5b928401925b8284101561486057835182529284019290840190614847565b979650505050505050565b60006020828403121561487d57600080fd5b5051919050565b60006020828403121561489657600080fd5b8151612f068161402c565b6020808252600c908201526b2a27afad22a927afa0a2222960a11b604082015260600190565b60208082526010908201526f125394d551919250d251539517d0905360821b604082015260600190565b6040815260006149046040830185614123565b82810360208401526149168185614123565b95945050505050565b601f821115610e7857600081815260208120601f850160051c810160208610156149465750805b601f850160051c820191505b81811015610ee157828155600101614952565b81516001600160401b0381111561497e5761497e613e06565b6149928161498c845461451b565b8461491f565b602080601f8311600181146149c757600084156149af5750858301515b600019600386901b1c1916600185901b178555610ee1565b600085815260208120601f198616915b828110156149f6578886015182559484019460019091019084016149d7565b5085821015614a145787850151600019600388901b60f8161c191681555b5050505050600190811b01905550565b604081526000614a376040830185613d6f565b82810360208401526149168185613d6f565b600081614a5857614a586145bc565b506000190190565b6001600160a01b03868116825285166020820152604081018490526060810183905260a06080820181905260009061486090830184613d6f565b600060208284031215614aac57600080fd5b8151612f0681613d18565b600060033d1115614ad05760046000803e5060005160e01c5b90565b600060443d1015614ae15790565b6040516003193d81016004833e81513d6001600160401b038160248401118184111715614b1057505050505090565b8285019150815181811115614b285750505050505090565b843d8701016020828501011115614b425750505050505090565b614b5160208286010187613e1c565b509095945050505050565b6001600160a01b0386811682528516602082015260a060408201819052600090614b8890830186614123565b8281036060840152614b9a8186614123565b90508281036080840152614bae8185613d6f565b98975050505050505050565b60008251614bcc818460208701613d4b565b919091019291505056fe416464726573733a206c6f772d6c6576656c2064656c65676174652063616c6c206661696c6564a2646970667358221220e81599253ad0e87cb67e8864732e34f0c444ffa9a39165a5d51c4addd672dec664736f6c63430008110033",
    "linkReferences": {},
    "deployedLinkReferences": {}
}