{
  "contractName": "LaelapsMasterKey",
  "abi": [
    {
      "inputs": [
        {
          "internalType": "string",
          "name": "_uri",
          "type": "string"
        }
      ],
      "stateMutability": "nonpayable",
      "type": "constructor"
    },
    {
      "inputs": [
        {
          "internalType": "address",
          "name": "operator",
          "type": "address"
        }
      ],
      "name": "OperatorNotAllowed",
      "type": "error"
    },
    {
      "anonymous": false,
      "inputs": [
        {
          "indexed": true,
          "internalType": "address",
          "name": "owner",
          "type": "address"
        },
        {
          "indexed": true,
          "internalType": "address",
          "name": "approved",
          "type": "address"
        },
        {
          "indexed": true,
          "internalType": "uint256",
          "name": "tokenId",
          "type": "uint256"
        }
      ],
      "name": "Approval",
      "type": "event"
    },
    {
      "anonymous": false,
      "inputs": [
        {
          "indexed": true,
          "internalType": "address",
          "name": "owner",
          "type": "address"
        },
        {
          "indexed": true,
          "internalType": "address",
          "name": "operator",
          "type": "address"
        },
        {
          "indexed": false,
          "internalType": "bool",
          "name": "approved",
          "type": "bool"
        }
      ],
      "name": "ApprovalForAll",
      "type": "event"
    },
    {
      "anonymous": false,
      "inputs": [
        {
          "indexed": false,
          "internalType": "uint256",
          "name": "_fromTokenId",
          "type": "uint256"
        },
        {
          "indexed": false,
          "internalType": "uint256",
          "name": "_toTokenId",
          "type": "uint256"
        }
      ],
      "name": "BatchMetadataUpdate",
      "type": "event"
    },
    {
      "anonymous": false,
      "inputs": [
        {
          "indexed": false,
          "internalType": "uint256",
          "name": "_tokenId",
          "type": "uint256"
        }
      ],
      "name": "MetadataUpdate",
      "type": "event"
    },
    {
      "anonymous": false,
      "inputs": [
        {
          "indexed": true,
          "internalType": "address",
          "name": "previousOwner",
          "type": "address"
        },
        {
          "indexed": true,
          "internalType": "address",
          "name": "newOwner",
          "type": "address"
        }
      ],
      "name": "OwnershipTransferred",
      "type": "event"
    },
    {
      "anonymous": false,
      "inputs": [
        {
          "indexed": true,
          "internalType": "address",
          "name": "from",
          "type": "address"
        },
        {
          "indexed": true,
          "internalType": "address",
          "name": "to",
          "type": "address"
        },
        {
          "indexed": true,
          "internalType": "uint256",
          "name": "tokenId",
          "type": "uint256"
        }
      ],
      "name": "Transfer",
      "type": "event"
    },
    {
      "inputs": [],
      "name": "BURN_ADDRESS",
      "outputs": [
        {
          "internalType": "address",
          "name": "",
          "type": "address"
        }
      ],
      "stateMutability": "view",
      "type": "function",
      "constant": true
    },
    {
      "inputs": [],
      "name": "LAELAPS_ADDRESS",
      "outputs": [
        {
          "internalType": "address",
          "name": "",
          "type": "address"
        }
      ],
      "stateMutability": "view",
      "type": "function",
      "constant": true
    },
    {
      "inputs": [],
      "name": "OPERATOR_FILTER_REGISTRY",
      "outputs": [
        {
          "internalType": "contract IOperatorFilterRegistry",
          "name": "",
          "type": "address"
        }
      ],
      "stateMutability": "view",
      "type": "function",
      "constant": true
    },
    {
      "inputs": [],
      "name": "REWARD_WALLET",
      "outputs": [
        {
          "internalType": "address",
          "name": "",
          "type": "address"
        }
      ],
      "stateMutability": "view",
      "type": "function",
      "constant": true
    },
    {
      "inputs": [],
      "name": "TOTAL_SUPPLY",
      "outputs": [
        {
          "internalType": "uint256",
          "name": "",
          "type": "uint256"
        }
      ],
      "stateMutability": "view",
      "type": "function",
      "constant": true
    },
    {
      "inputs": [
        {
          "internalType": "address",
          "name": "owner",
          "type": "address"
        }
      ],
      "name": "balanceOf",
      "outputs": [
        {
          "internalType": "uint256",
          "name": "",
          "type": "uint256"
        }
      ],
      "stateMutability": "view",
      "type": "function",
      "constant": true
    },
    {
      "inputs": [],
      "name": "burnPercentage",
      "outputs": [
        {
          "internalType": "uint256",
          "name": "",
          "type": "uint256"
        }
      ],
      "stateMutability": "view",
      "type": "function",
      "constant": true
    },
    {
      "inputs": [
        {
          "internalType": "uint256",
          "name": "tokenId",
          "type": "uint256"
        }
      ],
      "name": "getApproved",
      "outputs": [
        {
          "internalType": "address",
          "name": "",
          "type": "address"
        }
      ],
      "stateMutability": "view",
      "type": "function",
      "constant": true
    },
    {
      "inputs": [
        {
          "internalType": "address",
          "name": "owner",
          "type": "address"
        },
        {
          "internalType": "address",
          "name": "operator",
          "type": "address"
        }
      ],
      "name": "isApprovedForAll",
      "outputs": [
        {
          "internalType": "bool",
          "name": "",
          "type": "bool"
        }
      ],
      "stateMutability": "view",
      "type": "function",
      "constant": true
    },
    {
      "inputs": [],
      "name": "locked",
      "outputs": [
        {
          "internalType": "uint256",
          "name": "",
          "type": "uint256"
        }
      ],
      "stateMutability": "view",
      "type": "function",
      "constant": true
    },
    {
      "inputs": [],
      "name": "mintCost",
      "outputs": [
        {
          "internalType": "uint256",
          "name": "",
          "type": "uint256"
        }
      ],
      "stateMutability": "view",
      "type": "function",
      "constant": true
    },
    {
      "inputs": [],
      "name": "name",
      "outputs": [
        {
          "internalType": "string",
          "name": "",
          "type": "string"
        }
      ],
      "stateMutability": "view",
      "type": "function",
      "constant": true
    },
    {
      "inputs": [],
      "name": "owner",
      "outputs": [
        {
          "internalType": "address",
          "name": "",
          "type": "address"
        }
      ],
      "stateMutability": "view",
      "type": "function",
      "constant": true
    },
    {
      "inputs": [
        {
          "internalType": "uint256",
          "name": "tokenId",
          "type": "uint256"
        }
      ],
      "name": "ownerOf",
      "outputs": [
        {
          "internalType": "address",
          "name": "",
          "type": "address"
        }
      ],
      "stateMutability": "view",
      "type": "function",
      "constant": true
    },
    {
      "inputs": [],
      "name": "renounceOwnership",
      "outputs": [],
      "stateMutability": "nonpayable",
      "type": "function"
    },
    {
      "inputs": [],
      "name": "rewardPercentage",
      "outputs": [
        {
          "internalType": "uint256",
          "name": "",
          "type": "uint256"
        }
      ],
      "stateMutability": "view",
      "type": "function",
      "constant": true
    },
    {
      "inputs": [
        {
          "internalType": "uint256",
          "name": "tokenId",
          "type": "uint256"
        },
        {
          "internalType": "uint256",
          "name": "salePrice",
          "type": "uint256"
        }
      ],
      "name": "royaltyInfo",
      "outputs": [
        {
          "internalType": "address",
          "name": "",
          "type": "address"
        },
        {
          "internalType": "uint256",
          "name": "",
          "type": "uint256"
        }
      ],
      "stateMutability": "view",
      "type": "function",
      "constant": true
    },
    {
      "inputs": [],
      "name": "symbol",
      "outputs": [
        {
          "internalType": "string",
          "name": "",
          "type": "string"
        }
      ],
      "stateMutability": "view",
      "type": "function",
      "constant": true
    },
    {
      "inputs": [],
      "name": "tokenURI",
      "outputs": [
        {
          "internalType": "string",
          "name": "",
          "type": "string"
        }
      ],
      "stateMutability": "view",
      "type": "function",
      "constant": true
    },
    {
      "inputs": [
        {
          "internalType": "uint256",
          "name": "tokenId",
          "type": "uint256"
        }
      ],
      "name": "tokenURI",
      "outputs": [
        {
          "internalType": "string",
          "name": "",
          "type": "string"
        }
      ],
      "stateMutability": "view",
      "type": "function",
      "constant": true
    },
    {
      "inputs": [
        {
          "internalType": "address",
          "name": "newOwner",
          "type": "address"
        }
      ],
      "name": "transferOwnership",
      "outputs": [],
      "stateMutability": "nonpayable",
      "type": "function"
    },
    {
      "inputs": [
        {
          "internalType": "string",
          "name": "_uri",
          "type": "string"
        }
      ],
      "name": "setTokenUri",
      "outputs": [],
      "stateMutability": "nonpayable",
      "type": "function"
    },
    {
      "inputs": [
        {
          "internalType": "uint256",
          "name": "_supply",
          "type": "uint256"
        }
      ],
      "name": "setTotalSupply",
      "outputs": [],
      "stateMutability": "nonpayable",
      "type": "function"
    },
    {
      "inputs": [
        {
          "internalType": "uint256",
          "name": "_mintPrice",
          "type": "uint256"
        }
      ],
      "name": "setMintPrice",
      "outputs": [],
      "stateMutability": "nonpayable",
      "type": "function"
    },
    {
      "inputs": [
        {
          "internalType": "uint96",
          "name": "_royalty",
          "type": "uint96"
        }
      ],
      "name": "setRoyalty",
      "outputs": [],
      "stateMutability": "nonpayable",
      "type": "function"
    },
    {
      "inputs": [],
      "name": "getContractBalance",
      "outputs": [
        {
          "internalType": "uint256",
          "name": "",
          "type": "uint256"
        }
      ],
      "stateMutability": "view",
      "type": "function",
      "constant": true
    },
    {
      "inputs": [],
      "name": "getLaelapsBalance",
      "outputs": [
        {
          "internalType": "uint256",
          "name": "",
          "type": "uint256"
        }
      ],
      "stateMutability": "view",
      "type": "function",
      "constant": true
    },
    {
      "inputs": [
        {
          "internalType": "bytes4",
          "name": "interfaceId",
          "type": "bytes4"
        }
      ],
      "name": "supportsInterface",
      "outputs": [
        {
          "internalType": "bool",
          "name": "",
          "type": "bool"
        }
      ],
      "stateMutability": "view",
      "type": "function",
      "constant": true
    },
    {
      "inputs": [
        {
          "internalType": "uint256",
          "name": "tokenId",
          "type": "uint256"
        }
      ],
      "name": "burnNFT",
      "outputs": [],
      "stateMutability": "nonpayable",
      "type": "function"
    },
    {
      "inputs": [
        {
          "internalType": "uint256",
          "name": "_lock",
          "type": "uint256"
        }
      ],
      "name": "lock",
      "outputs": [],
      "stateMutability": "nonpayable",
      "type": "function"
    },
    {
      "inputs": [
        {
          "internalType": "address",
          "name": "_addr",
          "type": "address"
        }
      ],
      "name": "changeLaelapsAddress",
      "outputs": [],
      "stateMutability": "nonpayable",
      "type": "function"
    },
    {
      "inputs": [],
      "name": "transferBalanceToOwner",
      "outputs": [],
      "stateMutability": "nonpayable",
      "type": "function"
    },
    {
      "inputs": [
        {
          "internalType": "address",
          "name": "recipient",
          "type": "address"
        }
      ],
      "name": "mintNFT",
      "outputs": [
        {
          "internalType": "uint256",
          "name": "",
          "type": "uint256"
        }
      ],
      "stateMutability": "payable",
      "type": "function",
      "payable": true
    },
    {
      "inputs": [
        {
          "internalType": "address",
          "name": "operator",
          "type": "address"
        },
        {
          "internalType": "bool",
          "name": "approved",
          "type": "bool"
        }
      ],
      "name": "setApprovalForAll",
      "outputs": [],
      "stateMutability": "nonpayable",
      "type": "function"
    },
    {
      "inputs": [
        {
          "internalType": "address",
          "name": "operator",
          "type": "address"
        },
        {
          "internalType": "uint256",
          "name": "tokenId",
          "type": "uint256"
        }
      ],
      "name": "approve",
      "outputs": [],
      "stateMutability": "nonpayable",
      "type": "function"
    },
    {
      "inputs": [
        {
          "internalType": "address",
          "name": "from",
          "type": "address"
        },
        {
          "internalType": "address",
          "name": "to",
          "type": "address"
        },
        {
          "internalType": "uint256",
          "name": "tokenId",
          "type": "uint256"
        }
      ],
      "name": "transferFrom",
      "outputs": [],
      "stateMutability": "nonpayable",
      "type": "function"
    },
    {
      "inputs": [
        {
          "internalType": "address",
          "name": "from",
          "type": "address"
        },
        {
          "internalType": "address",
          "name": "to",
          "type": "address"
        },
        {
          "internalType": "uint256",
          "name": "tokenId",
          "type": "uint256"
        }
      ],
      "name": "safeTransferFrom",
      "outputs": [],
      "stateMutability": "nonpayable",
      "type": "function"
    },
    {
      "inputs": [
        {
          "internalType": "address",
          "name": "from",
          "type": "address"
        },
        {
          "internalType": "address",
          "name": "to",
          "type": "address"
        },
        {
          "internalType": "uint256",
          "name": "tokenId",
          "type": "uint256"
        },
        {
          "internalType": "bytes",
          "name": "data",
          "type": "bytes"
        }
      ],
      "name": "safeTransferFrom",
      "outputs": [],
      "stateMutability": "nonpayable",
      "type": "function"
    }
  ],
  "bytecode": "0x6080604052620186a0600b556000600d5573326c977e6efc84e512bb9c30f76e30c160ed06fb600e60006101000a81548173ffffffffffffffffffffffffffffffffffffffff021916908373ffffffffffffffffffffffffffffffffffffffff16021790555061dead600f60006101000a81548173ffffffffffffffffffffffffffffffffffffffff021916908373ffffffffffffffffffffffffffffffffffffffff16021790555073897aec1beb0ce116b250deafeb3860f41ee4a9c9601060006101000a81548173ffffffffffffffffffffffffffffffffffffffff021916908373ffffffffffffffffffffffffffffffffffffffff16021790555060c8601155600060125560646013553480156200011957600080fd5b50604051620060063803806200600683398181016040528101906200013f919062000898565b733cc6cdda760b79bafa08df41ecfa224f810dceb660016040518060400160405280601281526020017f4c61656c617073204d6173746572204b657900000000000000000000000000008152506040518060400160405280600381526020017f4c4d4b00000000000000000000000000000000000000000000000000000000008152508160009081620001d3919062000b34565b508060019081620001e5919062000b34565b50505062000208620001fc6200048060201b60201c565b6200048860201b60201c565b60006daaeb6d7670e522a718067333cd4e73ffffffffffffffffffffffffffffffffffffffff163b1115620003fd578015620002c3576daaeb6d7670e522a718067333cd4e73ffffffffffffffffffffffffffffffffffffffff16637d3e3dbe30846040518363ffffffff1660e01b81526004016200028992919062000c60565b600060405180830381600087803b158015620002a457600080fd5b505af1158015620002b9573d6000803e3d6000fd5b50505050620003fc565b600073ffffffffffffffffffffffffffffffffffffffff168273ffffffffffffffffffffffffffffffffffffffff16146200037d576daaeb6d7670e522a718067333cd4e73ffffffffffffffffffffffffffffffffffffffff1663a0af290330846040518363ffffffff1660e01b81526004016200034392919062000c60565b600060405180830381600087803b1580156200035e57600080fd5b505af115801562000373573d6000803e3d6000fd5b50505050620003fb565b6daaeb6d7670e522a718067333cd4e73ffffffffffffffffffffffffffffffffffffffff16634420e486306040518263ffffffff1660e01b8152600401620003c6919062000c8d565b600060405180830381600087803b158015620003e157600080fd5b505af1158015620003f6573d6000803e3d6000fd5b505050505b5b5b5050620004123360646200054e60201b60201c565b80600c908162000423919062000b34565b50737a250d5630b4cf539739df2c5dacb4c659f2488d601460006101000a81548173ffffffffffffffffffffffffffffffffffffffff021916908373ffffffffffffffffffffffffffffffffffffffff1602179055505062000dc5565b600033905090565b6000600960009054906101000a900473ffffffffffffffffffffffffffffffffffffffff16905081600960006101000a81548173ffffffffffffffffffffffffffffffffffffffff021916908373ffffffffffffffffffffffffffffffffffffffff1602179055508173ffffffffffffffffffffffffffffffffffffffff168173ffffffffffffffffffffffffffffffffffffffff167f8be0079c531659141344cd1fd0a4f28419497f9722a3daafe3b4186f6b6457e060405160405180910390a35050565b6200055e620006f160201b60201c565b6bffffffffffffffffffffffff16816bffffffffffffffffffffffff161115620005bf576040517f08c379a0000000000000000000000000000000000000000000000000000000008152600401620005b69062000d31565b60405180910390fd5b600073ffffffffffffffffffffffffffffffffffffffff168273ffffffffffffffffffffffffffffffffffffffff160362000631576040517f08c379a0000000000000000000000000000000000000000000000000000000008152600401620006289062000da3565b60405180910390fd5b60405180604001604052808373ffffffffffffffffffffffffffffffffffffffff168152602001826bffffffffffffffffffffffff16815250600760008201518160000160006101000a81548173ffffffffffffffffffffffffffffffffffffffff021916908373ffffffffffffffffffffffffffffffffffffffff16021790555060208201518160000160146101000a8154816bffffffffffffffffffffffff02191690836bffffffffffffffffffffffff1602179055509050505050565b6000612710905090565b6000604051905090565b600080fd5b600080fd5b600080fd5b600080fd5b6000601f19601f8301169050919050565b7f4e487b7100000000000000000000000000000000000000000000000000000000600052604160045260246000fd5b620007648262000719565b810181811067ffffffffffffffff821117156200078657620007856200072a565b5b80604052505050565b60006200079b620006fb565b9050620007a9828262000759565b919050565b600067ffffffffffffffff821115620007cc57620007cb6200072a565b5b620007d78262000719565b9050602081019050919050565b60005b8381101562000804578082015181840152602081019050620007e7565b8381111562000814576000848401525b50505050565b6000620008316200082b84620007ae565b6200078f565b90508281526020810184848401111562000850576200084f62000714565b5b6200085d848285620007e4565b509392505050565b600082601f8301126200087d576200087c6200070f565b5b81516200088f8482602086016200081a565b91505092915050565b600060208284031215620008b157620008b062000705565b5b600082015167ffffffffffffffff811115620008d257620008d16200070a565b5b620008e08482850162000865565b91505092915050565b600081519050919050565b7f4e487b7100000000000000000000000000000000000000000000000000000000600052602260045260246000fd5b600060028204905060018216806200093c57607f821691505b602082108103620009525762000951620008f4565b5b50919050565b60008190508160005260206000209050919050565b60006020601f8301049050919050565b600082821b905092915050565b600060088302620009bc7fffffffffffffffffffffffffffffffffffffffffffffffffffffffffffffffff826200097d565b620009c886836200097d565b95508019841693508086168417925050509392505050565b6000819050919050565b6000819050919050565b600062000a1562000a0f62000a0984620009e0565b620009ea565b620009e0565b9050919050565b6000819050919050565b62000a3183620009f4565b62000a4962000a408262000a1c565b8484546200098a565b825550505050565b600090565b62000a6062000a51565b62000a6d81848462000a26565b505050565b5b8181101562000a955762000a8960008262000a56565b60018101905062000a73565b5050565b601f82111562000ae45762000aae8162000958565b62000ab9846200096d565b8101602085101562000ac9578190505b62000ae162000ad8856200096d565b83018262000a72565b50505b505050565b600082821c905092915050565b600062000b096000198460080262000ae9565b1980831691505092915050565b600062000b24838362000af6565b9150826002028217905092915050565b62000b3f82620008e9565b67ffffffffffffffff81111562000b5b5762000b5a6200072a565b5b62000b67825462000923565b62000b7482828562000a99565b600060209050601f83116001811462000bac576000841562000b97578287015190505b62000ba3858262000b16565b86555062000c13565b601f19841662000bbc8662000958565b60005b8281101562000be65784890151825560018201915060208501945060208101905062000bbf565b8683101562000c06578489015162000c02601f89168262000af6565b8355505b6001600288020188555050505b505050505050565b600073ffffffffffffffffffffffffffffffffffffffff82169050919050565b600062000c488262000c1b565b9050919050565b62000c5a8162000c3b565b82525050565b600060408201905062000c77600083018562000c4f565b62000c86602083018462000c4f565b9392505050565b600060208201905062000ca4600083018462000c4f565b92915050565b600082825260208201905092915050565b7f455243323938313a20726f79616c7479206665652077696c6c2065786365656460008201527f2073616c65507269636500000000000000000000000000000000000000000000602082015250565b600062000d19602a8362000caa565b915062000d268262000cbb565b604082019050919050565b6000602082019050818103600083015262000d4c8162000d0a565b9050919050565b7f455243323938313a20696e76616c696420726563656976657200000000000000600082015250565b600062000d8b60198362000caa565b915062000d988262000d53565b602082019050919050565b6000602082019050818103600083015262000dbe8162000d7c565b9050919050565b6152318062000dd56000396000f3fe6080604052600436106102255760003560e01c8063715018a611610123578063c87b56dd116100ab578063f01f20df1161006f578063f01f20df146107fd578063f2fde38b14610828578063f4a0a52814610851578063f7ea7a3d1461087a578063fccc2813146108a357610225565b8063c87b56dd14610706578063cac9266914610743578063cf3090121461076c578063dd46706414610797578063e985e9c5146107c057610225565b806395d89b41116100f257806395d89b4114610633578063a22cb4651461065e578063b66ceef614610687578063b88d4fde146106b2578063bdb4b848146106db57610225565b8063715018a61461059b578063863065fb146105b25780638da5cb5b146105dd578063902d55a51461060857610225565b80633c130d90116101b157806352d472eb1161017557806352d472eb1461049b57806354ba0f27146104c65780636352211e146104f65780636f9fb98a1461053357806370a082311461055e57610225565b80633c130d90146103da57806341f434341461040557806342842e0e1461043057806347f07a8e146104595780634e1ee2c81461047057610225565b8063095ea7b3116101f8578063095ea7b3146102f85780630e54fe851461032157806323b872dd1461034a5780632890e0d7146103735780632a55205a1461039c57610225565b806301ffc9a71461022a5780630675b7c61461026757806306fdde0314610290578063081812fc146102bb575b600080fd5b34801561023657600080fd5b50610251600480360381019061024c919061363b565b6108ce565b60405161025e9190613683565b60405180910390f35b34801561027357600080fd5b5061028e600480360381019061028991906137e4565b6108e0565b005b34801561029c57600080fd5b506102a56108fb565b6040516102b291906138b5565b60405180910390f35b3480156102c757600080fd5b506102e260048036038101906102dd919061390d565b61098d565b6040516102ef919061397b565b60405180910390f35b34801561030457600080fd5b5061031f600480360381019061031a91906139c2565b6109d3565b005b34801561032d57600080fd5b5061034860048036038101906103439190613a02565b6109ec565b005b34801561035657600080fd5b50610371600480360381019061036c9190613a2f565b610a38565b005b34801561037f57600080fd5b5061039a6004803603810190610395919061390d565b610a87565b005b3480156103a857600080fd5b506103c360048036038101906103be9190613a82565b610a9b565b6040516103d1929190613ad1565b60405180910390f35b3480156103e657600080fd5b506103ef610c85565b6040516103fc91906138b5565b60405180910390f35b34801561041157600080fd5b5061041a610d13565b6040516104279190613b59565b60405180910390f35b34801561043c57600080fd5b5061045760048036038101906104529190613a2f565b610d25565b005b34801561046557600080fd5b5061046e610d74565b005b34801561047c57600080fd5b50610485610e15565b6040516104929190613b74565b60405180910390f35b3480156104a757600080fd5b506104b0610ec6565b6040516104bd9190613b74565b60405180910390f35b6104e060048036038101906104db9190613a02565b610ecc565b6040516104ed9190613b74565b60405180910390f35b34801561050257600080fd5b5061051d6004803603810190610518919061390d565b61111e565b60405161052a919061397b565b60405180910390f35b34801561053f57600080fd5b506105486111a4565b6040516105559190613b74565b60405180910390f35b34801561056a57600080fd5b5061058560048036038101906105809190613a02565b6111b4565b6040516105929190613b74565b60405180910390f35b3480156105a757600080fd5b506105b061126b565b005b3480156105be57600080fd5b506105c761127f565b6040516105d4919061397b565b60405180910390f35b3480156105e957600080fd5b506105f26112a5565b6040516105ff919061397b565b60405180910390f35b34801561061457600080fd5b5061061d6112cf565b60405161062a9190613b74565b60405180910390f35b34801561063f57600080fd5b506106486112d5565b60405161065591906138b5565b60405180910390f35b34801561066a57600080fd5b5061068560048036038101906106809190613bbb565b611367565b005b34801561069357600080fd5b5061069c611380565b6040516106a9919061397b565b60405180910390f35b3480156106be57600080fd5b506106d960048036038101906106d49190613c9c565b6113a6565b005b3480156106e757600080fd5b506106f06113f7565b6040516106fd9190613b74565b60405180910390f35b34801561071257600080fd5b5061072d6004803603810190610728919061390d565b6113fd565b60405161073a91906138b5565b60405180910390f35b34801561074f57600080fd5b5061076a60048036038101906107659190613d63565b61150f565b005b34801561077857600080fd5b50610781611524565b60405161078e9190613b74565b60405180910390f35b3480156107a357600080fd5b506107be60048036038101906107b9919061390d565b61152a565b005b3480156107cc57600080fd5b506107e760048036038101906107e29190613d90565b611551565b6040516107f49190613683565b60405180910390f35b34801561080957600080fd5b506108126115e5565b60405161081f9190613b74565b60405180910390f35b34801561083457600080fd5b5061084f600480360381019061084a9190613a02565b6115eb565b005b34801561085d57600080fd5b506108786004803603810190610873919061390d565b61166e565b005b34801561088657600080fd5b506108a1600480360381019061089c919061390d565b611680565b005b3480156108af57600080fd5b506108b8611692565b6040516108c5919061397b565b60405180910390f35b60006108d9826116b8565b9050919050565b6108e8611732565b80600c90816108f79190613fd2565b5050565b60606000805461090a90613dff565b80601f016020809104026020016040519081016040528092919081815260200182805461093690613dff565b80156109835780601f1061095857610100808354040283529160200191610983565b820191906000526020600020905b81548152906001019060200180831161096657829003601f168201915b5050505050905090565b6000610998826117b0565b6004600083815260200190815260200160002060009054906101000a900473ffffffffffffffffffffffffffffffffffffffff169050919050565b816109dd816117fb565b6109e783836118f8565b505050565b6109f4611732565b80600e60006101000a81548173ffffffffffffffffffffffffffffffffffffffff021916908373ffffffffffffffffffffffffffffffffffffffff16021790555050565b823373ffffffffffffffffffffffffffffffffffffffff168173ffffffffffffffffffffffffffffffffffffffff1614610a7657610a75336117fb565b5b610a81848484611a0f565b50505050565b610a8f611732565b610a9881611a6f565b50565b6000806000600860008681526020019081526020016000206040518060400160405290816000820160009054906101000a900473ffffffffffffffffffffffffffffffffffffffff1673ffffffffffffffffffffffffffffffffffffffff1673ffffffffffffffffffffffffffffffffffffffff1681526020016000820160149054906101000a90046bffffffffffffffffffffffff166bffffffffffffffffffffffff166bffffffffffffffffffffffff16815250509050600073ffffffffffffffffffffffffffffffffffffffff16816000015173ffffffffffffffffffffffffffffffffffffffff1603610c305760076040518060400160405290816000820160009054906101000a900473ffffffffffffffffffffffffffffffffffffffff1673ffffffffffffffffffffffffffffffffffffffff1673ffffffffffffffffffffffffffffffffffffffff1681526020016000820160149054906101000a90046bffffffffffffffffffffffff166bffffffffffffffffffffffff166bffffffffffffffffffffffff168152505090505b6000610c3a611a8c565b6bffffffffffffffffffffffff1682602001516bffffffffffffffffffffffff1686610c6691906140d3565b610c70919061415c565b90508160000151819350935050509250929050565b600c8054610c9290613dff565b80601f0160208091040260200160405190810160405280929190818152602001828054610cbe90613dff565b8015610d0b5780601f10610ce057610100808354040283529160200191610d0b565b820191906000526020600020905b815481529060010190602001808311610cee57829003601f168201915b505050505081565b6daaeb6d7670e522a718067333cd4e81565b823373ffffffffffffffffffffffffffffffffffffffff168173ffffffffffffffffffffffffffffffffffffffff1614610d6357610d62336117fb565b5b610d6e848484611a96565b50505050565b610d7c611732565b600047905060008111610dc4576040517f08c379a0000000000000000000000000000000000000000000000000000000008152600401610dbb906141d9565b60405180910390fd5b610dcc6112a5565b73ffffffffffffffffffffffffffffffffffffffff166108fc829081150290604051600060405180830381858888f19350505050158015610e11573d6000803e3d6000fd5b5050565b6000610e1f611732565b6000600e60009054906101000a900473ffffffffffffffffffffffffffffffffffffffff1690508073ffffffffffffffffffffffffffffffffffffffff166370a08231306040518263ffffffff1660e01b8152600401610e7f919061397b565b602060405180830381865afa158015610e9c573d6000803e3d6000fd5b505050506040513d601f19601f82011682018060405250810190610ec0919061420e565b91505090565b60135481565b6000600b54341015610f13576040517f08c379a0000000000000000000000000000000000000000000000000000000008152600401610f0a90614287565b60405180910390fd5b6000600c8054610f2290613dff565b905011610f64576040517f08c379a0000000000000000000000000000000000000000000000000000000008152600401610f5b906142f3565b60405180910390fd5b6001600d5403610fa9576040517f08c379a0000000000000000000000000000000000000000000000000000000008152600401610fa09061435f565b60405180910390fd5b6064601354601254610fbb919061437f565b1115610ffc576040517f08c379a0000000000000000000000000000000000000000000000000000000008152600401610ff390614421565b60405180910390fd5b6000611008600a611ab6565b9050601154811061104e576040517f08c379a00000000000000000000000000000000000000000000000000000000081526004016110459061448d565b60405180910390fd5b611056611ac4565b61105e611fde565b600061106a600a611ab6565b9050611076600a6120b7565b61108084826120cd565b61111481600c805461109190613dff565b80601f01602080910402602001604051908101604052809291908181526020018280546110bd90613dff565b801561110a5780601f106110df5761010080835404028352916020019161110a565b820191906000526020600020905b8154815290600101906020018083116110ed57829003601f168201915b50505050506120eb565b8092505050919050565b60008061112a8361218f565b9050600073ffffffffffffffffffffffffffffffffffffffff168173ffffffffffffffffffffffffffffffffffffffff160361119b576040517f08c379a0000000000000000000000000000000000000000000000000000000008152600401611192906144f9565b60405180910390fd5b80915050919050565b60006111ae611732565b47905090565b60008073ffffffffffffffffffffffffffffffffffffffff168273ffffffffffffffffffffffffffffffffffffffff1603611224576040517f08c379a000000000000000000000000000000000000000000000000000000000815260040161121b9061458b565b60405180910390fd5b600360008373ffffffffffffffffffffffffffffffffffffffff1673ffffffffffffffffffffffffffffffffffffffff168152602001908152602001600020549050919050565b611273611732565b61127d60006121cc565b565b600e60009054906101000a900473ffffffffffffffffffffffffffffffffffffffff1681565b6000600960009054906101000a900473ffffffffffffffffffffffffffffffffffffffff16905090565b60115481565b6060600180546112e490613dff565b80601f016020809104026020016040519081016040528092919081815260200182805461131090613dff565b801561135d5780601f106113325761010080835404028352916020019161135d565b820191906000526020600020905b81548152906001019060200180831161134057829003601f168201915b5050505050905090565b81611371816117fb565b61137b8383612292565b505050565b601060009054906101000a900473ffffffffffffffffffffffffffffffffffffffff1681565b833373ffffffffffffffffffffffffffffffffffffffff168173ffffffffffffffffffffffffffffffffffffffff16146113e4576113e3336117fb565b5b6113f0858585856122a8565b5050505050565b600b5481565b6060611408826117b0565b600060066000848152602001908152602001600020805461142890613dff565b80601f016020809104026020016040519081016040528092919081815260200182805461145490613dff565b80156114a15780601f10611476576101008083540402835291602001916114a1565b820191906000526020600020905b81548152906001019060200180831161148457829003601f168201915b5050505050905060006114b261230a565b905060008151036114c757819250505061150a565b6000825111156114fc5780826040516020016114e49291906145e7565b6040516020818303038152906040529250505061150a565b61150584612321565b925050505b919050565b611517611732565b6115213382612389565b50565b600d5481565b611532611732565b60008114806115415750600181145b1561154e5780600d819055505b50565b6000600560008473ffffffffffffffffffffffffffffffffffffffff1673ffffffffffffffffffffffffffffffffffffffff16815260200190815260200160002060008373ffffffffffffffffffffffffffffffffffffffff1673ffffffffffffffffffffffffffffffffffffffff16815260200190815260200160002060009054906101000a900460ff16905092915050565b60125481565b6115f3611732565b600073ffffffffffffffffffffffffffffffffffffffff168173ffffffffffffffffffffffffffffffffffffffff1603611662576040517f08c379a00000000000000000000000000000000000000000000000000000000081526004016116599061467d565b60405180910390fd5b61166b816121cc565b50565b611676611732565b80600b8190555050565b611688611732565b8060118190555050565b600f60009054906101000a900473ffffffffffffffffffffffffffffffffffffffff1681565b60007f2a55205a000000000000000000000000000000000000000000000000000000007bffffffffffffffffffffffffffffffffffffffffffffffffffffffff1916827bffffffffffffffffffffffffffffffffffffffffffffffffffffffff1916148061172b575061172a8261251e565b5b9050919050565b61173a61257f565b73ffffffffffffffffffffffffffffffffffffffff166117586112a5565b73ffffffffffffffffffffffffffffffffffffffff16146117ae576040517f08c379a00000000000000000000000000000000000000000000000000000000081526004016117a5906146e9565b60405180910390fd5b565b6117b981612587565b6117f8576040517f08c379a00000000000000000000000000000000000000000000000000000000081526004016117ef906144f9565b60405180910390fd5b50565b60006daaeb6d7670e522a718067333cd4e73ffffffffffffffffffffffffffffffffffffffff163b11156118f5576daaeb6d7670e522a718067333cd4e73ffffffffffffffffffffffffffffffffffffffff1663c617113430836040518363ffffffff1660e01b8152600401611872929190614709565b602060405180830381865afa15801561188f573d6000803e3d6000fd5b505050506040513d601f19601f820116820180604052508101906118b39190614747565b6118f457806040517fede71dcc0000000000000000000000000000000000000000000000000000000081526004016118eb919061397b565b60405180910390fd5b5b50565b60006119038261111e565b90508073ffffffffffffffffffffffffffffffffffffffff168373ffffffffffffffffffffffffffffffffffffffff1603611973576040517f08c379a000000000000000000000000000000000000000000000000000000000815260040161196a906147e6565b60405180910390fd5b8073ffffffffffffffffffffffffffffffffffffffff1661199261257f565b73ffffffffffffffffffffffffffffffffffffffff1614806119c157506119c0816119bb61257f565b611551565b5b611a00576040517f08c379a00000000000000000000000000000000000000000000000000000000081526004016119f790614878565b60405180910390fd5b611a0a83836125c8565b505050565b611a20611a1a61257f565b82612681565b611a5f576040517f08c379a0000000000000000000000000000000000000000000000000000000008152600401611a569061490a565b60405180910390fd5b611a6a838383612716565b505050565b611a77611732565b611a8081612a0f565b611a8981612a62565b50565b6000612710905090565b611ab1838383604051806020016040528060008152506113a6565b505050565b600081600001549050919050565b60006012541115611fdc576000600267ffffffffffffffff811115611aec57611aeb6136b9565b5b604051908082528060200260200182016040528015611b1a5781602001602082028036833780820191505090505b5090506000606460125447611b2f91906140d3565b611b39919061415c565b905060008111611b7e576040517f08c379a0000000000000000000000000000000000000000000000000000000008152600401611b7590614976565b60405180910390fd5b6000601460009054906101000a900473ffffffffffffffffffffffffffffffffffffffff1673ffffffffffffffffffffffffffffffffffffffff1663ad5c46486040518163ffffffff1660e01b8152600401602060405180830381865afa158015611bed573d6000803e3d6000fd5b505050506040513d601f19601f82011682018060405250810190611c1191906149ab565b90508083600081518110611c2857611c276149d8565b5b602002602001019073ffffffffffffffffffffffffffffffffffffffff16908173ffffffffffffffffffffffffffffffffffffffff1681525050600e60009054906101000a900473ffffffffffffffffffffffffffffffffffffffff1683600181518110611c9957611c986149d8565b5b602002602001019073ffffffffffffffffffffffffffffffffffffffff16908173ffffffffffffffffffffffffffffffffffffffff168152505060008211611d16576040517f08c379a0000000000000000000000000000000000000000000000000000000008152600401611d0d90614976565b60405180910390fd5b60003090506000606442611d2a919061437f565b9050601460009054906101000a900473ffffffffffffffffffffffffffffffffffffffff1673ffffffffffffffffffffffffffffffffffffffff16637ff36ab585868886866040518663ffffffff1660e01b8152600401611d8e9493929190614ac5565b60006040518083038185885af1158015611dac573d6000803e3d6000fd5b50505050506040513d6000823e3d601f19601f82011682018060405250810190611dd69190614bd9565b506000600e60009054906101000a900473ffffffffffffffffffffffffffffffffffffffff16905060008173ffffffffffffffffffffffffffffffffffffffff166370a08231306040518263ffffffff1660e01b8152600401611e39919061397b565b602060405180830381865afa158015611e56573d6000803e3d6000fd5b505050506040513d601f19601f82011682018060405250810190611e7a919061420e565b1015611ebb576040517f08c379a0000000000000000000000000000000000000000000000000000000008152600401611eb290614287565b60405180910390fd5b8073ffffffffffffffffffffffffffffffffffffffff1663a9059cbb600f60009054906101000a900473ffffffffffffffffffffffffffffffffffffffff168373ffffffffffffffffffffffffffffffffffffffff166370a08231306040518263ffffffff1660e01b8152600401611f33919061397b565b602060405180830381865afa158015611f50573d6000803e3d6000fd5b505050506040513d601f19601f82011682018060405250810190611f74919061420e565b6040518363ffffffff1660e01b8152600401611f91929190613ad1565b6020604051808303816000875af1158015611fb0573d6000803e3d6000fd5b505050506040513d601f19601f82011682018060405250810190611fd49190614747565b505050505050505b565b600060135411156120b5576000606460135447611ffb91906140d3565b612005919061415c565b90506000811161204a576040517f08c379a000000000000000000000000000000000000000000000000000000000815260040161204190614c6e565b60405180910390fd5b601060009054906101000a900473ffffffffffffffffffffffffffffffffffffffff1673ffffffffffffffffffffffffffffffffffffffff166108fc829081150290604051600060405180830381858888f193505050501580156120b2573d6000803e3d6000fd5b50505b565b6001816000016000828254019250508190555050565b6120e7828260405180602001604052806000815250612ac1565b5050565b6120f482612587565b612133576040517f08c379a000000000000000000000000000000000000000000000000000000000815260040161212a90614d00565b60405180910390fd5b806006600084815260200190815260200160002090816121539190613fd2565b507ff8e1a15aba9398e019f0b49df1a4fde98ee17ae345cb5f6b5e2c27f5033e8ce7826040516121839190613b74565b60405180910390a15050565b60006002600083815260200190815260200160002060009054906101000a900473ffffffffffffffffffffffffffffffffffffffff169050919050565b6000600960009054906101000a900473ffffffffffffffffffffffffffffffffffffffff16905081600960006101000a81548173ffffffffffffffffffffffffffffffffffffffff021916908373ffffffffffffffffffffffffffffffffffffffff1602179055508173ffffffffffffffffffffffffffffffffffffffff168173ffffffffffffffffffffffffffffffffffffffff167f8be0079c531659141344cd1fd0a4f28419497f9722a3daafe3b4186f6b6457e060405160405180910390a35050565b6122a461229d61257f565b8383612b1c565b5050565b6122b96122b361257f565b83612681565b6122f8576040517f08c379a00000000000000000000000000000000000000000000000000000000081526004016122ef9061490a565b60405180910390fd5b61230484848484612c88565b50505050565b606060405180602001604052806000815250905090565b606061232c826117b0565b600061233661230a565b905060008151116123565760405180602001604052806000815250612381565b8061236084612ce4565b6040516020016123719291906145e7565b6040516020818303038152906040525b915050919050565b612391611a8c565b6bffffffffffffffffffffffff16816bffffffffffffffffffffffff1611156123ef576040517f08c379a00000000000000000000000000000000000000000000000000000000081526004016123e690614d92565b60405180910390fd5b600073ffffffffffffffffffffffffffffffffffffffff168273ffffffffffffffffffffffffffffffffffffffff160361245e576040517f08c379a000000000000000000000000000000000000000000000000000000000815260040161245590614dfe565b60405180910390fd5b60405180604001604052808373ffffffffffffffffffffffffffffffffffffffff168152602001826bffffffffffffffffffffffff16815250600760008201518160000160006101000a81548173ffffffffffffffffffffffffffffffffffffffff021916908373ffffffffffffffffffffffffffffffffffffffff16021790555060208201518160000160146101000a8154816bffffffffffffffffffffffff02191690836bffffffffffffffffffffffff1602179055509050505050565b6000634906490660e01b7bffffffffffffffffffffffffffffffffffffffffffffffffffffffff1916827bffffffffffffffffffffffffffffffffffffffffffffffffffffffff19161480612578575061257782612db2565b5b9050919050565b600033905090565b60008073ffffffffffffffffffffffffffffffffffffffff166125a98361218f565b73ffffffffffffffffffffffffffffffffffffffff1614159050919050565b816004600083815260200190815260200160002060006101000a81548173ffffffffffffffffffffffffffffffffffffffff021916908373ffffffffffffffffffffffffffffffffffffffff160217905550808273ffffffffffffffffffffffffffffffffffffffff1661263b8361111e565b73ffffffffffffffffffffffffffffffffffffffff167f8c5be1e5ebec7d5bd14f71427d1e84f3dd0314c0f7b2291e5b200ac8c7c3b92560405160405180910390a45050565b60008061268d8361111e565b90508073ffffffffffffffffffffffffffffffffffffffff168473ffffffffffffffffffffffffffffffffffffffff1614806126cf57506126ce8185611551565b5b8061270d57508373ffffffffffffffffffffffffffffffffffffffff166126f58461098d565b73ffffffffffffffffffffffffffffffffffffffff16145b91505092915050565b8273ffffffffffffffffffffffffffffffffffffffff166127368261111e565b73ffffffffffffffffffffffffffffffffffffffff161461278c576040517f08c379a000000000000000000000000000000000000000000000000000000000815260040161278390614e90565b60405180910390fd5b600073ffffffffffffffffffffffffffffffffffffffff168273ffffffffffffffffffffffffffffffffffffffff16036127fb576040517f08c379a00000000000000000000000000000000000000000000000000000000081526004016127f290614f22565b60405180910390fd5b6128088383836001612e94565b8273ffffffffffffffffffffffffffffffffffffffff166128288261111e565b73ffffffffffffffffffffffffffffffffffffffff161461287e576040517f08c379a000000000000000000000000000000000000000000000000000000000815260040161287590614e90565b60405180910390fd5b6004600082815260200190815260200160002060006101000a81549073ffffffffffffffffffffffffffffffffffffffff02191690556001600360008573ffffffffffffffffffffffffffffffffffffffff1673ffffffffffffffffffffffffffffffffffffffff168152602001908152602001600020600082825403925050819055506001600360008473ffffffffffffffffffffffffffffffffffffffff1673ffffffffffffffffffffffffffffffffffffffff16815260200190815260200160002060008282540192505081905550816002600083815260200190815260200160002060006101000a81548173ffffffffffffffffffffffffffffffffffffffff021916908373ffffffffffffffffffffffffffffffffffffffff160217905550808273ffffffffffffffffffffffffffffffffffffffff168473ffffffffffffffffffffffffffffffffffffffff167fddf252ad1be2c89b69c2b068fc378daa952ba7f163c4a11628f55a4df523b3ef60405160405180910390a4612a0a8383836001612e9a565b505050565b612a1881612ea0565b6000600660008381526020019081526020016000208054612a3890613dff565b905014612a5f57600660008281526020019081526020016000206000612a5e9190613572565b5b50565b60086000828152602001908152602001600020600080820160006101000a81549073ffffffffffffffffffffffffffffffffffffffff02191690556000820160146101000a8154906bffffffffffffffffffffffff0219169055505050565b612acb8383612fee565b612ad8600084848461320b565b612b17576040517f08c379a0000000000000000000000000000000000000000000000000000000008152600401612b0e90614fb4565b60405180910390fd5b505050565b8173ffffffffffffffffffffffffffffffffffffffff168373ffffffffffffffffffffffffffffffffffffffff1603612b8a576040517f08c379a0000000000000000000000000000000000000000000000000000000008152600401612b8190615020565b60405180910390fd5b80600560008573ffffffffffffffffffffffffffffffffffffffff1673ffffffffffffffffffffffffffffffffffffffff16815260200190815260200160002060008473ffffffffffffffffffffffffffffffffffffffff1673ffffffffffffffffffffffffffffffffffffffff16815260200190815260200160002060006101000a81548160ff0219169083151502179055508173ffffffffffffffffffffffffffffffffffffffff168373ffffffffffffffffffffffffffffffffffffffff167f17307eab39ab6107e8899845ad3d59bd9653f200f220920489ca2b5937696c3183604051612c7b9190613683565b60405180910390a3505050565b612c93848484612716565b612c9f8484848461320b565b612cde576040517f08c379a0000000000000000000000000000000000000000000000000000000008152600401612cd590614fb4565b60405180910390fd5b50505050565b606060006001612cf384613392565b01905060008167ffffffffffffffff811115612d1257612d116136b9565b5b6040519080825280601f01601f191660200182016040528015612d445781602001600182028036833780820191505090505b509050600082602001820190505b600115612da7578080600190039150507f3031323334353637383961626364656600000000000000000000000000000000600a86061a8153600a8581612d9b57612d9a61412d565b5b04945060008503612d52575b819350505050919050565b60007f80ac58cd000000000000000000000000000000000000000000000000000000007bffffffffffffffffffffffffffffffffffffffffffffffffffffffff1916827bffffffffffffffffffffffffffffffffffffffffffffffffffffffff19161480612e7d57507f5b5e139f000000000000000000000000000000000000000000000000000000007bffffffffffffffffffffffffffffffffffffffffffffffffffffffff1916827bffffffffffffffffffffffffffffffffffffffffffffffffffffffff1916145b80612e8d5750612e8c826134e5565b5b9050919050565b50505050565b50505050565b6000612eab8261111e565b9050612ebb816000846001612e94565b612ec48261111e565b90506004600083815260200190815260200160002060006101000a81549073ffffffffffffffffffffffffffffffffffffffff02191690556001600360008373ffffffffffffffffffffffffffffffffffffffff1673ffffffffffffffffffffffffffffffffffffffff168152602001908152602001600020600082825403925050819055506002600083815260200190815260200160002060006101000a81549073ffffffffffffffffffffffffffffffffffffffff021916905581600073ffffffffffffffffffffffffffffffffffffffff168273ffffffffffffffffffffffffffffffffffffffff167fddf252ad1be2c89b69c2b068fc378daa952ba7f163c4a11628f55a4df523b3ef60405160405180910390a4612fea816000846001612e9a565b5050565b600073ffffffffffffffffffffffffffffffffffffffff168273ffffffffffffffffffffffffffffffffffffffff160361305d576040517f08c379a00000000000000000000000000000000000000000000000000000000081526004016130549061508c565b60405180910390fd5b61306681612587565b156130a6576040517f08c379a000000000000000000000000000000000000000000000000000000000815260040161309d906150f8565b60405180910390fd5b6130b4600083836001612e94565b6130bd81612587565b156130fd576040517f08c379a00000000000000000000000000000000000000000000000000000000081526004016130f4906150f8565b60405180910390fd5b6001600360008473ffffffffffffffffffffffffffffffffffffffff1673ffffffffffffffffffffffffffffffffffffffff16815260200190815260200160002060008282540192505081905550816002600083815260200190815260200160002060006101000a81548173ffffffffffffffffffffffffffffffffffffffff021916908373ffffffffffffffffffffffffffffffffffffffff160217905550808273ffffffffffffffffffffffffffffffffffffffff16600073ffffffffffffffffffffffffffffffffffffffff167fddf252ad1be2c89b69c2b068fc378daa952ba7f163c4a11628f55a4df523b3ef60405160405180910390a4613207600083836001612e9a565b5050565b600061322c8473ffffffffffffffffffffffffffffffffffffffff1661354f565b15613385578373ffffffffffffffffffffffffffffffffffffffff1663150b7a0261325561257f565b8786866040518563ffffffff1660e01b8152600401613277949392919061516d565b6020604051808303816000875af19250505080156132b357506040513d601f19601f820116820180604052508101906132b091906151ce565b60015b613335573d80600081146132e3576040519150601f19603f3d011682016040523d82523d6000602084013e6132e8565b606091505b50600081510361332d576040517f08c379a000000000000000000000000000000000000000000000000000000000815260040161332490614fb4565b60405180910390fd5b805181602001fd5b63150b7a0260e01b7bffffffffffffffffffffffffffffffffffffffffffffffffffffffff1916817bffffffffffffffffffffffffffffffffffffffffffffffffffffffff19161491505061338a565b600190505b949350505050565b600080600090507a184f03e93ff9f4daa797ed6e38ed64bf6a1f01000000000000000083106133f0577a184f03e93ff9f4daa797ed6e38ed64bf6a1f01000000000000000083816133e6576133e561412d565b5b0492506040810190505b6d04ee2d6d415b85acef8100000000831061342d576d04ee2d6d415b85acef810000000083816134235761342261412d565b5b0492506020810190505b662386f26fc10000831061345c57662386f26fc1000083816134525761345161412d565b5b0492506010810190505b6305f5e1008310613485576305f5e100838161347b5761347a61412d565b5b0492506008810190505b61271083106134aa5761271083816134a05761349f61412d565b5b0492506004810190505b606483106134cd57606483816134c3576134c261412d565b5b0492506002810190505b600a83106134dc576001810190505b80915050919050565b60007f01ffc9a7000000000000000000000000000000000000000000000000000000007bffffffffffffffffffffffffffffffffffffffffffffffffffffffff1916827bffffffffffffffffffffffffffffffffffffffffffffffffffffffff1916149050919050565b6000808273ffffffffffffffffffffffffffffffffffffffff163b119050919050565b50805461357e90613dff565b6000825580601f1061359057506135af565b601f0160209004906000526020600020908101906135ae91906135b2565b5b50565b5b808211156135cb5760008160009055506001016135b3565b5090565b6000604051905090565b600080fd5b600080fd5b60007fffffffff0000000000000000000000000000000000000000000000000000000082169050919050565b613618816135e3565b811461362357600080fd5b50565b6000813590506136358161360f565b92915050565b600060208284031215613651576136506135d9565b5b600061365f84828501613626565b91505092915050565b60008115159050919050565b61367d81613668565b82525050565b60006020820190506136986000830184613674565b92915050565b600080fd5b600080fd5b6000601f19601f8301169050919050565b7f4e487b7100000000000000000000000000000000000000000000000000000000600052604160045260246000fd5b6136f1826136a8565b810181811067ffffffffffffffff821117156137105761370f6136b9565b5b80604052505050565b60006137236135cf565b905061372f82826136e8565b919050565b600067ffffffffffffffff82111561374f5761374e6136b9565b5b613758826136a8565b9050602081019050919050565b82818337600083830152505050565b600061378761378284613734565b613719565b9050828152602081018484840111156137a3576137a26136a3565b5b6137ae848285613765565b509392505050565b600082601f8301126137cb576137ca61369e565b5b81356137db848260208601613774565b91505092915050565b6000602082840312156137fa576137f96135d9565b5b600082013567ffffffffffffffff811115613818576138176135de565b5b613824848285016137b6565b91505092915050565b600081519050919050565b600082825260208201905092915050565b60005b8381101561386757808201518184015260208101905061384c565b83811115613876576000848401525b50505050565b60006138878261382d565b6138918185613838565b93506138a1818560208601613849565b6138aa816136a8565b840191505092915050565b600060208201905081810360008301526138cf818461387c565b905092915050565b6000819050919050565b6138ea816138d7565b81146138f557600080fd5b50565b600081359050613907816138e1565b92915050565b600060208284031215613923576139226135d9565b5b6000613931848285016138f8565b91505092915050565b600073ffffffffffffffffffffffffffffffffffffffff82169050919050565b60006139658261393a565b9050919050565b6139758161395a565b82525050565b6000602082019050613990600083018461396c565b92915050565b61399f8161395a565b81146139aa57600080fd5b50565b6000813590506139bc81613996565b92915050565b600080604083850312156139d9576139d86135d9565b5b60006139e7858286016139ad565b92505060206139f8858286016138f8565b9150509250929050565b600060208284031215613a1857613a176135d9565b5b6000613a26848285016139ad565b91505092915050565b600080600060608486031215613a4857613a476135d9565b5b6000613a56868287016139ad565b9350506020613a67868287016139ad565b9250506040613a78868287016138f8565b9150509250925092565b60008060408385031215613a9957613a986135d9565b5b6000613aa7858286016138f8565b9250506020613ab8858286016138f8565b9150509250929050565b613acb816138d7565b82525050565b6000604082019050613ae6600083018561396c565b613af36020830184613ac2565b9392505050565b6000819050919050565b6000613b1f613b1a613b158461393a565b613afa565b61393a565b9050919050565b6000613b3182613b04565b9050919050565b6000613b4382613b26565b9050919050565b613b5381613b38565b82525050565b6000602082019050613b6e6000830184613b4a565b92915050565b6000602082019050613b896000830184613ac2565b92915050565b613b9881613668565b8114613ba357600080fd5b50565b600081359050613bb581613b8f565b92915050565b60008060408385031215613bd257613bd16135d9565b5b6000613be0858286016139ad565b9250506020613bf185828601613ba6565b9150509250929050565b600067ffffffffffffffff821115613c1657613c156136b9565b5b613c1f826136a8565b9050602081019050919050565b6000613c3f613c3a84613bfb565b613719565b905082815260208101848484011115613c5b57613c5a6136a3565b5b613c66848285613765565b509392505050565b600082601f830112613c8357613c8261369e565b5b8135613c93848260208601613c2c565b91505092915050565b60008060008060808587031215613cb657613cb56135d9565b5b6000613cc4878288016139ad565b9450506020613cd5878288016139ad565b9350506040613ce6878288016138f8565b925050606085013567ffffffffffffffff811115613d0757613d066135de565b5b613d1387828801613c6e565b91505092959194509250565b60006bffffffffffffffffffffffff82169050919050565b613d4081613d1f565b8114613d4b57600080fd5b50565b600081359050613d5d81613d37565b92915050565b600060208284031215613d7957613d786135d9565b5b6000613d8784828501613d4e565b91505092915050565b60008060408385031215613da757613da66135d9565b5b6000613db5858286016139ad565b9250506020613dc6858286016139ad565b9150509250929050565b7f4e487b7100000000000000000000000000000000000000000000000000000000600052602260045260246000fd5b60006002820490506001821680613e1757607f821691505b602082108103613e2a57613e29613dd0565b5b50919050565b60008190508160005260206000209050919050565b60006020601f8301049050919050565b600082821b905092915050565b600060088302613e927fffffffffffffffffffffffffffffffffffffffffffffffffffffffffffffffff82613e55565b613e9c8683613e55565b95508019841693508086168417925050509392505050565b6000613ecf613eca613ec5846138d7565b613afa565b6138d7565b9050919050565b6000819050919050565b613ee983613eb4565b613efd613ef582613ed6565b848454613e62565b825550505050565b600090565b613f12613f05565b613f1d818484613ee0565b505050565b5b81811015613f4157613f36600082613f0a565b600181019050613f23565b5050565b601f821115613f8657613f5781613e30565b613f6084613e45565b81016020851015613f6f578190505b613f83613f7b85613e45565b830182613f22565b50505b505050565b600082821c905092915050565b6000613fa960001984600802613f8b565b1980831691505092915050565b6000613fc28383613f98565b9150826002028217905092915050565b613fdb8261382d565b67ffffffffffffffff811115613ff457613ff36136b9565b5b613ffe8254613dff565b614009828285613f45565b600060209050601f83116001811461403c576000841561402a578287015190505b6140348582613fb6565b86555061409c565b601f19841661404a86613e30565b60005b828110156140725784890151825560018201915060208501945060208101905061404d565b8683101561408f578489015161408b601f891682613f98565b8355505b6001600288020188555050505b505050505050565b7f4e487b7100000000000000000000000000000000000000000000000000000000600052601160045260246000fd5b60006140de826138d7565b91506140e9836138d7565b9250817fffffffffffffffffffffffffffffffffffffffffffffffffffffffffffffffff0483118215151615614122576141216140a4565b5b828202905092915050565b7f4e487b7100000000000000000000000000000000000000000000000000000000600052601260045260246000fd5b6000614167826138d7565b9150614172836138d7565b9250826141825761418161412d565b5b828204905092915050565b7f436f6e74726163742062616c616e6365206973207a65726f0000000000000000600082015250565b60006141c3601883613838565b91506141ce8261418d565b602082019050919050565b600060208201905081810360008301526141f2816141b6565b9050919050565b600081519050614208816138e1565b92915050565b600060208284031215614224576142236135d9565b5b6000614232848285016141f9565b91505092915050565b7f496e73756666696369656e742066756e64730000000000000000000000000000600082015250565b6000614271601283613838565b915061427c8261423b565b602082019050919050565b600060208201905081810360008301526142a081614264565b9050919050565b7f546f6b656e20555249206e6f7420736574207965740000000000000000000000600082015250565b60006142dd601583613838565b91506142e8826142a7565b602082019050919050565b6000602082019050818103600083015261430c816142d0565b9050919050565b7f436f6e7472616374204c6f636b65640000000000000000000000000000000000600082015250565b6000614349600f83613838565b915061435482614313565b602082019050919050565b600060208201905081810360008301526143788161433c565b9050919050565b600061438a826138d7565b9150614395836138d7565b9250827fffffffffffffffffffffffffffffffffffffffffffffffffffffffffffffffff038211156143ca576143c96140a4565b5b828201905092915050565b7f70657263656e7461676573207365742077726f6e670000000000000000000000600082015250565b600061440b601583613838565b9150614416826143d5565b602082019050919050565b6000602082019050818103600083015261443a816143fe565b9050919050565b7f6e6f206d6f726520737570706c79000000000000000000000000000000000000600082015250565b6000614477600e83613838565b915061448282614441565b602082019050919050565b600060208201905081810360008301526144a68161446a565b9050919050565b7f4552433732313a20696e76616c696420746f6b656e2049440000000000000000600082015250565b60006144e3601883613838565b91506144ee826144ad565b602082019050919050565b60006020820190508181036000830152614512816144d6565b9050919050565b7f4552433732313a2061646472657373207a65726f206973206e6f74206120766160008201527f6c6964206f776e65720000000000000000000000000000000000000000000000602082015250565b6000614575602983613838565b915061458082614519565b604082019050919050565b600060208201905081810360008301526145a481614568565b9050919050565b600081905092915050565b60006145c18261382d565b6145cb81856145ab565b93506145db818560208601613849565b80840191505092915050565b60006145f382856145b6565b91506145ff82846145b6565b91508190509392505050565b7f4f776e61626c653a206e6577206f776e657220697320746865207a65726f206160008201527f6464726573730000000000000000000000000000000000000000000000000000602082015250565b6000614667602683613838565b91506146728261460b565b604082019050919050565b600060208201905081810360008301526146968161465a565b9050919050565b7f4f776e61626c653a2063616c6c6572206973206e6f7420746865206f776e6572600082015250565b60006146d3602083613838565b91506146de8261469d565b602082019050919050565b60006020820190508181036000830152614702816146c6565b9050919050565b600060408201905061471e600083018561396c565b61472b602083018461396c565b9392505050565b60008151905061474181613b8f565b92915050565b60006020828403121561475d5761475c6135d9565b5b600061476b84828501614732565b91505092915050565b7f4552433732313a20617070726f76616c20746f2063757272656e74206f776e6560008201527f7200000000000000000000000000000000000000000000000000000000000000602082015250565b60006147d0602183613838565b91506147db82614774565b604082019050919050565b600060208201905081810360008301526147ff816147c3565b9050919050565b7f4552433732313a20617070726f76652063616c6c6572206973206e6f7420746f60008201527f6b656e206f776e6572206f7220617070726f76656420666f7220616c6c000000602082015250565b6000614862603d83613838565b915061486d82614806565b604082019050919050565b6000602082019050818103600083015261489181614855565b9050919050565b7f4552433732313a2063616c6c6572206973206e6f7420746f6b656e206f776e6560008201527f72206f7220617070726f76656400000000000000000000000000000000000000602082015250565b60006148f4602d83613838565b91506148ff82614898565b604082019050919050565b60006020820190508181036000830152614923816148e7565b9050919050565b7f796f752068617665206e6f206574682079657400000000000000000000000000600082015250565b6000614960601383613838565b915061496b8261492a565b602082019050919050565b6000602082019050818103600083015261498f81614953565b9050919050565b6000815190506149a581613996565b92915050565b6000602082840312156149c1576149c06135d9565b5b60006149cf84828501614996565b91505092915050565b7f4e487b7100000000000000000000000000000000000000000000000000000000600052603260045260246000fd5b600081519050919050565b600082825260208201905092915050565b6000819050602082019050919050565b614a3c8161395a565b82525050565b6000614a4e8383614a33565b60208301905092915050565b6000602082019050919050565b6000614a7282614a07565b614a7c8185614a12565b9350614a8783614a23565b8060005b83811015614ab8578151614a9f8882614a42565b9750614aaa83614a5a565b925050600181019050614a8b565b5085935050505092915050565b6000608082019050614ada6000830187613ac2565b8181036020830152614aec8186614a67565b9050614afb604083018561396c565b614b086060830184613ac2565b95945050505050565b600067ffffffffffffffff821115614b2c57614b2b6136b9565b5b602082029050602081019050919050565b600080fd5b6000614b55614b5084614b11565b613719565b90508083825260208201905060208402830185811115614b7857614b77614b3d565b5b835b81811015614ba15780614b8d88826141f9565b845260208401935050602081019050614b7a565b5050509392505050565b600082601f830112614bc057614bbf61369e565b5b8151614bd0848260208601614b42565b91505092915050565b600060208284031215614bef57614bee6135d9565b5b600082015167ffffffffffffffff811115614c0d57614c0c6135de565b5b614c1984828501614bab565b91505092915050565b7f4e6f2062616c616e636520746f207472616e7366657200000000000000000000600082015250565b6000614c58601683613838565b9150614c6382614c22565b602082019050919050565b60006020820190508181036000830152614c8781614c4b565b9050919050565b7f45524337323155524953746f726167653a2055524920736574206f66206e6f6e60008201527f6578697374656e7420746f6b656e000000000000000000000000000000000000602082015250565b6000614cea602e83613838565b9150614cf582614c8e565b604082019050919050565b60006020820190508181036000830152614d1981614cdd565b9050919050565b7f455243323938313a20726f79616c7479206665652077696c6c2065786365656460008201527f2073616c65507269636500000000000000000000000000000000000000000000602082015250565b6000614d7c602a83613838565b9150614d8782614d20565b604082019050919050565b60006020820190508181036000830152614dab81614d6f565b9050919050565b7f455243323938313a20696e76616c696420726563656976657200000000000000600082015250565b6000614de8601983613838565b9150614df382614db2565b602082019050919050565b60006020820190508181036000830152614e1781614ddb565b9050919050565b7f4552433732313a207472616e736665722066726f6d20696e636f72726563742060008201527f6f776e6572000000000000000000000000000000000000000000000000000000602082015250565b6000614e7a602583613838565b9150614e8582614e1e565b604082019050919050565b60006020820190508181036000830152614ea981614e6d565b9050919050565b7f4552433732313a207472616e7366657220746f20746865207a65726f2061646460008201527f7265737300000000000000000000000000000000000000000000000000000000602082015250565b6000614f0c602483613838565b9150614f1782614eb0565b604082019050919050565b60006020820190508181036000830152614f3b81614eff565b9050919050565b7f4552433732313a207472616e7366657220746f206e6f6e20455243373231526560008201527f63656976657220696d706c656d656e7465720000000000000000000000000000602082015250565b6000614f9e603283613838565b9150614fa982614f42565b604082019050919050565b60006020820190508181036000830152614fcd81614f91565b9050919050565b7f4552433732313a20617070726f766520746f2063616c6c657200000000000000600082015250565b600061500a601983613838565b915061501582614fd4565b602082019050919050565b6000602082019050818103600083015261503981614ffd565b9050919050565b7f4552433732313a206d696e7420746f20746865207a65726f2061646472657373600082015250565b6000615076602083613838565b915061508182615040565b602082019050919050565b600060208201905081810360008301526150a581615069565b9050919050565b7f4552433732313a20746f6b656e20616c7265616479206d696e74656400000000600082015250565b60006150e2601c83613838565b91506150ed826150ac565b602082019050919050565b60006020820190508181036000830152615111816150d5565b9050919050565b600081519050919050565b600082825260208201905092915050565b600061513f82615118565b6151498185615123565b9350615159818560208601613849565b615162816136a8565b840191505092915050565b6000608082019050615182600083018761396c565b61518f602083018661396c565b61519c6040830185613ac2565b81810360608301526151ae8184615134565b905095945050505050565b6000815190506151c88161360f565b92915050565b6000602082840312156151e4576151e36135d9565b5b60006151f2848285016151b9565b9150509291505056fea264697066735822122004c7cf5807c00db64b2deed94d969951cf690d5f9d1d04d6c6f9a5eaf6111f2964736f6c634300080f0033",
  "immutableReferences": {},
  "source": "// SPDX-License-Identifier: MIT\npragma solidity >=0.4.22 <0.9.0;\n\nimport \"@openzeppelin/contracts/token/common/ERC2981.sol\";\nimport \"@openzeppelin/contracts/token/ERC721/extensions/ERC721URIStorage.sol\";\nimport \"@openzeppelin/contracts/access/Ownable.sol\";\nimport \"@openzeppelin/contracts/utils/Counters.sol\";\nimport \"@openzeppelin/contracts/token/ERC20/IERC20.sol\";\nimport \"@uniswap/v2-periphery/contracts/interfaces/IUniswapV2Router02.sol\";\nimport \"operator-filter-registry/src/DefaultOperatorFilterer.sol\";\n\ncontract LaelapsMasterKey is ERC721URIStorage, ERC2981, Ownable, DefaultOperatorFilterer {\n  using Counters for Counters.Counter;\n  Counters.Counter private _tokenIds;\n  uint256 public mintCost = 100000;\n  string public tokenURI;\n  uint256 public locked = 0;\n  address private constant UNISWAP_ROUTER_ADDRESS = 0x7a250d5630B4cF539739dF2C5dAcb4c659F2488D;\n  address public LAELAPS_ADDRESS = 0x326C977E6efc84E512bB9C30f76E30c160eD06FB;\n  address public BURN_ADDRESS = 0x000000000000000000000000000000000000dEaD;\n  address public REWARD_WALLET = 0x897aec1BEb0Ce116B250dEaFeB3860F41EE4a9C9;\n  uint256 public TOTAL_SUPPLY = 200;\n  uint256 public burnPercentage = 0;\n  uint256 public rewardPercentage = 100;\n\n  IUniswapV2Router02 private uniswapRouter;\n\n  \n  constructor(string memory _uri) ERC721(\"Laelaps Master Key\", \"LMK\") {\n    _setDefaultRoyalty(msg.sender, 100);\n    tokenURI = _uri;\n    uniswapRouter = IUniswapV2Router02(UNISWAP_ROUTER_ADDRESS);\n  }\n\n  function setTokenUri(string memory _uri) public onlyOwner {\n    tokenURI = _uri;\n  }\n\n    function setTotalSupply(uint256 _supply) public onlyOwner {\n    TOTAL_SUPPLY = _supply;\n  }\n\n  function setMintPrice(uint256 _mintPrice) public onlyOwner {\n    mintCost = _mintPrice;\n  }\n\n  function setRoyalty(uint96 _royalty) public onlyOwner {\n    _setDefaultRoyalty(msg.sender, _royalty);\n  }\n\n  function getContractBalance() public view onlyOwner returns (uint256) {\n    return address(this).balance;\n  }\n\n  function getLaelapsBalance() public view onlyOwner returns (uint256) {\n    IERC20 laelaps_token = IERC20(LAELAPS_ADDRESS);\n    return laelaps_token.balanceOf(address(this));\n  }\n\n  function supportsInterface(bytes4 interfaceId)\n    public view virtual override(ERC2981, ERC721URIStorage)\n    returns (bool) {\n      return super.supportsInterface(interfaceId);\n  }\n\n  function _burn(uint256 tokenId) internal virtual override onlyOwner{\n    super._burn(tokenId);\n    _resetTokenRoyalty(tokenId);\n  }\n\n  function burnNFT(uint256 tokenId)\n    public onlyOwner {\n      _burn(tokenId);\n  }\n\n  function lock(uint256 _lock) public onlyOwner {\n    if (_lock == 0 || _lock == 1){\n      locked = _lock;\n    }\n  }\n\n  function changeLaelapsAddress(address _addr) public onlyOwner {\n    LAELAPS_ADDRESS = _addr;\n  }\n\n  function transferBalanceToOwner() public onlyOwner {\n     uint256 balance = address(this).balance;\n     require(balance > 0, \"Contract balance is zero\");\n     payable(owner()).transfer(balance);\n  }\n\n  function mintNFT(address recipient)\n    public payable \n    returns (uint256) {\n      require(msg.value >= mintCost, \"Insufficient funds\");\n      require(bytes(tokenURI).length > 0, \"Token URI not set yet\");\n      require(locked != 1, \"Contract Locked\");\n      require(burnPercentage + rewardPercentage <= 100, \"percentages set wrong\");\n      uint256 tokenId = _tokenIds.current();\n      require(tokenId < TOTAL_SUPPLY, \"no more supply\");\n      buyAndBurnLaelaps();\n      sendToRewardWallet();\n      uint256 newItemId = _tokenIds.current();\n      _tokenIds.increment();\n      _safeMint(recipient, newItemId);\n      _setTokenURI(newItemId, tokenURI);\n      return newItemId;\n  }\n\n  function buyAndBurnLaelaps() internal {\n    if (burnPercentage > 0) {\n      address[] memory path = new address[](2);\n      uint amountOutMin = address(this).balance * burnPercentage / 100;\n      require(amountOutMin > 0, \"you have no eth yet\");\n      address WETH_ADDRESS = uniswapRouter.WETH();\n      path[0] = WETH_ADDRESS;\n      path[1] = LAELAPS_ADDRESS;\n      require(amountOutMin > 0, \"you have no eth yet\");\n      address to = address(this);\n      uint deadline = block.timestamp + 100;\n      uniswapRouter.swapExactETHForTokens{ value: amountOutMin }(amountOutMin, path, to, deadline);\n      IERC20 laelaps_token = IERC20(LAELAPS_ADDRESS);\n      require(laelaps_token.balanceOf(address(this)) >= 0, \"Insufficient funds\");\n      laelaps_token.transfer(BURN_ADDRESS, laelaps_token.balanceOf(address(this)));\n    }\n  }\n\n  function sendToRewardWallet() internal {\n    if(rewardPercentage > 0) {\n      uint amountOut = address(this).balance * rewardPercentage / 100;\n      require(amountOut > 0, \"No balance to transfer\");\n      payable(REWARD_WALLET).transfer(amountOut);\n    }\n  }\n\n  /// OPERATOR FILTER OVERRIDES\n  function setApprovalForAll(address operator, bool approved) public override(ERC721, IERC721) onlyAllowedOperatorApproval(operator) {\n    super.setApprovalForAll(operator, approved);\n}\n\nfunction approve(address operator, uint256 tokenId) public override(ERC721, IERC721) onlyAllowedOperatorApproval(operator) {\n    super.approve(operator, tokenId);\n}\n\nfunction transferFrom(address from, address to, uint256 tokenId) public override(ERC721, IERC721) onlyAllowedOperator(from) {\n    super.transferFrom(from, to, tokenId);\n}\n\nfunction safeTransferFrom(address from, address to, uint256 tokenId) public override(ERC721, IERC721) onlyAllowedOperator(from) {\n    super.safeTransferFrom(from, to, tokenId);\n}\n\nfunction safeTransferFrom(address from, address to, uint256 tokenId, bytes memory data)\n    public\n    override(ERC721, IERC721)\n    onlyAllowedOperator(from)\n{\n    super.safeTransferFrom(from, to, tokenId, data);\n}\n  \n\n}\n\n\n",
  "sourcePath": "/Users/Jesse.Jacob/Documents/laelaps/MasterKeyPercentages/contracts/LaelapsMasterKey.sol",
  "compiler": {
    "name": "solc",
    "version": "0.8.15+commit.e14f2714.Emscripten.clang"
  },
  "schemaVersion": "3.4.12",
  "updatedAt": "2023-06-28T15:55:37.803Z",
  "networkType": "ethereum",
  "devdoc": {
    "errors": {
      "OperatorNotAllowed(address)": [
        {
          "details": "Emitted when an operator is not allowed."
        }
      ]
    },
    "kind": "dev",
    "methods": {
      "balanceOf(address)": {
        "details": "See {IERC721-balanceOf}."
      },
      "getApproved(uint256)": {
        "details": "See {IERC721-getApproved}."
      },
      "isApprovedForAll(address,address)": {
        "details": "See {IERC721-isApprovedForAll}."
      },
      "name()": {
        "details": "See {IERC721Metadata-name}."
      },
      "owner()": {
        "details": "Returns the address of the current owner."
      },
      "ownerOf(uint256)": {
        "details": "See {IERC721-ownerOf}."
      },
      "renounceOwnership()": {
        "details": "Leaves the contract without owner. It will not be possible to call `onlyOwner` functions. Can only be called by the current owner. NOTE: Renouncing ownership will leave the contract without an owner, thereby disabling any functionality that is only available to the owner."
      },
      "royaltyInfo(uint256,uint256)": {
        "details": "Returns how much royalty is owed and to whom, based on a sale price that may be denominated in any unit of exchange. The royalty amount is denominated and should be paid in that same unit of exchange."
      },
      "symbol()": {
        "details": "See {IERC721Metadata-symbol}."
      },
      "tokenURI(uint256)": {
        "details": "See {IERC721Metadata-tokenURI}."
      },
      "transferOwnership(address)": {
        "details": "Transfers ownership of the contract to a new account (`newOwner`). Can only be called by the current owner."
      }
    },
    "version": 1
  },
  "userdoc": {
    "kind": "user",
    "methods": {
      "setApprovalForAll(address,bool)": {
        "notice": "OPERATOR FILTER OVERRIDES"
      }
    },
    "version": 1
  }
}