{
  "contractName": "LaelapsMasterKey",
  "abi": [
    {
      "inputs": [
        {
          "internalType": "string",
          "name": "_uri",
          "type": "string"
        }
      ],
      "stateMutability": "nonpayable",
      "type": "constructor"
    },
    {
      "anonymous": false,
      "inputs": [
        {
          "indexed": true,
          "internalType": "address",
          "name": "owner",
          "type": "address"
        },
        {
          "indexed": true,
          "internalType": "address",
          "name": "approved",
          "type": "address"
        },
        {
          "indexed": true,
          "internalType": "uint256",
          "name": "tokenId",
          "type": "uint256"
        }
      ],
      "name": "Approval",
      "type": "event"
    },
    {
      "anonymous": false,
      "inputs": [
        {
          "indexed": true,
          "internalType": "address",
          "name": "owner",
          "type": "address"
        },
        {
          "indexed": true,
          "internalType": "address",
          "name": "operator",
          "type": "address"
        },
        {
          "indexed": false,
          "internalType": "bool",
          "name": "approved",
          "type": "bool"
        }
      ],
      "name": "ApprovalForAll",
      "type": "event"
    },
    {
      "anonymous": false,
      "inputs": [
        {
          "indexed": false,
          "internalType": "uint256",
          "name": "_fromTokenId",
          "type": "uint256"
        },
        {
          "indexed": false,
          "internalType": "uint256",
          "name": "_toTokenId",
          "type": "uint256"
        }
      ],
      "name": "BatchMetadataUpdate",
      "type": "event"
    },
    {
      "anonymous": false,
      "inputs": [
        {
          "indexed": false,
          "internalType": "uint256",
          "name": "_tokenId",
          "type": "uint256"
        }
      ],
      "name": "MetadataUpdate",
      "type": "event"
    },
    {
      "anonymous": false,
      "inputs": [
        {
          "indexed": true,
          "internalType": "address",
          "name": "previousOwner",
          "type": "address"
        },
        {
          "indexed": true,
          "internalType": "address",
          "name": "newOwner",
          "type": "address"
        }
      ],
      "name": "OwnershipTransferred",
      "type": "event"
    },
    {
      "anonymous": false,
      "inputs": [
        {
          "indexed": true,
          "internalType": "address",
          "name": "from",
          "type": "address"
        },
        {
          "indexed": true,
          "internalType": "address",
          "name": "to",
          "type": "address"
        },
        {
          "indexed": true,
          "internalType": "uint256",
          "name": "tokenId",
          "type": "uint256"
        }
      ],
      "name": "Transfer",
      "type": "event"
    },
    {
      "inputs": [],
      "name": "LINK",
      "outputs": [
        {
          "internalType": "address",
          "name": "",
          "type": "address"
        }
      ],
      "stateMutability": "view",
      "type": "function",
      "constant": true
    },
    {
      "inputs": [
        {
          "internalType": "address",
          "name": "to",
          "type": "address"
        },
        {
          "internalType": "uint256",
          "name": "tokenId",
          "type": "uint256"
        }
      ],
      "name": "approve",
      "outputs": [],
      "stateMutability": "nonpayable",
      "type": "function"
    },
    {
      "inputs": [
        {
          "internalType": "address",
          "name": "owner",
          "type": "address"
        }
      ],
      "name": "balanceOf",
      "outputs": [
        {
          "internalType": "uint256",
          "name": "",
          "type": "uint256"
        }
      ],
      "stateMutability": "view",
      "type": "function",
      "constant": true
    },
    {
      "inputs": [
        {
          "internalType": "uint256",
          "name": "tokenId",
          "type": "uint256"
        }
      ],
      "name": "getApproved",
      "outputs": [
        {
          "internalType": "address",
          "name": "",
          "type": "address"
        }
      ],
      "stateMutability": "view",
      "type": "function",
      "constant": true
    },
    {
      "inputs": [
        {
          "internalType": "address",
          "name": "owner",
          "type": "address"
        },
        {
          "internalType": "address",
          "name": "operator",
          "type": "address"
        }
      ],
      "name": "isApprovedForAll",
      "outputs": [
        {
          "internalType": "bool",
          "name": "",
          "type": "bool"
        }
      ],
      "stateMutability": "view",
      "type": "function",
      "constant": true
    },
    {
      "inputs": [],
      "name": "locked",
      "outputs": [
        {
          "internalType": "uint256",
          "name": "",
          "type": "uint256"
        }
      ],
      "stateMutability": "view",
      "type": "function",
      "constant": true
    },
    {
      "inputs": [],
      "name": "name",
      "outputs": [
        {
          "internalType": "string",
          "name": "",
          "type": "string"
        }
      ],
      "stateMutability": "view",
      "type": "function",
      "constant": true
    },
    {
      "inputs": [],
      "name": "owner",
      "outputs": [
        {
          "internalType": "address",
          "name": "",
          "type": "address"
        }
      ],
      "stateMutability": "view",
      "type": "function",
      "constant": true
    },
    {
      "inputs": [
        {
          "internalType": "uint256",
          "name": "tokenId",
          "type": "uint256"
        }
      ],
      "name": "ownerOf",
      "outputs": [
        {
          "internalType": "address",
          "name": "",
          "type": "address"
        }
      ],
      "stateMutability": "view",
      "type": "function",
      "constant": true
    },
    {
      "inputs": [],
      "name": "renounceOwnership",
      "outputs": [],
      "stateMutability": "nonpayable",
      "type": "function"
    },
    {
      "inputs": [
        {
          "internalType": "uint256",
          "name": "tokenId",
          "type": "uint256"
        },
        {
          "internalType": "uint256",
          "name": "salePrice",
          "type": "uint256"
        }
      ],
      "name": "royaltyInfo",
      "outputs": [
        {
          "internalType": "address",
          "name": "",
          "type": "address"
        },
        {
          "internalType": "uint256",
          "name": "",
          "type": "uint256"
        }
      ],
      "stateMutability": "view",
      "type": "function",
      "constant": true
    },
    {
      "inputs": [
        {
          "internalType": "address",
          "name": "from",
          "type": "address"
        },
        {
          "internalType": "address",
          "name": "to",
          "type": "address"
        },
        {
          "internalType": "uint256",
          "name": "tokenId",
          "type": "uint256"
        }
      ],
      "name": "safeTransferFrom",
      "outputs": [],
      "stateMutability": "nonpayable",
      "type": "function"
    },
    {
      "inputs": [
        {
          "internalType": "address",
          "name": "from",
          "type": "address"
        },
        {
          "internalType": "address",
          "name": "to",
          "type": "address"
        },
        {
          "internalType": "uint256",
          "name": "tokenId",
          "type": "uint256"
        },
        {
          "internalType": "bytes",
          "name": "data",
          "type": "bytes"
        }
      ],
      "name": "safeTransferFrom",
      "outputs": [],
      "stateMutability": "nonpayable",
      "type": "function"
    },
    {
      "inputs": [
        {
          "internalType": "address",
          "name": "operator",
          "type": "address"
        },
        {
          "internalType": "bool",
          "name": "approved",
          "type": "bool"
        }
      ],
      "name": "setApprovalForAll",
      "outputs": [],
      "stateMutability": "nonpayable",
      "type": "function"
    },
    {
      "inputs": [],
      "name": "symbol",
      "outputs": [
        {
          "internalType": "string",
          "name": "",
          "type": "string"
        }
      ],
      "stateMutability": "view",
      "type": "function",
      "constant": true
    },
    {
      "inputs": [],
      "name": "tokenURI",
      "outputs": [
        {
          "internalType": "string",
          "name": "",
          "type": "string"
        }
      ],
      "stateMutability": "view",
      "type": "function",
      "constant": true
    },
    {
      "inputs": [
        {
          "internalType": "uint256",
          "name": "tokenId",
          "type": "uint256"
        }
      ],
      "name": "tokenURI",
      "outputs": [
        {
          "internalType": "string",
          "name": "",
          "type": "string"
        }
      ],
      "stateMutability": "view",
      "type": "function",
      "constant": true
    },
    {
      "inputs": [
        {
          "internalType": "address",
          "name": "from",
          "type": "address"
        },
        {
          "internalType": "address",
          "name": "to",
          "type": "address"
        },
        {
          "internalType": "uint256",
          "name": "tokenId",
          "type": "uint256"
        }
      ],
      "name": "transferFrom",
      "outputs": [],
      "stateMutability": "nonpayable",
      "type": "function"
    },
    {
      "inputs": [
        {
          "internalType": "address",
          "name": "newOwner",
          "type": "address"
        }
      ],
      "name": "transferOwnership",
      "outputs": [],
      "stateMutability": "nonpayable",
      "type": "function"
    },
    {
      "inputs": [
        {
          "internalType": "uint256",
          "name": "_mintPrice",
          "type": "uint256"
        }
      ],
      "name": "setMintPrice",
      "outputs": [],
      "stateMutability": "nonpayable",
      "type": "function"
    },
    {
      "inputs": [
        {
          "internalType": "uint96",
          "name": "_royalty",
          "type": "uint96"
        }
      ],
      "name": "setRoyalty",
      "outputs": [],
      "stateMutability": "nonpayable",
      "type": "function"
    },
    {
      "inputs": [],
      "name": "getBalance",
      "outputs": [
        {
          "internalType": "uint256",
          "name": "",
          "type": "uint256"
        }
      ],
      "stateMutability": "view",
      "type": "function",
      "constant": true
    },
    {
      "inputs": [
        {
          "internalType": "bytes4",
          "name": "interfaceId",
          "type": "bytes4"
        }
      ],
      "name": "supportsInterface",
      "outputs": [
        {
          "internalType": "bool",
          "name": "",
          "type": "bool"
        }
      ],
      "stateMutability": "view",
      "type": "function",
      "constant": true
    },
    {
      "inputs": [
        {
          "internalType": "uint256",
          "name": "tokenId",
          "type": "uint256"
        }
      ],
      "name": "burnNFT",
      "outputs": [],
      "stateMutability": "nonpayable",
      "type": "function"
    },
    {
      "inputs": [
        {
          "internalType": "uint256",
          "name": "_lock",
          "type": "uint256"
        }
      ],
      "name": "lock",
      "outputs": [],
      "stateMutability": "nonpayable",
      "type": "function"
    },
    {
      "inputs": [
        {
          "internalType": "address",
          "name": "recipient",
          "type": "address"
        }
      ],
      "name": "mintNFT",
      "outputs": [
        {
          "internalType": "uint256",
          "name": "",
          "type": "uint256"
        }
      ],
      "stateMutability": "payable",
      "type": "function",
      "payable": true
    }
  ],
  "bytecode": "0x6080604052620186a0600b556000600d5573326c977e6efc84e512bb9c30f76e30c160ed06fb600e60006101000a81548173ffffffffffffffffffffffffffffffffffffffff021916908373ffffffffffffffffffffffffffffffffffffffff1602179055503480156200007257600080fd5b5060405162004d8538038062004d858339818101604052810190620000989190620005e3565b6040518060400160405280601381526020017f4c61656c6170734d61737465724b6579205631000000000000000000000000008152506040518060400160405280600381526020017f4c4d4b000000000000000000000000000000000000000000000000000000000081525081600090816200011591906200087f565b5080600190816200012791906200087f565b5050506200014a6200013e620001cb60201b60201c565b620001d360201b60201c565b6200015d3360646200029960201b60201c565b80600c90816200016e91906200087f565b50737a250d5630b4cf539739df2c5dacb4c659f2488d600f60006101000a81548173ffffffffffffffffffffffffffffffffffffffff021916908373ffffffffffffffffffffffffffffffffffffffff1602179055505062000a81565b600033905090565b6000600960009054906101000a900473ffffffffffffffffffffffffffffffffffffffff16905081600960006101000a81548173ffffffffffffffffffffffffffffffffffffffff021916908373ffffffffffffffffffffffffffffffffffffffff1602179055508173ffffffffffffffffffffffffffffffffffffffff168173ffffffffffffffffffffffffffffffffffffffff167f8be0079c531659141344cd1fd0a4f28419497f9722a3daafe3b4186f6b6457e060405160405180910390a35050565b620002a96200043c60201b60201c565b6bffffffffffffffffffffffff16816bffffffffffffffffffffffff1611156200030a576040517f08c379a00000000000000000000000000000000000000000000000000000000081526004016200030190620009ed565b60405180910390fd5b600073ffffffffffffffffffffffffffffffffffffffff168273ffffffffffffffffffffffffffffffffffffffff16036200037c576040517f08c379a0000000000000000000000000000000000000000000000000000000008152600401620003739062000a5f565b60405180910390fd5b60405180604001604052808373ffffffffffffffffffffffffffffffffffffffff168152602001826bffffffffffffffffffffffff16815250600760008201518160000160006101000a81548173ffffffffffffffffffffffffffffffffffffffff021916908373ffffffffffffffffffffffffffffffffffffffff16021790555060208201518160000160146101000a8154816bffffffffffffffffffffffff02191690836bffffffffffffffffffffffff1602179055509050505050565b6000612710905090565b6000604051905090565b600080fd5b600080fd5b600080fd5b600080fd5b6000601f19601f8301169050919050565b7f4e487b7100000000000000000000000000000000000000000000000000000000600052604160045260246000fd5b620004af8262000464565b810181811067ffffffffffffffff82111715620004d157620004d062000475565b5b80604052505050565b6000620004e662000446565b9050620004f48282620004a4565b919050565b600067ffffffffffffffff82111562000517576200051662000475565b5b620005228262000464565b9050602081019050919050565b60005b838110156200054f57808201518184015260208101905062000532565b838111156200055f576000848401525b50505050565b60006200057c6200057684620004f9565b620004da565b9050828152602081018484840111156200059b576200059a6200045f565b5b620005a88482856200052f565b509392505050565b600082601f830112620005c857620005c76200045a565b5b8151620005da84826020860162000565565b91505092915050565b600060208284031215620005fc57620005fb62000450565b5b600082015167ffffffffffffffff8111156200061d576200061c62000455565b5b6200062b84828501620005b0565b91505092915050565b600081519050919050565b7f4e487b7100000000000000000000000000000000000000000000000000000000600052602260045260246000fd5b600060028204905060018216806200068757607f821691505b6020821081036200069d576200069c6200063f565b5b50919050565b60008190508160005260206000209050919050565b60006020601f8301049050919050565b600082821b905092915050565b600060088302620007077fffffffffffffffffffffffffffffffffffffffffffffffffffffffffffffffff82620006c8565b620007138683620006c8565b95508019841693508086168417925050509392505050565b6000819050919050565b6000819050919050565b6000620007606200075a62000754846200072b565b62000735565b6200072b565b9050919050565b6000819050919050565b6200077c836200073f565b620007946200078b8262000767565b848454620006d5565b825550505050565b600090565b620007ab6200079c565b620007b881848462000771565b505050565b5b81811015620007e057620007d4600082620007a1565b600181019050620007be565b5050565b601f8211156200082f57620007f981620006a3565b6200080484620006b8565b8101602085101562000814578190505b6200082c6200082385620006b8565b830182620007bd565b50505b505050565b600082821c905092915050565b6000620008546000198460080262000834565b1980831691505092915050565b60006200086f838362000841565b9150826002028217905092915050565b6200088a8262000634565b67ffffffffffffffff811115620008a657620008a562000475565b5b620008b282546200066e565b620008bf828285620007e4565b600060209050601f831160018114620008f75760008415620008e2578287015190505b620008ee858262000861565b8655506200095e565b601f1984166200090786620006a3565b60005b8281101562000931578489015182556001820191506020850194506020810190506200090a565b868310156200095157848901516200094d601f89168262000841565b8355505b6001600288020188555050505b505050505050565b600082825260208201905092915050565b7f455243323938313a20726f79616c7479206665652077696c6c2065786365656460008201527f2073616c65507269636500000000000000000000000000000000000000000000602082015250565b6000620009d5602a8362000966565b9150620009e28262000977565b604082019050919050565b6000602082019050818103600083015262000a0881620009c6565b9050919050565b7f455243323938313a20696e76616c696420726563656976657200000000000000600082015250565b600062000a4760198362000966565b915062000a548262000a0f565b602082019050919050565b6000602082019050818103600083015262000a7a8162000a38565b9050919050565b6142f48062000a916000396000f3fe6080604052600436106101815760003560e01c806370a08231116100d1578063c87b56dd1161008a578063dd46706411610064578063dd46706414610588578063e985e9c5146105b1578063f2fde38b146105ee578063f4a0a5281461061757610181565b8063c87b56dd146104f7578063cac9266914610534578063cf3090121461055d57610181565b806370a08231146103fb578063715018a6146104385780638da5cb5b1461044f57806395d89b411461047a578063a22cb465146104a5578063b88d4fde146104ce57610181565b806323b872dd1161013e5780633c130d90116101185780633c130d901461033a57806342842e0e1461036557806354ba0f271461038e5780636352211e146103be57610181565b806323b872dd146102aa5780632890e0d7146102d35780632a55205a146102fc57610181565b806301ffc9a71461018657806306fdde03146101c3578063081812fc146101ee578063095ea7b31461022b57806312065fe0146102545780631b6b6d231461027f575b600080fd5b34801561019257600080fd5b506101ad60048036038101906101a89190612b0c565b610640565b6040516101ba9190612b54565b60405180910390f35b3480156101cf57600080fd5b506101d8610652565b6040516101e59190612c08565b60405180910390f35b3480156101fa57600080fd5b5061021560048036038101906102109190612c60565b6106e4565b6040516102229190612cce565b60405180910390f35b34801561023757600080fd5b50610252600480360381019061024d9190612d15565b61072a565b005b34801561026057600080fd5b50610269610841565b6040516102769190612d64565b60405180910390f35b34801561028b57600080fd5b50610294610849565b6040516102a19190612cce565b60405180910390f35b3480156102b657600080fd5b506102d160048036038101906102cc9190612d7f565b61086f565b005b3480156102df57600080fd5b506102fa60048036038101906102f59190612c60565b6108cf565b005b34801561030857600080fd5b50610323600480360381019061031e9190612dd2565b6108e3565b604051610331929190612e12565b60405180910390f35b34801561034657600080fd5b5061034f610acd565b60405161035c9190612c08565b60405180910390f35b34801561037157600080fd5b5061038c60048036038101906103879190612d7f565b610b5b565b005b6103a860048036038101906103a39190612e3b565b610b7b565b6040516103b59190612d64565b60405180910390f35b3480156103ca57600080fd5b506103e560048036038101906103e09190612c60565b610d1f565b6040516103f29190612cce565b60405180910390f35b34801561040757600080fd5b50610422600480360381019061041d9190612e3b565b610da5565b60405161042f9190612d64565b60405180910390f35b34801561044457600080fd5b5061044d610e5c565b005b34801561045b57600080fd5b50610464610e70565b6040516104719190612cce565b60405180910390f35b34801561048657600080fd5b5061048f610e9a565b60405161049c9190612c08565b60405180910390f35b3480156104b157600080fd5b506104cc60048036038101906104c79190612e94565b610f2c565b005b3480156104da57600080fd5b506104f560048036038101906104f09190613009565b610f42565b005b34801561050357600080fd5b5061051e60048036038101906105199190612c60565b610fa4565b60405161052b9190612c08565b60405180910390f35b34801561054057600080fd5b5061055b600480360381019061055691906130d0565b6110b6565b005b34801561056957600080fd5b506105726110cb565b60405161057f9190612d64565b60405180910390f35b34801561059457600080fd5b506105af60048036038101906105aa9190612c60565b6110d1565b005b3480156105bd57600080fd5b506105d860048036038101906105d391906130fd565b6110f8565b6040516105e59190612b54565b60405180910390f35b3480156105fa57600080fd5b5061061560048036038101906106109190612e3b565b61118c565b005b34801561062357600080fd5b5061063e60048036038101906106399190612c60565b61120f565b005b600061064b82611221565b9050919050565b6060600080546106619061316c565b80601f016020809104026020016040519081016040528092919081815260200182805461068d9061316c565b80156106da5780601f106106af576101008083540402835291602001916106da565b820191906000526020600020905b8154815290600101906020018083116106bd57829003601f168201915b5050505050905090565b60006106ef8261129b565b6004600083815260200190815260200160002060009054906101000a900473ffffffffffffffffffffffffffffffffffffffff169050919050565b600061073582610d1f565b90508073ffffffffffffffffffffffffffffffffffffffff168373ffffffffffffffffffffffffffffffffffffffff16036107a5576040517f08c379a000000000000000000000000000000000000000000000000000000000815260040161079c9061320f565b60405180910390fd5b8073ffffffffffffffffffffffffffffffffffffffff166107c46112e6565b73ffffffffffffffffffffffffffffffffffffffff1614806107f357506107f2816107ed6112e6565b6110f8565b5b610832576040517f08c379a0000000000000000000000000000000000000000000000000000000008152600401610829906132a1565b60405180910390fd5b61083c83836112ee565b505050565b600047905090565b600e60009054906101000a900473ffffffffffffffffffffffffffffffffffffffff1681565b61088061087a6112e6565b826113a7565b6108bf576040517f08c379a00000000000000000000000000000000000000000000000000000000081526004016108b690613333565b60405180910390fd5b6108ca83838361143c565b505050565b6108d7611735565b6108e0816117b3565b50565b6000806000600860008681526020019081526020016000206040518060400160405290816000820160009054906101000a900473ffffffffffffffffffffffffffffffffffffffff1673ffffffffffffffffffffffffffffffffffffffff1673ffffffffffffffffffffffffffffffffffffffff1681526020016000820160149054906101000a90046bffffffffffffffffffffffff166bffffffffffffffffffffffff166bffffffffffffffffffffffff16815250509050600073ffffffffffffffffffffffffffffffffffffffff16816000015173ffffffffffffffffffffffffffffffffffffffff1603610a785760076040518060400160405290816000820160009054906101000a900473ffffffffffffffffffffffffffffffffffffffff1673ffffffffffffffffffffffffffffffffffffffff1673ffffffffffffffffffffffffffffffffffffffff1681526020016000820160149054906101000a90046bffffffffffffffffffffffff166bffffffffffffffffffffffff166bffffffffffffffffffffffff168152505090505b6000610a826117c8565b6bffffffffffffffffffffffff1682602001516bffffffffffffffffffffffff1686610aae9190613382565b610ab8919061340b565b90508160000151819350935050509250929050565b600c8054610ada9061316c565b80601f0160208091040260200160405190810160405280929190818152602001828054610b069061316c565b8015610b535780601f10610b2857610100808354040283529160200191610b53565b820191906000526020600020905b815481529060010190602001808311610b3657829003601f168201915b505050505081565b610b7683838360405180602001604052806000815250610f42565b505050565b6000600b54341015610bc2576040517f08c379a0000000000000000000000000000000000000000000000000000000008152600401610bb990613488565b60405180910390fd5b6000600c8054610bd19061316c565b905011610c13576040517f08c379a0000000000000000000000000000000000000000000000000000000008152600401610c0a906134f4565b60405180910390fd5b6001600d5403610c58576040517f08c379a0000000000000000000000000000000000000000000000000000000008152600401610c4f90613560565b60405180910390fd5b610c606117d2565b6000610c6c600a611a41565b9050610c78600a611a4f565b610c828382611a65565b610d1681600c8054610c939061316c565b80601f0160208091040260200160405190810160405280929190818152602001828054610cbf9061316c565b8015610d0c5780601f10610ce157610100808354040283529160200191610d0c565b820191906000526020600020905b815481529060010190602001808311610cef57829003601f168201915b5050505050611a83565b80915050919050565b600080610d2b83611b27565b9050600073ffffffffffffffffffffffffffffffffffffffff168173ffffffffffffffffffffffffffffffffffffffff1603610d9c576040517f08c379a0000000000000000000000000000000000000000000000000000000008152600401610d93906135cc565b60405180910390fd5b80915050919050565b60008073ffffffffffffffffffffffffffffffffffffffff168273ffffffffffffffffffffffffffffffffffffffff1603610e15576040517f08c379a0000000000000000000000000000000000000000000000000000000008152600401610e0c9061365e565b60405180910390fd5b600360008373ffffffffffffffffffffffffffffffffffffffff1673ffffffffffffffffffffffffffffffffffffffff168152602001908152602001600020549050919050565b610e64611735565b610e6e6000611b64565b565b6000600960009054906101000a900473ffffffffffffffffffffffffffffffffffffffff16905090565b606060018054610ea99061316c565b80601f0160208091040260200160405190810160405280929190818152602001828054610ed59061316c565b8015610f225780601f10610ef757610100808354040283529160200191610f22565b820191906000526020600020905b815481529060010190602001808311610f0557829003601f168201915b5050505050905090565b610f3e610f376112e6565b8383611c2a565b5050565b610f53610f4d6112e6565b836113a7565b610f92576040517f08c379a0000000000000000000000000000000000000000000000000000000008152600401610f8990613333565b60405180910390fd5b610f9e84848484611d96565b50505050565b6060610faf8261129b565b6000600660008481526020019081526020016000208054610fcf9061316c565b80601f0160208091040260200160405190810160405280929190818152602001828054610ffb9061316c565b80156110485780601f1061101d57610100808354040283529160200191611048565b820191906000526020600020905b81548152906001019060200180831161102b57829003601f168201915b505050505090506000611059611df2565b9050600081510361106e5781925050506110b1565b6000825111156110a357808260405160200161108b9291906136ba565b604051602081830303815290604052925050506110b1565b6110ac84611e09565b925050505b919050565b6110be611735565b6110c83382611e71565b50565b600d5481565b6110d9611735565b60008114806110e85750600181145b156110f55780600d819055505b50565b6000600560008473ffffffffffffffffffffffffffffffffffffffff1673ffffffffffffffffffffffffffffffffffffffff16815260200190815260200160002060008373ffffffffffffffffffffffffffffffffffffffff1673ffffffffffffffffffffffffffffffffffffffff16815260200190815260200160002060009054906101000a900460ff16905092915050565b611194611735565b600073ffffffffffffffffffffffffffffffffffffffff168173ffffffffffffffffffffffffffffffffffffffff1603611203576040517f08c379a00000000000000000000000000000000000000000000000000000000081526004016111fa90613750565b60405180910390fd5b61120c81611b64565b50565b611217611735565b80600b8190555050565b60007f2a55205a000000000000000000000000000000000000000000000000000000007bffffffffffffffffffffffffffffffffffffffffffffffffffffffff1916827bffffffffffffffffffffffffffffffffffffffffffffffffffffffff19161480611294575061129382612006565b5b9050919050565b6112a481612067565b6112e3576040517f08c379a00000000000000000000000000000000000000000000000000000000081526004016112da906135cc565b60405180910390fd5b50565b600033905090565b816004600083815260200190815260200160002060006101000a81548173ffffffffffffffffffffffffffffffffffffffff021916908373ffffffffffffffffffffffffffffffffffffffff160217905550808273ffffffffffffffffffffffffffffffffffffffff1661136183610d1f565b73ffffffffffffffffffffffffffffffffffffffff167f8c5be1e5ebec7d5bd14f71427d1e84f3dd0314c0f7b2291e5b200ac8c7c3b92560405160405180910390a45050565b6000806113b383610d1f565b90508073ffffffffffffffffffffffffffffffffffffffff168473ffffffffffffffffffffffffffffffffffffffff1614806113f557506113f481856110f8565b5b8061143357508373ffffffffffffffffffffffffffffffffffffffff1661141b846106e4565b73ffffffffffffffffffffffffffffffffffffffff16145b91505092915050565b8273ffffffffffffffffffffffffffffffffffffffff1661145c82610d1f565b73ffffffffffffffffffffffffffffffffffffffff16146114b2576040517f08c379a00000000000000000000000000000000000000000000000000000000081526004016114a9906137e2565b60405180910390fd5b600073ffffffffffffffffffffffffffffffffffffffff168273ffffffffffffffffffffffffffffffffffffffff1603611521576040517f08c379a000000000000000000000000000000000000000000000000000000000815260040161151890613874565b60405180910390fd5b61152e83838360016120a8565b8273ffffffffffffffffffffffffffffffffffffffff1661154e82610d1f565b73ffffffffffffffffffffffffffffffffffffffff16146115a4576040517f08c379a000000000000000000000000000000000000000000000000000000000815260040161159b906137e2565b60405180910390fd5b6004600082815260200190815260200160002060006101000a81549073ffffffffffffffffffffffffffffffffffffffff02191690556001600360008573ffffffffffffffffffffffffffffffffffffffff1673ffffffffffffffffffffffffffffffffffffffff168152602001908152602001600020600082825403925050819055506001600360008473ffffffffffffffffffffffffffffffffffffffff1673ffffffffffffffffffffffffffffffffffffffff16815260200190815260200160002060008282540192505081905550816002600083815260200190815260200160002060006101000a81548173ffffffffffffffffffffffffffffffffffffffff021916908373ffffffffffffffffffffffffffffffffffffffff160217905550808273ffffffffffffffffffffffffffffffffffffffff168473ffffffffffffffffffffffffffffffffffffffff167fddf252ad1be2c89b69c2b068fc378daa952ba7f163c4a11628f55a4df523b3ef60405160405180910390a461173083838360016120ae565b505050565b61173d6112e6565b73ffffffffffffffffffffffffffffffffffffffff1661175b610e70565b73ffffffffffffffffffffffffffffffffffffffff16146117b1576040517f08c379a00000000000000000000000000000000000000000000000000000000081526004016117a8906138e0565b60405180910390fd5b565b6117bc816120b4565b6117c581612107565b50565b6000612710905090565b6000600267ffffffffffffffff8111156117ef576117ee612ede565b5b60405190808252806020026020018201604052801561181d5781602001602082028036833780820191505090505b5090506000600f60009054906101000a900473ffffffffffffffffffffffffffffffffffffffff1673ffffffffffffffffffffffffffffffffffffffff1663ad5c46486040518163ffffffff1660e01b8152600401602060405180830381865afa15801561188f573d6000803e3d6000fd5b505050506040513d601f19601f820116820180604052508101906118b39190613915565b905080826000815181106118ca576118c9613942565b5b602002602001019073ffffffffffffffffffffffffffffffffffffffff16908173ffffffffffffffffffffffffffffffffffffffff1681525050600e60009054906101000a900473ffffffffffffffffffffffffffffffffffffffff168260018151811061193b5761193a613942565b5b602002602001019073ffffffffffffffffffffffffffffffffffffffff16908173ffffffffffffffffffffffffffffffffffffffff168152505060004790506000309050600060644261198e9190613971565b9050600f60009054906101000a900473ffffffffffffffffffffffffffffffffffffffff1673ffffffffffffffffffffffffffffffffffffffff16637ff36ab5848785856040518563ffffffff1660e01b81526004016119f19493929190613a85565b6000604051808303816000875af1158015611a10573d6000803e3d6000fd5b505050506040513d6000823e3d601f19601f82011682018060405250810190611a399190613bae565b505050505050565b600081600001549050919050565b6001816000016000828254019250508190555050565b611a7f828260405180602001604052806000815250612166565b5050565b611a8c82612067565b611acb576040517f08c379a0000000000000000000000000000000000000000000000000000000008152600401611ac290613c69565b60405180910390fd5b80600660008481526020019081526020016000209081611aeb9190613e35565b507ff8e1a15aba9398e019f0b49df1a4fde98ee17ae345cb5f6b5e2c27f5033e8ce782604051611b1b9190612d64565b60405180910390a15050565b60006002600083815260200190815260200160002060009054906101000a900473ffffffffffffffffffffffffffffffffffffffff169050919050565b6000600960009054906101000a900473ffffffffffffffffffffffffffffffffffffffff16905081600960006101000a81548173ffffffffffffffffffffffffffffffffffffffff021916908373ffffffffffffffffffffffffffffffffffffffff1602179055508173ffffffffffffffffffffffffffffffffffffffff168173ffffffffffffffffffffffffffffffffffffffff167f8be0079c531659141344cd1fd0a4f28419497f9722a3daafe3b4186f6b6457e060405160405180910390a35050565b8173ffffffffffffffffffffffffffffffffffffffff168373ffffffffffffffffffffffffffffffffffffffff1603611c98576040517f08c379a0000000000000000000000000000000000000000000000000000000008152600401611c8f90613f53565b60405180910390fd5b80600560008573ffffffffffffffffffffffffffffffffffffffff1673ffffffffffffffffffffffffffffffffffffffff16815260200190815260200160002060008473ffffffffffffffffffffffffffffffffffffffff1673ffffffffffffffffffffffffffffffffffffffff16815260200190815260200160002060006101000a81548160ff0219169083151502179055508173ffffffffffffffffffffffffffffffffffffffff168373ffffffffffffffffffffffffffffffffffffffff167f17307eab39ab6107e8899845ad3d59bd9653f200f220920489ca2b5937696c3183604051611d899190612b54565b60405180910390a3505050565b611da184848461143c565b611dad848484846121c1565b611dec576040517f08c379a0000000000000000000000000000000000000000000000000000000008152600401611de390613fe5565b60405180910390fd5b50505050565b606060405180602001604052806000815250905090565b6060611e148261129b565b6000611e1e611df2565b90506000815111611e3e5760405180602001604052806000815250611e69565b80611e4884612348565b604051602001611e599291906136ba565b6040516020818303038152906040525b915050919050565b611e796117c8565b6bffffffffffffffffffffffff16816bffffffffffffffffffffffff161115611ed7576040517f08c379a0000000000000000000000000000000000000000000000000000000008152600401611ece90614077565b60405180910390fd5b600073ffffffffffffffffffffffffffffffffffffffff168273ffffffffffffffffffffffffffffffffffffffff1603611f46576040517f08c379a0000000000000000000000000000000000000000000000000000000008152600401611f3d906140e3565b60405180910390fd5b60405180604001604052808373ffffffffffffffffffffffffffffffffffffffff168152602001826bffffffffffffffffffffffff16815250600760008201518160000160006101000a81548173ffffffffffffffffffffffffffffffffffffffff021916908373ffffffffffffffffffffffffffffffffffffffff16021790555060208201518160000160146101000a8154816bffffffffffffffffffffffff02191690836bffffffffffffffffffffffff1602179055509050505050565b6000634906490660e01b7bffffffffffffffffffffffffffffffffffffffffffffffffffffffff1916827bffffffffffffffffffffffffffffffffffffffffffffffffffffffff19161480612060575061205f82612416565b5b9050919050565b60008073ffffffffffffffffffffffffffffffffffffffff1661208983611b27565b73ffffffffffffffffffffffffffffffffffffffff1614159050919050565b50505050565b50505050565b6120bd816124f8565b60006006600083815260200190815260200160002080546120dd9061316c565b905014612104576006600082815260200190815260200160002060006121039190612a43565b5b50565b60086000828152602001908152602001600020600080820160006101000a81549073ffffffffffffffffffffffffffffffffffffffff02191690556000820160146101000a8154906bffffffffffffffffffffffff0219169055505050565b6121708383612646565b61217d60008484846121c1565b6121bc576040517f08c379a00000000000000000000000000000000000000000000000000000000081526004016121b390613fe5565b60405180910390fd5b505050565b60006121e28473ffffffffffffffffffffffffffffffffffffffff16612863565b1561233b578373ffffffffffffffffffffffffffffffffffffffff1663150b7a0261220b6112e6565b8786866040518563ffffffff1660e01b815260040161222d9493929190614158565b6020604051808303816000875af192505050801561226957506040513d601f19601f8201168201806040525081019061226691906141b9565b60015b6122eb573d8060008114612299576040519150601f19603f3d011682016040523d82523d6000602084013e61229e565b606091505b5060008151036122e3576040517f08c379a00000000000000000000000000000000000000000000000000000000081526004016122da90613fe5565b60405180910390fd5b805181602001fd5b63150b7a0260e01b7bffffffffffffffffffffffffffffffffffffffffffffffffffffffff1916817bffffffffffffffffffffffffffffffffffffffffffffffffffffffff191614915050612340565b600190505b949350505050565b60606000600161235784612886565b01905060008167ffffffffffffffff81111561237657612375612ede565b5b6040519080825280601f01601f1916602001820160405280156123a85781602001600182028036833780820191505090505b509050600082602001820190505b60011561240b578080600190039150507f3031323334353637383961626364656600000000000000000000000000000000600a86061a8153600a85816123ff576123fe6133dc565b5b049450600085036123b6575b819350505050919050565b60007f80ac58cd000000000000000000000000000000000000000000000000000000007bffffffffffffffffffffffffffffffffffffffffffffffffffffffff1916827bffffffffffffffffffffffffffffffffffffffffffffffffffffffff191614806124e157507f5b5e139f000000000000000000000000000000000000000000000000000000007bffffffffffffffffffffffffffffffffffffffffffffffffffffffff1916827bffffffffffffffffffffffffffffffffffffffffffffffffffffffff1916145b806124f157506124f0826129d9565b5b9050919050565b600061250382610d1f565b90506125138160008460016120a8565b61251c82610d1f565b90506004600083815260200190815260200160002060006101000a81549073ffffffffffffffffffffffffffffffffffffffff02191690556001600360008373ffffffffffffffffffffffffffffffffffffffff1673ffffffffffffffffffffffffffffffffffffffff168152602001908152602001600020600082825403925050819055506002600083815260200190815260200160002060006101000a81549073ffffffffffffffffffffffffffffffffffffffff021916905581600073ffffffffffffffffffffffffffffffffffffffff168273ffffffffffffffffffffffffffffffffffffffff167fddf252ad1be2c89b69c2b068fc378daa952ba7f163c4a11628f55a4df523b3ef60405160405180910390a46126428160008460016120ae565b5050565b600073ffffffffffffffffffffffffffffffffffffffff168273ffffffffffffffffffffffffffffffffffffffff16036126b5576040517f08c379a00000000000000000000000000000000000000000000000000000000081526004016126ac90614232565b60405180910390fd5b6126be81612067565b156126fe576040517f08c379a00000000000000000000000000000000000000000000000000000000081526004016126f59061429e565b60405180910390fd5b61270c6000838360016120a8565b61271581612067565b15612755576040517f08c379a000000000000000000000000000000000000000000000000000000000815260040161274c9061429e565b60405180910390fd5b6001600360008473ffffffffffffffffffffffffffffffffffffffff1673ffffffffffffffffffffffffffffffffffffffff16815260200190815260200160002060008282540192505081905550816002600083815260200190815260200160002060006101000a81548173ffffffffffffffffffffffffffffffffffffffff021916908373ffffffffffffffffffffffffffffffffffffffff160217905550808273ffffffffffffffffffffffffffffffffffffffff16600073ffffffffffffffffffffffffffffffffffffffff167fddf252ad1be2c89b69c2b068fc378daa952ba7f163c4a11628f55a4df523b3ef60405160405180910390a461285f6000838360016120ae565b5050565b6000808273ffffffffffffffffffffffffffffffffffffffff163b119050919050565b600080600090507a184f03e93ff9f4daa797ed6e38ed64bf6a1f01000000000000000083106128e4577a184f03e93ff9f4daa797ed6e38ed64bf6a1f01000000000000000083816128da576128d96133dc565b5b0492506040810190505b6d04ee2d6d415b85acef81000000008310612921576d04ee2d6d415b85acef81000000008381612917576129166133dc565b5b0492506020810190505b662386f26fc10000831061295057662386f26fc100008381612946576129456133dc565b5b0492506010810190505b6305f5e1008310612979576305f5e100838161296f5761296e6133dc565b5b0492506008810190505b612710831061299e576127108381612994576129936133dc565b5b0492506004810190505b606483106129c157606483816129b7576129b66133dc565b5b0492506002810190505b600a83106129d0576001810190505b80915050919050565b60007f01ffc9a7000000000000000000000000000000000000000000000000000000007bffffffffffffffffffffffffffffffffffffffffffffffffffffffff1916827bffffffffffffffffffffffffffffffffffffffffffffffffffffffff1916149050919050565b508054612a4f9061316c565b6000825580601f10612a615750612a80565b601f016020900490600052602060002090810190612a7f9190612a83565b5b50565b5b80821115612a9c576000816000905550600101612a84565b5090565b6000604051905090565b600080fd5b600080fd5b60007fffffffff0000000000000000000000000000000000000000000000000000000082169050919050565b612ae981612ab4565b8114612af457600080fd5b50565b600081359050612b0681612ae0565b92915050565b600060208284031215612b2257612b21612aaa565b5b6000612b3084828501612af7565b91505092915050565b60008115159050919050565b612b4e81612b39565b82525050565b6000602082019050612b696000830184612b45565b92915050565b600081519050919050565b600082825260208201905092915050565b60005b83811015612ba9578082015181840152602081019050612b8e565b83811115612bb8576000848401525b50505050565b6000601f19601f8301169050919050565b6000612bda82612b6f565b612be48185612b7a565b9350612bf4818560208601612b8b565b612bfd81612bbe565b840191505092915050565b60006020820190508181036000830152612c228184612bcf565b905092915050565b6000819050919050565b612c3d81612c2a565b8114612c4857600080fd5b50565b600081359050612c5a81612c34565b92915050565b600060208284031215612c7657612c75612aaa565b5b6000612c8484828501612c4b565b91505092915050565b600073ffffffffffffffffffffffffffffffffffffffff82169050919050565b6000612cb882612c8d565b9050919050565b612cc881612cad565b82525050565b6000602082019050612ce36000830184612cbf565b92915050565b612cf281612cad565b8114612cfd57600080fd5b50565b600081359050612d0f81612ce9565b92915050565b60008060408385031215612d2c57612d2b612aaa565b5b6000612d3a85828601612d00565b9250506020612d4b85828601612c4b565b9150509250929050565b612d5e81612c2a565b82525050565b6000602082019050612d796000830184612d55565b92915050565b600080600060608486031215612d9857612d97612aaa565b5b6000612da686828701612d00565b9350506020612db786828701612d00565b9250506040612dc886828701612c4b565b9150509250925092565b60008060408385031215612de957612de8612aaa565b5b6000612df785828601612c4b565b9250506020612e0885828601612c4b565b9150509250929050565b6000604082019050612e276000830185612cbf565b612e346020830184612d55565b9392505050565b600060208284031215612e5157612e50612aaa565b5b6000612e5f84828501612d00565b91505092915050565b612e7181612b39565b8114612e7c57600080fd5b50565b600081359050612e8e81612e68565b92915050565b60008060408385031215612eab57612eaa612aaa565b5b6000612eb985828601612d00565b9250506020612eca85828601612e7f565b9150509250929050565b600080fd5b600080fd5b7f4e487b7100000000000000000000000000000000000000000000000000000000600052604160045260246000fd5b612f1682612bbe565b810181811067ffffffffffffffff82111715612f3557612f34612ede565b5b80604052505050565b6000612f48612aa0565b9050612f548282612f0d565b919050565b600067ffffffffffffffff821115612f7457612f73612ede565b5b612f7d82612bbe565b9050602081019050919050565b82818337600083830152505050565b6000612fac612fa784612f59565b612f3e565b905082815260208101848484011115612fc857612fc7612ed9565b5b612fd3848285612f8a565b509392505050565b600082601f830112612ff057612fef612ed4565b5b8135613000848260208601612f99565b91505092915050565b6000806000806080858703121561302357613022612aaa565b5b600061303187828801612d00565b945050602061304287828801612d00565b935050604061305387828801612c4b565b925050606085013567ffffffffffffffff81111561307457613073612aaf565b5b61308087828801612fdb565b91505092959194509250565b60006bffffffffffffffffffffffff82169050919050565b6130ad8161308c565b81146130b857600080fd5b50565b6000813590506130ca816130a4565b92915050565b6000602082840312156130e6576130e5612aaa565b5b60006130f4848285016130bb565b91505092915050565b6000806040838503121561311457613113612aaa565b5b600061312285828601612d00565b925050602061313385828601612d00565b9150509250929050565b7f4e487b7100000000000000000000000000000000000000000000000000000000600052602260045260246000fd5b6000600282049050600182168061318457607f821691505b6020821081036131975761319661313d565b5b50919050565b7f4552433732313a20617070726f76616c20746f2063757272656e74206f776e6560008201527f7200000000000000000000000000000000000000000000000000000000000000602082015250565b60006131f9602183612b7a565b91506132048261319d565b604082019050919050565b60006020820190508181036000830152613228816131ec565b9050919050565b7f4552433732313a20617070726f76652063616c6c6572206973206e6f7420746f60008201527f6b656e206f776e6572206f7220617070726f76656420666f7220616c6c000000602082015250565b600061328b603d83612b7a565b91506132968261322f565b604082019050919050565b600060208201905081810360008301526132ba8161327e565b9050919050565b7f4552433732313a2063616c6c6572206973206e6f7420746f6b656e206f776e6560008201527f72206f7220617070726f76656400000000000000000000000000000000000000602082015250565b600061331d602d83612b7a565b9150613328826132c1565b604082019050919050565b6000602082019050818103600083015261334c81613310565b9050919050565b7f4e487b7100000000000000000000000000000000000000000000000000000000600052601160045260246000fd5b600061338d82612c2a565b915061339883612c2a565b9250817fffffffffffffffffffffffffffffffffffffffffffffffffffffffffffffffff04831182151516156133d1576133d0613353565b5b828202905092915050565b7f4e487b7100000000000000000000000000000000000000000000000000000000600052601260045260246000fd5b600061341682612c2a565b915061342183612c2a565b925082613431576134306133dc565b5b828204905092915050565b7f496e73756666696369656e742066756e64730000000000000000000000000000600082015250565b6000613472601283612b7a565b915061347d8261343c565b602082019050919050565b600060208201905081810360008301526134a181613465565b9050919050565b7f546f6b656e20555249206e6f7420736574207965740000000000000000000000600082015250565b60006134de601583612b7a565b91506134e9826134a8565b602082019050919050565b6000602082019050818103600083015261350d816134d1565b9050919050565b7f436f6e7472616374204c6f636b65640000000000000000000000000000000000600082015250565b600061354a600f83612b7a565b915061355582613514565b602082019050919050565b600060208201905081810360008301526135798161353d565b9050919050565b7f4552433732313a20696e76616c696420746f6b656e2049440000000000000000600082015250565b60006135b6601883612b7a565b91506135c182613580565b602082019050919050565b600060208201905081810360008301526135e5816135a9565b9050919050565b7f4552433732313a2061646472657373207a65726f206973206e6f74206120766160008201527f6c6964206f776e65720000000000000000000000000000000000000000000000602082015250565b6000613648602983612b7a565b9150613653826135ec565b604082019050919050565b600060208201905081810360008301526136778161363b565b9050919050565b600081905092915050565b600061369482612b6f565b61369e818561367e565b93506136ae818560208601612b8b565b80840191505092915050565b60006136c68285613689565b91506136d28284613689565b91508190509392505050565b7f4f776e61626c653a206e6577206f776e657220697320746865207a65726f206160008201527f6464726573730000000000000000000000000000000000000000000000000000602082015250565b600061373a602683612b7a565b9150613745826136de565b604082019050919050565b600060208201905081810360008301526137698161372d565b9050919050565b7f4552433732313a207472616e736665722066726f6d20696e636f72726563742060008201527f6f776e6572000000000000000000000000000000000000000000000000000000602082015250565b60006137cc602583612b7a565b91506137d782613770565b604082019050919050565b600060208201905081810360008301526137fb816137bf565b9050919050565b7f4552433732313a207472616e7366657220746f20746865207a65726f2061646460008201527f7265737300000000000000000000000000000000000000000000000000000000602082015250565b600061385e602483612b7a565b915061386982613802565b604082019050919050565b6000602082019050818103600083015261388d81613851565b9050919050565b7f4f776e61626c653a2063616c6c6572206973206e6f7420746865206f776e6572600082015250565b60006138ca602083612b7a565b91506138d582613894565b602082019050919050565b600060208201905081810360008301526138f9816138bd565b9050919050565b60008151905061390f81612ce9565b92915050565b60006020828403121561392b5761392a612aaa565b5b600061393984828501613900565b91505092915050565b7f4e487b7100000000000000000000000000000000000000000000000000000000600052603260045260246000fd5b600061397c82612c2a565b915061398783612c2a565b9250827fffffffffffffffffffffffffffffffffffffffffffffffffffffffffffffffff038211156139bc576139bb613353565b5b828201905092915050565b600081519050919050565b600082825260208201905092915050565b6000819050602082019050919050565b6139fc81612cad565b82525050565b6000613a0e83836139f3565b60208301905092915050565b6000602082019050919050565b6000613a32826139c7565b613a3c81856139d2565b9350613a47836139e3565b8060005b83811015613a78578151613a5f8882613a02565b9750613a6a83613a1a565b925050600181019050613a4b565b5085935050505092915050565b6000608082019050613a9a6000830187612d55565b8181036020830152613aac8186613a27565b9050613abb6040830185612cbf565b613ac86060830184612d55565b95945050505050565b600067ffffffffffffffff821115613aec57613aeb612ede565b5b602082029050602081019050919050565b600080fd5b600081519050613b1181612c34565b92915050565b6000613b2a613b2584613ad1565b612f3e565b90508083825260208201905060208402830185811115613b4d57613b4c613afd565b5b835b81811015613b765780613b628882613b02565b845260208401935050602081019050613b4f565b5050509392505050565b600082601f830112613b9557613b94612ed4565b5b8151613ba5848260208601613b17565b91505092915050565b600060208284031215613bc457613bc3612aaa565b5b600082015167ffffffffffffffff811115613be257613be1612aaf565b5b613bee84828501613b80565b91505092915050565b7f45524337323155524953746f726167653a2055524920736574206f66206e6f6e60008201527f6578697374656e7420746f6b656e000000000000000000000000000000000000602082015250565b6000613c53602e83612b7a565b9150613c5e82613bf7565b604082019050919050565b60006020820190508181036000830152613c8281613c46565b9050919050565b60008190508160005260206000209050919050565b60006020601f8301049050919050565b600082821b905092915050565b600060088302613ceb7fffffffffffffffffffffffffffffffffffffffffffffffffffffffffffffffff82613cae565b613cf58683613cae565b95508019841693508086168417925050509392505050565b6000819050919050565b6000613d32613d2d613d2884612c2a565b613d0d565b612c2a565b9050919050565b6000819050919050565b613d4c83613d17565b613d60613d5882613d39565b848454613cbb565b825550505050565b600090565b613d75613d68565b613d80818484613d43565b505050565b5b81811015613da457613d99600082613d6d565b600181019050613d86565b5050565b601f821115613de957613dba81613c89565b613dc384613c9e565b81016020851015613dd2578190505b613de6613dde85613c9e565b830182613d85565b50505b505050565b600082821c905092915050565b6000613e0c60001984600802613dee565b1980831691505092915050565b6000613e258383613dfb565b9150826002028217905092915050565b613e3e82612b6f565b67ffffffffffffffff811115613e5757613e56612ede565b5b613e61825461316c565b613e6c828285613da8565b600060209050601f831160018114613e9f5760008415613e8d578287015190505b613e978582613e19565b865550613eff565b601f198416613ead86613c89565b60005b82811015613ed557848901518255600182019150602085019450602081019050613eb0565b86831015613ef25784890151613eee601f891682613dfb565b8355505b6001600288020188555050505b505050505050565b7f4552433732313a20617070726f766520746f2063616c6c657200000000000000600082015250565b6000613f3d601983612b7a565b9150613f4882613f07565b602082019050919050565b60006020820190508181036000830152613f6c81613f30565b9050919050565b7f4552433732313a207472616e7366657220746f206e6f6e20455243373231526560008201527f63656976657220696d706c656d656e7465720000000000000000000000000000602082015250565b6000613fcf603283612b7a565b9150613fda82613f73565b604082019050919050565b60006020820190508181036000830152613ffe81613fc2565b9050919050565b7f455243323938313a20726f79616c7479206665652077696c6c2065786365656460008201527f2073616c65507269636500000000000000000000000000000000000000000000602082015250565b6000614061602a83612b7a565b915061406c82614005565b604082019050919050565b6000602082019050818103600083015261409081614054565b9050919050565b7f455243323938313a20696e76616c696420726563656976657200000000000000600082015250565b60006140cd601983612b7a565b91506140d882614097565b602082019050919050565b600060208201905081810360008301526140fc816140c0565b9050919050565b600081519050919050565b600082825260208201905092915050565b600061412a82614103565b614134818561410e565b9350614144818560208601612b8b565b61414d81612bbe565b840191505092915050565b600060808201905061416d6000830187612cbf565b61417a6020830186612cbf565b6141876040830185612d55565b8181036060830152614199818461411f565b905095945050505050565b6000815190506141b381612ae0565b92915050565b6000602082840312156141cf576141ce612aaa565b5b60006141dd848285016141a4565b91505092915050565b7f4552433732313a206d696e7420746f20746865207a65726f2061646472657373600082015250565b600061421c602083612b7a565b9150614227826141e6565b602082019050919050565b6000602082019050818103600083015261424b8161420f565b9050919050565b7f4552433732313a20746f6b656e20616c7265616479206d696e74656400000000600082015250565b6000614288601c83612b7a565b915061429382614252565b602082019050919050565b600060208201905081810360008301526142b78161427b565b905091905056fea2646970667358221220540eee8232d3bb9464db09860fea5857de123aba56bbe3dbd1b9a9781ea7e99f64736f6c634300080f0033",
  "immutableReferences": {},
  "source": "// SPDX-License-Identifier: MIT\npragma solidity >=0.4.22 <0.9.0;\n\nimport \"@openzeppelin/contracts/token/common/ERC2981.sol\";\nimport \"@openzeppelin/contracts/token/ERC721/extensions/ERC721URIStorage.sol\";\nimport \"@openzeppelin/contracts/access/Ownable.sol\";\nimport \"@openzeppelin/contracts/utils/Counters.sol\";\nimport \"@openzeppelin/contracts/token/ERC20/IERC20.sol\";\n\nimport \"@uniswap/v2-periphery/contracts/interfaces/IUniswapV2Router02.sol\";\n\n\ncontract LaelapsMasterKey is ERC721URIStorage, ERC2981, Ownable {\n  using Counters for Counters.Counter;\n  Counters.Counter private _tokenIds;\n  uint256 private mintCost = 100000;\n  string public tokenURI;\n  uint256 public locked = 0;\n  address private constant UNISWAP_ROUTER_ADDRESS = 0x7a250d5630B4cF539739dF2C5dAcb4c659F2488D;\n  // address public LAELAPS_ADDRESS = 0x811a10657440928c9cda3580eb54f271ac4b9a19;\n  address public LINK = 0x326C977E6efc84E512bB9C30f76E30c160eD06FB;\n  IUniswapV2Router02 private uniswapRouter;\n\n  \n  constructor(string memory _uri) ERC721(\"LaelapsMasterKey V1\", \"LMK\") {\n    _setDefaultRoyalty(msg.sender, 100);\n    tokenURI = _uri;\n    uniswapRouter = IUniswapV2Router02(UNISWAP_ROUTER_ADDRESS);\n  }\n\n  function setMintPrice(uint256 _mintPrice) public onlyOwner {\n    mintCost = _mintPrice;\n  }\n\n  function setRoyalty(uint96 _royalty) public onlyOwner {\n    _setDefaultRoyalty(msg.sender, _royalty);\n  }\n\n  function getBalance() public view returns (uint256) {\n    return address(this).balance;\n  }\n\n  function supportsInterface(bytes4 interfaceId)\n    public view virtual override(ERC2981, ERC721URIStorage)\n    returns (bool) {\n      return super.supportsInterface(interfaceId);\n  }\n\n  function _burn(uint256 tokenId) internal virtual override {\n    super._burn(tokenId);\n    _resetTokenRoyalty(tokenId);\n  }\n\n  function burnNFT(uint256 tokenId)\n    public onlyOwner {\n      _burn(tokenId);\n  }\n\n  function lock(uint256 _lock) public onlyOwner {\n    if (_lock == 0 || _lock == 1){\n      locked = _lock;\n    }\n  }\n\n  function mintNFT(address recipient)\n    public payable \n    returns (uint256) {\n      require(msg.value >= mintCost, \"Insufficient funds\");\n      require(bytes(tokenURI).length > 0, \"Token URI not set yet\");\n      require(locked != 1, \"Contract Locked\");\n      buyAndBurnLaelaps();\n      uint256 newItemId = _tokenIds.current();\n      _tokenIds.increment();\n      _safeMint(recipient, newItemId);\n      _setTokenURI(newItemId, tokenURI);\n      return newItemId;\n  }\n\n  function buyAndBurnLaelaps() internal {\n    address[] memory path = new address[](2);\n    address WETH_ADDRESS = uniswapRouter.WETH();\n    path[0] = WETH_ADDRESS;\n    path[1] = LINK;\n    uint amountOutMin = address(this).balance;\n    address to = address(this);\n    uint deadline = block.timestamp + 100;\n\n    uniswapRouter.swapExactETHForTokens(amountOutMin, path, to, deadline);\n\n  }\n  \n\n}\n\n\n",
  "sourcePath": "/Users/Jesse.Jacob/Documents/laelaps/nft-royalty/contracts/LaelapsMasterKey.sol",
  "compiler": {
    "name": "solc",
    "version": "0.8.15+commit.e14f2714.Emscripten.clang"
  },
  "schemaVersion": "3.4.12",
  "updatedAt": "2023-06-03T00:10:52.155Z",
  "networkType": "ethereum",
  "devdoc": {
    "kind": "dev",
    "methods": {
      "approve(address,uint256)": {
        "details": "See {IERC721-approve}."
      },
      "balanceOf(address)": {
        "details": "See {IERC721-balanceOf}."
      },
      "getApproved(uint256)": {
        "details": "See {IERC721-getApproved}."
      },
      "isApprovedForAll(address,address)": {
        "details": "See {IERC721-isApprovedForAll}."
      },
      "name()": {
        "details": "See {IERC721Metadata-name}."
      },
      "owner()": {
        "details": "Returns the address of the current owner."
      },
      "ownerOf(uint256)": {
        "details": "See {IERC721-ownerOf}."
      },
      "renounceOwnership()": {
        "details": "Leaves the contract without owner. It will not be possible to call `onlyOwner` functions. Can only be called by the current owner. NOTE: Renouncing ownership will leave the contract without an owner, thereby disabling any functionality that is only available to the owner."
      },
      "royaltyInfo(uint256,uint256)": {
        "details": "Returns how much royalty is owed and to whom, based on a sale price that may be denominated in any unit of exchange. The royalty amount is denominated and should be paid in that same unit of exchange."
      },
      "safeTransferFrom(address,address,uint256)": {
        "details": "See {IERC721-safeTransferFrom}."
      },
      "safeTransferFrom(address,address,uint256,bytes)": {
        "details": "See {IERC721-safeTransferFrom}."
      },
      "setApprovalForAll(address,bool)": {
        "details": "See {IERC721-setApprovalForAll}."
      },
      "symbol()": {
        "details": "See {IERC721Metadata-symbol}."
      },
      "tokenURI(uint256)": {
        "details": "See {IERC721Metadata-tokenURI}."
      },
      "transferFrom(address,address,uint256)": {
        "details": "See {IERC721-transferFrom}."
      },
      "transferOwnership(address)": {
        "details": "Transfers ownership of the contract to a new account (`newOwner`). Can only be called by the current owner."
      }
    },
    "version": 1
  },
  "userdoc": {
    "kind": "user",
    "methods": {},
    "version": 1
  }
}