{
  "contractName": "LaelapsMasterKey",
  "abi": [
    {
      "inputs": [
        {
          "internalType": "string",
          "name": "_uri",
          "type": "string"
        }
      ],
      "stateMutability": "nonpayable",
      "type": "constructor"
    },
    {
      "anonymous": false,
      "inputs": [
        {
          "indexed": true,
          "internalType": "address",
          "name": "owner",
          "type": "address"
        },
        {
          "indexed": true,
          "internalType": "address",
          "name": "approved",
          "type": "address"
        },
        {
          "indexed": true,
          "internalType": "uint256",
          "name": "tokenId",
          "type": "uint256"
        }
      ],
      "name": "Approval",
      "type": "event"
    },
    {
      "anonymous": false,
      "inputs": [
        {
          "indexed": true,
          "internalType": "address",
          "name": "owner",
          "type": "address"
        },
        {
          "indexed": true,
          "internalType": "address",
          "name": "operator",
          "type": "address"
        },
        {
          "indexed": false,
          "internalType": "bool",
          "name": "approved",
          "type": "bool"
        }
      ],
      "name": "ApprovalForAll",
      "type": "event"
    },
    {
      "anonymous": false,
      "inputs": [
        {
          "indexed": false,
          "internalType": "uint256",
          "name": "_fromTokenId",
          "type": "uint256"
        },
        {
          "indexed": false,
          "internalType": "uint256",
          "name": "_toTokenId",
          "type": "uint256"
        }
      ],
      "name": "BatchMetadataUpdate",
      "type": "event"
    },
    {
      "anonymous": false,
      "inputs": [
        {
          "indexed": false,
          "internalType": "uint256",
          "name": "_tokenId",
          "type": "uint256"
        }
      ],
      "name": "MetadataUpdate",
      "type": "event"
    },
    {
      "anonymous": false,
      "inputs": [
        {
          "indexed": true,
          "internalType": "address",
          "name": "previousOwner",
          "type": "address"
        },
        {
          "indexed": true,
          "internalType": "address",
          "name": "newOwner",
          "type": "address"
        }
      ],
      "name": "OwnershipTransferred",
      "type": "event"
    },
    {
      "anonymous": false,
      "inputs": [
        {
          "indexed": true,
          "internalType": "address",
          "name": "from",
          "type": "address"
        },
        {
          "indexed": true,
          "internalType": "address",
          "name": "to",
          "type": "address"
        },
        {
          "indexed": true,
          "internalType": "uint256",
          "name": "tokenId",
          "type": "uint256"
        }
      ],
      "name": "Transfer",
      "type": "event"
    },
    {
      "inputs": [],
      "name": "LINK",
      "outputs": [
        {
          "internalType": "address",
          "name": "",
          "type": "address"
        }
      ],
      "stateMutability": "view",
      "type": "function",
      "constant": true
    },
    {
      "inputs": [
        {
          "internalType": "address",
          "name": "to",
          "type": "address"
        },
        {
          "internalType": "uint256",
          "name": "tokenId",
          "type": "uint256"
        }
      ],
      "name": "approve",
      "outputs": [],
      "stateMutability": "nonpayable",
      "type": "function"
    },
    {
      "inputs": [
        {
          "internalType": "address",
          "name": "owner",
          "type": "address"
        }
      ],
      "name": "balanceOf",
      "outputs": [
        {
          "internalType": "uint256",
          "name": "",
          "type": "uint256"
        }
      ],
      "stateMutability": "view",
      "type": "function",
      "constant": true
    },
    {
      "inputs": [
        {
          "internalType": "uint256",
          "name": "tokenId",
          "type": "uint256"
        }
      ],
      "name": "getApproved",
      "outputs": [
        {
          "internalType": "address",
          "name": "",
          "type": "address"
        }
      ],
      "stateMutability": "view",
      "type": "function",
      "constant": true
    },
    {
      "inputs": [
        {
          "internalType": "address",
          "name": "owner",
          "type": "address"
        },
        {
          "internalType": "address",
          "name": "operator",
          "type": "address"
        }
      ],
      "name": "isApprovedForAll",
      "outputs": [
        {
          "internalType": "bool",
          "name": "",
          "type": "bool"
        }
      ],
      "stateMutability": "view",
      "type": "function",
      "constant": true
    },
    {
      "inputs": [],
      "name": "locked",
      "outputs": [
        {
          "internalType": "uint256",
          "name": "",
          "type": "uint256"
        }
      ],
      "stateMutability": "view",
      "type": "function",
      "constant": true
    },
    {
      "inputs": [],
      "name": "name",
      "outputs": [
        {
          "internalType": "string",
          "name": "",
          "type": "string"
        }
      ],
      "stateMutability": "view",
      "type": "function",
      "constant": true
    },
    {
      "inputs": [],
      "name": "owner",
      "outputs": [
        {
          "internalType": "address",
          "name": "",
          "type": "address"
        }
      ],
      "stateMutability": "view",
      "type": "function",
      "constant": true
    },
    {
      "inputs": [
        {
          "internalType": "uint256",
          "name": "tokenId",
          "type": "uint256"
        }
      ],
      "name": "ownerOf",
      "outputs": [
        {
          "internalType": "address",
          "name": "",
          "type": "address"
        }
      ],
      "stateMutability": "view",
      "type": "function",
      "constant": true
    },
    {
      "inputs": [],
      "name": "renounceOwnership",
      "outputs": [],
      "stateMutability": "nonpayable",
      "type": "function"
    },
    {
      "inputs": [
        {
          "internalType": "uint256",
          "name": "tokenId",
          "type": "uint256"
        },
        {
          "internalType": "uint256",
          "name": "salePrice",
          "type": "uint256"
        }
      ],
      "name": "royaltyInfo",
      "outputs": [
        {
          "internalType": "address",
          "name": "",
          "type": "address"
        },
        {
          "internalType": "uint256",
          "name": "",
          "type": "uint256"
        }
      ],
      "stateMutability": "view",
      "type": "function",
      "constant": true
    },
    {
      "inputs": [
        {
          "internalType": "address",
          "name": "from",
          "type": "address"
        },
        {
          "internalType": "address",
          "name": "to",
          "type": "address"
        },
        {
          "internalType": "uint256",
          "name": "tokenId",
          "type": "uint256"
        }
      ],
      "name": "safeTransferFrom",
      "outputs": [],
      "stateMutability": "nonpayable",
      "type": "function"
    },
    {
      "inputs": [
        {
          "internalType": "address",
          "name": "from",
          "type": "address"
        },
        {
          "internalType": "address",
          "name": "to",
          "type": "address"
        },
        {
          "internalType": "uint256",
          "name": "tokenId",
          "type": "uint256"
        },
        {
          "internalType": "bytes",
          "name": "data",
          "type": "bytes"
        }
      ],
      "name": "safeTransferFrom",
      "outputs": [],
      "stateMutability": "nonpayable",
      "type": "function"
    },
    {
      "inputs": [
        {
          "internalType": "address",
          "name": "operator",
          "type": "address"
        },
        {
          "internalType": "bool",
          "name": "approved",
          "type": "bool"
        }
      ],
      "name": "setApprovalForAll",
      "outputs": [],
      "stateMutability": "nonpayable",
      "type": "function"
    },
    {
      "inputs": [],
      "name": "symbol",
      "outputs": [
        {
          "internalType": "string",
          "name": "",
          "type": "string"
        }
      ],
      "stateMutability": "view",
      "type": "function",
      "constant": true
    },
    {
      "inputs": [],
      "name": "tokenURI",
      "outputs": [
        {
          "internalType": "string",
          "name": "",
          "type": "string"
        }
      ],
      "stateMutability": "view",
      "type": "function",
      "constant": true
    },
    {
      "inputs": [
        {
          "internalType": "uint256",
          "name": "tokenId",
          "type": "uint256"
        }
      ],
      "name": "tokenURI",
      "outputs": [
        {
          "internalType": "string",
          "name": "",
          "type": "string"
        }
      ],
      "stateMutability": "view",
      "type": "function",
      "constant": true
    },
    {
      "inputs": [
        {
          "internalType": "address",
          "name": "from",
          "type": "address"
        },
        {
          "internalType": "address",
          "name": "to",
          "type": "address"
        },
        {
          "internalType": "uint256",
          "name": "tokenId",
          "type": "uint256"
        }
      ],
      "name": "transferFrom",
      "outputs": [],
      "stateMutability": "nonpayable",
      "type": "function"
    },
    {
      "inputs": [
        {
          "internalType": "address",
          "name": "newOwner",
          "type": "address"
        }
      ],
      "name": "transferOwnership",
      "outputs": [],
      "stateMutability": "nonpayable",
      "type": "function"
    },
    {
      "inputs": [
        {
          "internalType": "uint256",
          "name": "_mintPrice",
          "type": "uint256"
        }
      ],
      "name": "setMintPrice",
      "outputs": [],
      "stateMutability": "nonpayable",
      "type": "function"
    },
    {
      "inputs": [
        {
          "internalType": "uint96",
          "name": "_royalty",
          "type": "uint96"
        }
      ],
      "name": "setRoyalty",
      "outputs": [],
      "stateMutability": "nonpayable",
      "type": "function"
    },
    {
      "inputs": [],
      "name": "getBalance",
      "outputs": [
        {
          "internalType": "uint256",
          "name": "",
          "type": "uint256"
        }
      ],
      "stateMutability": "view",
      "type": "function",
      "constant": true
    },
    {
      "inputs": [
        {
          "internalType": "bytes4",
          "name": "interfaceId",
          "type": "bytes4"
        }
      ],
      "name": "supportsInterface",
      "outputs": [
        {
          "internalType": "bool",
          "name": "",
          "type": "bool"
        }
      ],
      "stateMutability": "view",
      "type": "function",
      "constant": true
    },
    {
      "inputs": [
        {
          "internalType": "uint256",
          "name": "tokenId",
          "type": "uint256"
        }
      ],
      "name": "burnNFT",
      "outputs": [],
      "stateMutability": "nonpayable",
      "type": "function"
    },
    {
      "inputs": [
        {
          "internalType": "uint256",
          "name": "_lock",
          "type": "uint256"
        }
      ],
      "name": "lock",
      "outputs": [],
      "stateMutability": "nonpayable",
      "type": "function"
    },
    {
      "inputs": [
        {
          "internalType": "address",
          "name": "recipient",
          "type": "address"
        }
      ],
      "name": "mintNFT",
      "outputs": [
        {
          "internalType": "uint256",
          "name": "",
          "type": "uint256"
        }
      ],
      "stateMutability": "payable",
      "type": "function",
      "payable": true
    }
  ],
  "bytecode": "0x6080604052620186a0600b556000600d5573326c977e6efc84e512bb9c30f76e30c160ed06fb600e60006101000a81548173ffffffffffffffffffffffffffffffffffffffff021916908373ffffffffffffffffffffffffffffffffffffffff1602179055503480156200007257600080fd5b5060405162004eb838038062004eb88339818101604052810190620000989190620005e3565b6040518060400160405280601381526020017f4c61656c6170734d61737465724b6579205631000000000000000000000000008152506040518060400160405280600381526020017f4c4d4b000000000000000000000000000000000000000000000000000000000081525081600090816200011591906200087f565b5080600190816200012791906200087f565b5050506200014a6200013e620001cb60201b60201c565b620001d360201b60201c565b6200015d3360646200029960201b60201c565b80600c90816200016e91906200087f565b50737a250d5630b4cf539739df2c5dacb4c659f2488d600f60006101000a81548173ffffffffffffffffffffffffffffffffffffffff021916908373ffffffffffffffffffffffffffffffffffffffff1602179055505062000a81565b600033905090565b6000600960009054906101000a900473ffffffffffffffffffffffffffffffffffffffff16905081600960006101000a81548173ffffffffffffffffffffffffffffffffffffffff021916908373ffffffffffffffffffffffffffffffffffffffff1602179055508173ffffffffffffffffffffffffffffffffffffffff168173ffffffffffffffffffffffffffffffffffffffff167f8be0079c531659141344cd1fd0a4f28419497f9722a3daafe3b4186f6b6457e060405160405180910390a35050565b620002a96200043c60201b60201c565b6bffffffffffffffffffffffff16816bffffffffffffffffffffffff1611156200030a576040517f08c379a00000000000000000000000000000000000000000000000000000000081526004016200030190620009ed565b60405180910390fd5b600073ffffffffffffffffffffffffffffffffffffffff168273ffffffffffffffffffffffffffffffffffffffff16036200037c576040517f08c379a0000000000000000000000000000000000000000000000000000000008152600401620003739062000a5f565b60405180910390fd5b60405180604001604052808373ffffffffffffffffffffffffffffffffffffffff168152602001826bffffffffffffffffffffffff16815250600760008201518160000160006101000a81548173ffffffffffffffffffffffffffffffffffffffff021916908373ffffffffffffffffffffffffffffffffffffffff16021790555060208201518160000160146101000a8154816bffffffffffffffffffffffff02191690836bffffffffffffffffffffffff1602179055509050505050565b6000612710905090565b6000604051905090565b600080fd5b600080fd5b600080fd5b600080fd5b6000601f19601f8301169050919050565b7f4e487b7100000000000000000000000000000000000000000000000000000000600052604160045260246000fd5b620004af8262000464565b810181811067ffffffffffffffff82111715620004d157620004d062000475565b5b80604052505050565b6000620004e662000446565b9050620004f48282620004a4565b919050565b600067ffffffffffffffff82111562000517576200051662000475565b5b620005228262000464565b9050602081019050919050565b60005b838110156200054f57808201518184015260208101905062000532565b838111156200055f576000848401525b50505050565b60006200057c6200057684620004f9565b620004da565b9050828152602081018484840111156200059b576200059a6200045f565b5b620005a88482856200052f565b509392505050565b600082601f830112620005c857620005c76200045a565b5b8151620005da84826020860162000565565b91505092915050565b600060208284031215620005fc57620005fb62000450565b5b600082015167ffffffffffffffff8111156200061d576200061c62000455565b5b6200062b84828501620005b0565b91505092915050565b600081519050919050565b7f4e487b7100000000000000000000000000000000000000000000000000000000600052602260045260246000fd5b600060028204905060018216806200068757607f821691505b6020821081036200069d576200069c6200063f565b5b50919050565b60008190508160005260206000209050919050565b60006020601f8301049050919050565b600082821b905092915050565b600060088302620007077fffffffffffffffffffffffffffffffffffffffffffffffffffffffffffffffff82620006c8565b620007138683620006c8565b95508019841693508086168417925050509392505050565b6000819050919050565b6000819050919050565b6000620007606200075a62000754846200072b565b62000735565b6200072b565b9050919050565b6000819050919050565b6200077c836200073f565b620007946200078b8262000767565b848454620006d5565b825550505050565b600090565b620007ab6200079c565b620007b881848462000771565b505050565b5b81811015620007e057620007d4600082620007a1565b600181019050620007be565b5050565b601f8211156200082f57620007f981620006a3565b6200080484620006b8565b8101602085101562000814578190505b6200082c6200082385620006b8565b830182620007bd565b50505b505050565b600082821c905092915050565b6000620008546000198460080262000834565b1980831691505092915050565b60006200086f838362000841565b9150826002028217905092915050565b6200088a8262000634565b67ffffffffffffffff811115620008a657620008a562000475565b5b620008b282546200066e565b620008bf828285620007e4565b600060209050601f831160018114620008f75760008415620008e2578287015190505b620008ee858262000861565b8655506200095e565b601f1984166200090786620006a3565b60005b8281101562000931578489015182556001820191506020850194506020810190506200090a565b868310156200095157848901516200094d601f89168262000841565b8355505b6001600288020188555050505b505050505050565b600082825260208201905092915050565b7f455243323938313a20726f79616c7479206665652077696c6c2065786365656460008201527f2073616c65507269636500000000000000000000000000000000000000000000602082015250565b6000620009d5602a8362000966565b9150620009e28262000977565b604082019050919050565b6000602082019050818103600083015262000a0881620009c6565b9050919050565b7f455243323938313a20696e76616c696420726563656976657200000000000000600082015250565b600062000a4760198362000966565b915062000a548262000a0f565b602082019050919050565b6000602082019050818103600083015262000a7a8162000a38565b9050919050565b6144278062000a916000396000f3fe6080604052600436106101815760003560e01c806370a08231116100d1578063c87b56dd1161008a578063dd46706411610064578063dd46706414610588578063e985e9c5146105b1578063f2fde38b146105ee578063f4a0a5281461061757610181565b8063c87b56dd146104f7578063cac9266914610534578063cf3090121461055d57610181565b806370a08231146103fb578063715018a6146104385780638da5cb5b1461044f57806395d89b411461047a578063a22cb465146104a5578063b88d4fde146104ce57610181565b806323b872dd1161013e5780633c130d90116101185780633c130d901461033a57806342842e0e1461036557806354ba0f271461038e5780636352211e146103be57610181565b806323b872dd146102aa5780632890e0d7146102d35780632a55205a146102fc57610181565b806301ffc9a71461018657806306fdde03146101c3578063081812fc146101ee578063095ea7b31461022b57806312065fe0146102545780631b6b6d231461027f575b600080fd5b34801561019257600080fd5b506101ad60048036038101906101a89190612b9f565b610640565b6040516101ba9190612be7565b60405180910390f35b3480156101cf57600080fd5b506101d8610652565b6040516101e59190612c9b565b60405180910390f35b3480156101fa57600080fd5b5061021560048036038101906102109190612cf3565b6106e4565b6040516102229190612d61565b60405180910390f35b34801561023757600080fd5b50610252600480360381019061024d9190612da8565b61072a565b005b34801561026057600080fd5b50610269610841565b6040516102769190612df7565b60405180910390f35b34801561028b57600080fd5b50610294610849565b6040516102a19190612d61565b60405180910390f35b3480156102b657600080fd5b506102d160048036038101906102cc9190612e12565b61086f565b005b3480156102df57600080fd5b506102fa60048036038101906102f59190612cf3565b6108cf565b005b34801561030857600080fd5b50610323600480360381019061031e9190612e65565b6108e3565b604051610331929190612ea5565b60405180910390f35b34801561034657600080fd5b5061034f610acd565b60405161035c9190612c9b565b60405180910390f35b34801561037157600080fd5b5061038c60048036038101906103879190612e12565b610b5b565b005b6103a860048036038101906103a39190612ece565b610b7b565b6040516103b59190612df7565b60405180910390f35b3480156103ca57600080fd5b506103e560048036038101906103e09190612cf3565b610d1f565b6040516103f29190612d61565b60405180910390f35b34801561040757600080fd5b50610422600480360381019061041d9190612ece565b610da5565b60405161042f9190612df7565b60405180910390f35b34801561044457600080fd5b5061044d610e5c565b005b34801561045b57600080fd5b50610464610e70565b6040516104719190612d61565b60405180910390f35b34801561048657600080fd5b5061048f610e9a565b60405161049c9190612c9b565b60405180910390f35b3480156104b157600080fd5b506104cc60048036038101906104c79190612f27565b610f2c565b005b3480156104da57600080fd5b506104f560048036038101906104f0919061309c565b610f42565b005b34801561050357600080fd5b5061051e60048036038101906105199190612cf3565b610fa4565b60405161052b9190612c9b565b60405180910390f35b34801561054057600080fd5b5061055b60048036038101906105569190613163565b6110b6565b005b34801561056957600080fd5b506105726110cb565b60405161057f9190612df7565b60405180910390f35b34801561059457600080fd5b506105af60048036038101906105aa9190612cf3565b6110d1565b005b3480156105bd57600080fd5b506105d860048036038101906105d39190613190565b6110f8565b6040516105e59190612be7565b60405180910390f35b3480156105fa57600080fd5b5061061560048036038101906106109190612ece565b61118c565b005b34801561062357600080fd5b5061063e60048036038101906106399190612cf3565b61120f565b005b600061064b82611221565b9050919050565b606060008054610661906131ff565b80601f016020809104026020016040519081016040528092919081815260200182805461068d906131ff565b80156106da5780601f106106af576101008083540402835291602001916106da565b820191906000526020600020905b8154815290600101906020018083116106bd57829003601f168201915b5050505050905090565b60006106ef8261129b565b6004600083815260200190815260200160002060009054906101000a900473ffffffffffffffffffffffffffffffffffffffff169050919050565b600061073582610d1f565b90508073ffffffffffffffffffffffffffffffffffffffff168373ffffffffffffffffffffffffffffffffffffffff16036107a5576040517f08c379a000000000000000000000000000000000000000000000000000000000815260040161079c906132a2565b60405180910390fd5b8073ffffffffffffffffffffffffffffffffffffffff166107c46112e6565b73ffffffffffffffffffffffffffffffffffffffff1614806107f357506107f2816107ed6112e6565b6110f8565b5b610832576040517f08c379a000000000000000000000000000000000000000000000000000000000815260040161082990613334565b60405180910390fd5b61083c83836112ee565b505050565b600047905090565b600e60009054906101000a900473ffffffffffffffffffffffffffffffffffffffff1681565b61088061087a6112e6565b826113a7565b6108bf576040517f08c379a00000000000000000000000000000000000000000000000000000000081526004016108b6906133c6565b60405180910390fd5b6108ca83838361143c565b505050565b6108d7611735565b6108e0816117b3565b50565b6000806000600860008681526020019081526020016000206040518060400160405290816000820160009054906101000a900473ffffffffffffffffffffffffffffffffffffffff1673ffffffffffffffffffffffffffffffffffffffff1673ffffffffffffffffffffffffffffffffffffffff1681526020016000820160149054906101000a90046bffffffffffffffffffffffff166bffffffffffffffffffffffff166bffffffffffffffffffffffff16815250509050600073ffffffffffffffffffffffffffffffffffffffff16816000015173ffffffffffffffffffffffffffffffffffffffff1603610a785760076040518060400160405290816000820160009054906101000a900473ffffffffffffffffffffffffffffffffffffffff1673ffffffffffffffffffffffffffffffffffffffff1673ffffffffffffffffffffffffffffffffffffffff1681526020016000820160149054906101000a90046bffffffffffffffffffffffff166bffffffffffffffffffffffff166bffffffffffffffffffffffff168152505090505b6000610a826117c8565b6bffffffffffffffffffffffff1682602001516bffffffffffffffffffffffff1686610aae9190613415565b610ab8919061349e565b90508160000151819350935050509250929050565b600c8054610ada906131ff565b80601f0160208091040260200160405190810160405280929190818152602001828054610b06906131ff565b8015610b535780601f10610b2857610100808354040283529160200191610b53565b820191906000526020600020905b815481529060010190602001808311610b3657829003601f168201915b505050505081565b610b7683838360405180602001604052806000815250610f42565b505050565b6000600b54341015610bc2576040517f08c379a0000000000000000000000000000000000000000000000000000000008152600401610bb99061351b565b60405180910390fd5b6000600c8054610bd1906131ff565b905011610c13576040517f08c379a0000000000000000000000000000000000000000000000000000000008152600401610c0a90613587565b60405180910390fd5b6001600d5403610c58576040517f08c379a0000000000000000000000000000000000000000000000000000000008152600401610c4f906135f3565b60405180910390fd5b610c606117d2565b6000610c6c600a611ad4565b9050610c78600a611ae2565b610c828382611af8565b610d1681600c8054610c93906131ff565b80601f0160208091040260200160405190810160405280929190818152602001828054610cbf906131ff565b8015610d0c5780601f10610ce157610100808354040283529160200191610d0c565b820191906000526020600020905b815481529060010190602001808311610cef57829003601f168201915b5050505050611b16565b80915050919050565b600080610d2b83611bba565b9050600073ffffffffffffffffffffffffffffffffffffffff168173ffffffffffffffffffffffffffffffffffffffff1603610d9c576040517f08c379a0000000000000000000000000000000000000000000000000000000008152600401610d939061365f565b60405180910390fd5b80915050919050565b60008073ffffffffffffffffffffffffffffffffffffffff168273ffffffffffffffffffffffffffffffffffffffff1603610e15576040517f08c379a0000000000000000000000000000000000000000000000000000000008152600401610e0c906136f1565b60405180910390fd5b600360008373ffffffffffffffffffffffffffffffffffffffff1673ffffffffffffffffffffffffffffffffffffffff168152602001908152602001600020549050919050565b610e64611735565b610e6e6000611bf7565b565b6000600960009054906101000a900473ffffffffffffffffffffffffffffffffffffffff16905090565b606060018054610ea9906131ff565b80601f0160208091040260200160405190810160405280929190818152602001828054610ed5906131ff565b8015610f225780601f10610ef757610100808354040283529160200191610f22565b820191906000526020600020905b815481529060010190602001808311610f0557829003601f168201915b5050505050905090565b610f3e610f376112e6565b8383611cbd565b5050565b610f53610f4d6112e6565b836113a7565b610f92576040517f08c379a0000000000000000000000000000000000000000000000000000000008152600401610f89906133c6565b60405180910390fd5b610f9e84848484611e29565b50505050565b6060610faf8261129b565b6000600660008481526020019081526020016000208054610fcf906131ff565b80601f0160208091040260200160405190810160405280929190818152602001828054610ffb906131ff565b80156110485780601f1061101d57610100808354040283529160200191611048565b820191906000526020600020905b81548152906001019060200180831161102b57829003601f168201915b505050505090506000611059611e85565b9050600081510361106e5781925050506110b1565b6000825111156110a357808260405160200161108b92919061374d565b604051602081830303815290604052925050506110b1565b6110ac84611e9c565b925050505b919050565b6110be611735565b6110c83382611f04565b50565b600d5481565b6110d9611735565b60008114806110e85750600181145b156110f55780600d819055505b50565b6000600560008473ffffffffffffffffffffffffffffffffffffffff1673ffffffffffffffffffffffffffffffffffffffff16815260200190815260200160002060008373ffffffffffffffffffffffffffffffffffffffff1673ffffffffffffffffffffffffffffffffffffffff16815260200190815260200160002060009054906101000a900460ff16905092915050565b611194611735565b600073ffffffffffffffffffffffffffffffffffffffff168173ffffffffffffffffffffffffffffffffffffffff1603611203576040517f08c379a00000000000000000000000000000000000000000000000000000000081526004016111fa906137e3565b60405180910390fd5b61120c81611bf7565b50565b611217611735565b80600b8190555050565b60007f2a55205a000000000000000000000000000000000000000000000000000000007bffffffffffffffffffffffffffffffffffffffffffffffffffffffff1916827bffffffffffffffffffffffffffffffffffffffffffffffffffffffff19161480611294575061129382612099565b5b9050919050565b6112a4816120fa565b6112e3576040517f08c379a00000000000000000000000000000000000000000000000000000000081526004016112da9061365f565b60405180910390fd5b50565b600033905090565b816004600083815260200190815260200160002060006101000a81548173ffffffffffffffffffffffffffffffffffffffff021916908373ffffffffffffffffffffffffffffffffffffffff160217905550808273ffffffffffffffffffffffffffffffffffffffff1661136183610d1f565b73ffffffffffffffffffffffffffffffffffffffff167f8c5be1e5ebec7d5bd14f71427d1e84f3dd0314c0f7b2291e5b200ac8c7c3b92560405160405180910390a45050565b6000806113b383610d1f565b90508073ffffffffffffffffffffffffffffffffffffffff168473ffffffffffffffffffffffffffffffffffffffff1614806113f557506113f481856110f8565b5b8061143357508373ffffffffffffffffffffffffffffffffffffffff1661141b846106e4565b73ffffffffffffffffffffffffffffffffffffffff16145b91505092915050565b8273ffffffffffffffffffffffffffffffffffffffff1661145c82610d1f565b73ffffffffffffffffffffffffffffffffffffffff16146114b2576040517f08c379a00000000000000000000000000000000000000000000000000000000081526004016114a990613875565b60405180910390fd5b600073ffffffffffffffffffffffffffffffffffffffff168273ffffffffffffffffffffffffffffffffffffffff1603611521576040517f08c379a000000000000000000000000000000000000000000000000000000000815260040161151890613907565b60405180910390fd5b61152e838383600161213b565b8273ffffffffffffffffffffffffffffffffffffffff1661154e82610d1f565b73ffffffffffffffffffffffffffffffffffffffff16146115a4576040517f08c379a000000000000000000000000000000000000000000000000000000000815260040161159b90613875565b60405180910390fd5b6004600082815260200190815260200160002060006101000a81549073ffffffffffffffffffffffffffffffffffffffff02191690556001600360008573ffffffffffffffffffffffffffffffffffffffff1673ffffffffffffffffffffffffffffffffffffffff168152602001908152602001600020600082825403925050819055506001600360008473ffffffffffffffffffffffffffffffffffffffff1673ffffffffffffffffffffffffffffffffffffffff16815260200190815260200160002060008282540192505081905550816002600083815260200190815260200160002060006101000a81548173ffffffffffffffffffffffffffffffffffffffff021916908373ffffffffffffffffffffffffffffffffffffffff160217905550808273ffffffffffffffffffffffffffffffffffffffff168473ffffffffffffffffffffffffffffffffffffffff167fddf252ad1be2c89b69c2b068fc378daa952ba7f163c4a11628f55a4df523b3ef60405160405180910390a46117308383836001612141565b505050565b61173d6112e6565b73ffffffffffffffffffffffffffffffffffffffff1661175b610e70565b73ffffffffffffffffffffffffffffffffffffffff16146117b1576040517f08c379a00000000000000000000000000000000000000000000000000000000081526004016117a890613973565b60405180910390fd5b565b6117bc81612147565b6117c58161219a565b50565b6000612710905090565b6000600267ffffffffffffffff8111156117ef576117ee612f71565b5b60405190808252806020026020018201604052801561181d5781602001602082028036833780820191505090505b5090506000600a4761182f9190613993565b905060008111611874576040517f08c379a000000000000000000000000000000000000000000000000000000000815260040161186b90613a13565b60405180910390fd5b6000600f60009054906101000a900473ffffffffffffffffffffffffffffffffffffffff1673ffffffffffffffffffffffffffffffffffffffff1663ad5c46486040518163ffffffff1660e01b8152600401602060405180830381865afa1580156118e3573d6000803e3d6000fd5b505050506040513d601f19601f820116820180604052508101906119079190613a48565b9050808360008151811061191e5761191d613a75565b5b602002602001019073ffffffffffffffffffffffffffffffffffffffff16908173ffffffffffffffffffffffffffffffffffffffff1681525050600e60009054906101000a900473ffffffffffffffffffffffffffffffffffffffff168360018151811061198f5761198e613a75565b5b602002602001019073ffffffffffffffffffffffffffffffffffffffff16908173ffffffffffffffffffffffffffffffffffffffff168152505060008211611a0c576040517f08c379a0000000000000000000000000000000000000000000000000000000008152600401611a0390613a13565b60405180910390fd5b60003090506000606442611a209190613aa4565b9050600f60009054906101000a900473ffffffffffffffffffffffffffffffffffffffff1673ffffffffffffffffffffffffffffffffffffffff16637ff36ab585868886866040518663ffffffff1660e01b8152600401611a849493929190613bb8565b60006040518083038185885af1158015611aa2573d6000803e3d6000fd5b50505050506040513d6000823e3d601f19601f82011682018060405250810190611acc9190613ce1565b505050505050565b600081600001549050919050565b6001816000016000828254019250508190555050565b611b128282604051806020016040528060008152506121f9565b5050565b611b1f826120fa565b611b5e576040517f08c379a0000000000000000000000000000000000000000000000000000000008152600401611b5590613d9c565b60405180910390fd5b80600660008481526020019081526020016000209081611b7e9190613f68565b507ff8e1a15aba9398e019f0b49df1a4fde98ee17ae345cb5f6b5e2c27f5033e8ce782604051611bae9190612df7565b60405180910390a15050565b60006002600083815260200190815260200160002060009054906101000a900473ffffffffffffffffffffffffffffffffffffffff169050919050565b6000600960009054906101000a900473ffffffffffffffffffffffffffffffffffffffff16905081600960006101000a81548173ffffffffffffffffffffffffffffffffffffffff021916908373ffffffffffffffffffffffffffffffffffffffff1602179055508173ffffffffffffffffffffffffffffffffffffffff168173ffffffffffffffffffffffffffffffffffffffff167f8be0079c531659141344cd1fd0a4f28419497f9722a3daafe3b4186f6b6457e060405160405180910390a35050565b8173ffffffffffffffffffffffffffffffffffffffff168373ffffffffffffffffffffffffffffffffffffffff1603611d2b576040517f08c379a0000000000000000000000000000000000000000000000000000000008152600401611d2290614086565b60405180910390fd5b80600560008573ffffffffffffffffffffffffffffffffffffffff1673ffffffffffffffffffffffffffffffffffffffff16815260200190815260200160002060008473ffffffffffffffffffffffffffffffffffffffff1673ffffffffffffffffffffffffffffffffffffffff16815260200190815260200160002060006101000a81548160ff0219169083151502179055508173ffffffffffffffffffffffffffffffffffffffff168373ffffffffffffffffffffffffffffffffffffffff167f17307eab39ab6107e8899845ad3d59bd9653f200f220920489ca2b5937696c3183604051611e1c9190612be7565b60405180910390a3505050565b611e3484848461143c565b611e4084848484612254565b611e7f576040517f08c379a0000000000000000000000000000000000000000000000000000000008152600401611e7690614118565b60405180910390fd5b50505050565b606060405180602001604052806000815250905090565b6060611ea78261129b565b6000611eb1611e85565b90506000815111611ed15760405180602001604052806000815250611efc565b80611edb846123db565b604051602001611eec92919061374d565b6040516020818303038152906040525b915050919050565b611f0c6117c8565b6bffffffffffffffffffffffff16816bffffffffffffffffffffffff161115611f6a576040517f08c379a0000000000000000000000000000000000000000000000000000000008152600401611f61906141aa565b60405180910390fd5b600073ffffffffffffffffffffffffffffffffffffffff168273ffffffffffffffffffffffffffffffffffffffff1603611fd9576040517f08c379a0000000000000000000000000000000000000000000000000000000008152600401611fd090614216565b60405180910390fd5b60405180604001604052808373ffffffffffffffffffffffffffffffffffffffff168152602001826bffffffffffffffffffffffff16815250600760008201518160000160006101000a81548173ffffffffffffffffffffffffffffffffffffffff021916908373ffffffffffffffffffffffffffffffffffffffff16021790555060208201518160000160146101000a8154816bffffffffffffffffffffffff02191690836bffffffffffffffffffffffff1602179055509050505050565b6000634906490660e01b7bffffffffffffffffffffffffffffffffffffffffffffffffffffffff1916827bffffffffffffffffffffffffffffffffffffffffffffffffffffffff191614806120f357506120f2826124a9565b5b9050919050565b60008073ffffffffffffffffffffffffffffffffffffffff1661211c83611bba565b73ffffffffffffffffffffffffffffffffffffffff1614159050919050565b50505050565b50505050565b6121508161258b565b6000600660008381526020019081526020016000208054612170906131ff565b905014612197576006600082815260200190815260200160002060006121969190612ad6565b5b50565b60086000828152602001908152602001600020600080820160006101000a81549073ffffffffffffffffffffffffffffffffffffffff02191690556000820160146101000a8154906bffffffffffffffffffffffff0219169055505050565b61220383836126d9565b6122106000848484612254565b61224f576040517f08c379a000000000000000000000000000000000000000000000000000000000815260040161224690614118565b60405180910390fd5b505050565b60006122758473ffffffffffffffffffffffffffffffffffffffff166128f6565b156123ce578373ffffffffffffffffffffffffffffffffffffffff1663150b7a0261229e6112e6565b8786866040518563ffffffff1660e01b81526004016122c0949392919061428b565b6020604051808303816000875af19250505080156122fc57506040513d601f19601f820116820180604052508101906122f991906142ec565b60015b61237e573d806000811461232c576040519150601f19603f3d011682016040523d82523d6000602084013e612331565b606091505b506000815103612376576040517f08c379a000000000000000000000000000000000000000000000000000000000815260040161236d90614118565b60405180910390fd5b805181602001fd5b63150b7a0260e01b7bffffffffffffffffffffffffffffffffffffffffffffffffffffffff1916817bffffffffffffffffffffffffffffffffffffffffffffffffffffffff1916149150506123d3565b600190505b949350505050565b6060600060016123ea84612919565b01905060008167ffffffffffffffff81111561240957612408612f71565b5b6040519080825280601f01601f19166020018201604052801561243b5781602001600182028036833780820191505090505b509050600082602001820190505b60011561249e578080600190039150507f3031323334353637383961626364656600000000000000000000000000000000600a86061a8153600a85816124925761249161346f565b5b04945060008503612449575b819350505050919050565b60007f80ac58cd000000000000000000000000000000000000000000000000000000007bffffffffffffffffffffffffffffffffffffffffffffffffffffffff1916827bffffffffffffffffffffffffffffffffffffffffffffffffffffffff1916148061257457507f5b5e139f000000000000000000000000000000000000000000000000000000007bffffffffffffffffffffffffffffffffffffffffffffffffffffffff1916827bffffffffffffffffffffffffffffffffffffffffffffffffffffffff1916145b80612584575061258382612a6c565b5b9050919050565b600061259682610d1f565b90506125a681600084600161213b565b6125af82610d1f565b90506004600083815260200190815260200160002060006101000a81549073ffffffffffffffffffffffffffffffffffffffff02191690556001600360008373ffffffffffffffffffffffffffffffffffffffff1673ffffffffffffffffffffffffffffffffffffffff168152602001908152602001600020600082825403925050819055506002600083815260200190815260200160002060006101000a81549073ffffffffffffffffffffffffffffffffffffffff021916905581600073ffffffffffffffffffffffffffffffffffffffff168273ffffffffffffffffffffffffffffffffffffffff167fddf252ad1be2c89b69c2b068fc378daa952ba7f163c4a11628f55a4df523b3ef60405160405180910390a46126d5816000846001612141565b5050565b600073ffffffffffffffffffffffffffffffffffffffff168273ffffffffffffffffffffffffffffffffffffffff1603612748576040517f08c379a000000000000000000000000000000000000000000000000000000000815260040161273f90614365565b60405180910390fd5b612751816120fa565b15612791576040517f08c379a0000000000000000000000000000000000000000000000000000000008152600401612788906143d1565b60405180910390fd5b61279f60008383600161213b565b6127a8816120fa565b156127e8576040517f08c379a00000000000000000000000000000000000000000000000000000000081526004016127df906143d1565b60405180910390fd5b6001600360008473ffffffffffffffffffffffffffffffffffffffff1673ffffffffffffffffffffffffffffffffffffffff16815260200190815260200160002060008282540192505081905550816002600083815260200190815260200160002060006101000a81548173ffffffffffffffffffffffffffffffffffffffff021916908373ffffffffffffffffffffffffffffffffffffffff160217905550808273ffffffffffffffffffffffffffffffffffffffff16600073ffffffffffffffffffffffffffffffffffffffff167fddf252ad1be2c89b69c2b068fc378daa952ba7f163c4a11628f55a4df523b3ef60405160405180910390a46128f2600083836001612141565b5050565b6000808273ffffffffffffffffffffffffffffffffffffffff163b119050919050565b600080600090507a184f03e93ff9f4daa797ed6e38ed64bf6a1f0100000000000000008310612977577a184f03e93ff9f4daa797ed6e38ed64bf6a1f010000000000000000838161296d5761296c61346f565b5b0492506040810190505b6d04ee2d6d415b85acef810000000083106129b4576d04ee2d6d415b85acef810000000083816129aa576129a961346f565b5b0492506020810190505b662386f26fc1000083106129e357662386f26fc1000083816129d9576129d861346f565b5b0492506010810190505b6305f5e1008310612a0c576305f5e1008381612a0257612a0161346f565b5b0492506008810190505b6127108310612a31576127108381612a2757612a2661346f565b5b0492506004810190505b60648310612a545760648381612a4a57612a4961346f565b5b0492506002810190505b600a8310612a63576001810190505b80915050919050565b60007f01ffc9a7000000000000000000000000000000000000000000000000000000007bffffffffffffffffffffffffffffffffffffffffffffffffffffffff1916827bffffffffffffffffffffffffffffffffffffffffffffffffffffffff1916149050919050565b508054612ae2906131ff565b6000825580601f10612af45750612b13565b601f016020900490600052602060002090810190612b129190612b16565b5b50565b5b80821115612b2f576000816000905550600101612b17565b5090565b6000604051905090565b600080fd5b600080fd5b60007fffffffff0000000000000000000000000000000000000000000000000000000082169050919050565b612b7c81612b47565b8114612b8757600080fd5b50565b600081359050612b9981612b73565b92915050565b600060208284031215612bb557612bb4612b3d565b5b6000612bc384828501612b8a565b91505092915050565b60008115159050919050565b612be181612bcc565b82525050565b6000602082019050612bfc6000830184612bd8565b92915050565b600081519050919050565b600082825260208201905092915050565b60005b83811015612c3c578082015181840152602081019050612c21565b83811115612c4b576000848401525b50505050565b6000601f19601f8301169050919050565b6000612c6d82612c02565b612c778185612c0d565b9350612c87818560208601612c1e565b612c9081612c51565b840191505092915050565b60006020820190508181036000830152612cb58184612c62565b905092915050565b6000819050919050565b612cd081612cbd565b8114612cdb57600080fd5b50565b600081359050612ced81612cc7565b92915050565b600060208284031215612d0957612d08612b3d565b5b6000612d1784828501612cde565b91505092915050565b600073ffffffffffffffffffffffffffffffffffffffff82169050919050565b6000612d4b82612d20565b9050919050565b612d5b81612d40565b82525050565b6000602082019050612d766000830184612d52565b92915050565b612d8581612d40565b8114612d9057600080fd5b50565b600081359050612da281612d7c565b92915050565b60008060408385031215612dbf57612dbe612b3d565b5b6000612dcd85828601612d93565b9250506020612dde85828601612cde565b9150509250929050565b612df181612cbd565b82525050565b6000602082019050612e0c6000830184612de8565b92915050565b600080600060608486031215612e2b57612e2a612b3d565b5b6000612e3986828701612d93565b9350506020612e4a86828701612d93565b9250506040612e5b86828701612cde565b9150509250925092565b60008060408385031215612e7c57612e7b612b3d565b5b6000612e8a85828601612cde565b9250506020612e9b85828601612cde565b9150509250929050565b6000604082019050612eba6000830185612d52565b612ec76020830184612de8565b9392505050565b600060208284031215612ee457612ee3612b3d565b5b6000612ef284828501612d93565b91505092915050565b612f0481612bcc565b8114612f0f57600080fd5b50565b600081359050612f2181612efb565b92915050565b60008060408385031215612f3e57612f3d612b3d565b5b6000612f4c85828601612d93565b9250506020612f5d85828601612f12565b9150509250929050565b600080fd5b600080fd5b7f4e487b7100000000000000000000000000000000000000000000000000000000600052604160045260246000fd5b612fa982612c51565b810181811067ffffffffffffffff82111715612fc857612fc7612f71565b5b80604052505050565b6000612fdb612b33565b9050612fe78282612fa0565b919050565b600067ffffffffffffffff82111561300757613006612f71565b5b61301082612c51565b9050602081019050919050565b82818337600083830152505050565b600061303f61303a84612fec565b612fd1565b90508281526020810184848401111561305b5761305a612f6c565b5b61306684828561301d565b509392505050565b600082601f83011261308357613082612f67565b5b813561309384826020860161302c565b91505092915050565b600080600080608085870312156130b6576130b5612b3d565b5b60006130c487828801612d93565b94505060206130d587828801612d93565b93505060406130e687828801612cde565b925050606085013567ffffffffffffffff81111561310757613106612b42565b5b6131138782880161306e565b91505092959194509250565b60006bffffffffffffffffffffffff82169050919050565b6131408161311f565b811461314b57600080fd5b50565b60008135905061315d81613137565b92915050565b60006020828403121561317957613178612b3d565b5b60006131878482850161314e565b91505092915050565b600080604083850312156131a7576131a6612b3d565b5b60006131b585828601612d93565b92505060206131c685828601612d93565b9150509250929050565b7f4e487b7100000000000000000000000000000000000000000000000000000000600052602260045260246000fd5b6000600282049050600182168061321757607f821691505b60208210810361322a576132296131d0565b5b50919050565b7f4552433732313a20617070726f76616c20746f2063757272656e74206f776e6560008201527f7200000000000000000000000000000000000000000000000000000000000000602082015250565b600061328c602183612c0d565b915061329782613230565b604082019050919050565b600060208201905081810360008301526132bb8161327f565b9050919050565b7f4552433732313a20617070726f76652063616c6c6572206973206e6f7420746f60008201527f6b656e206f776e6572206f7220617070726f76656420666f7220616c6c000000602082015250565b600061331e603d83612c0d565b9150613329826132c2565b604082019050919050565b6000602082019050818103600083015261334d81613311565b9050919050565b7f4552433732313a2063616c6c6572206973206e6f7420746f6b656e206f776e6560008201527f72206f7220617070726f76656400000000000000000000000000000000000000602082015250565b60006133b0602d83612c0d565b91506133bb82613354565b604082019050919050565b600060208201905081810360008301526133df816133a3565b9050919050565b7f4e487b7100000000000000000000000000000000000000000000000000000000600052601160045260246000fd5b600061342082612cbd565b915061342b83612cbd565b9250817fffffffffffffffffffffffffffffffffffffffffffffffffffffffffffffffff0483118215151615613464576134636133e6565b5b828202905092915050565b7f4e487b7100000000000000000000000000000000000000000000000000000000600052601260045260246000fd5b60006134a982612cbd565b91506134b483612cbd565b9250826134c4576134c361346f565b5b828204905092915050565b7f496e73756666696369656e742066756e64730000000000000000000000000000600082015250565b6000613505601283612c0d565b9150613510826134cf565b602082019050919050565b60006020820190508181036000830152613534816134f8565b9050919050565b7f546f6b656e20555249206e6f7420736574207965740000000000000000000000600082015250565b6000613571601583612c0d565b915061357c8261353b565b602082019050919050565b600060208201905081810360008301526135a081613564565b9050919050565b7f436f6e7472616374204c6f636b65640000000000000000000000000000000000600082015250565b60006135dd600f83612c0d565b91506135e8826135a7565b602082019050919050565b6000602082019050818103600083015261360c816135d0565b9050919050565b7f4552433732313a20696e76616c696420746f6b656e2049440000000000000000600082015250565b6000613649601883612c0d565b915061365482613613565b602082019050919050565b600060208201905081810360008301526136788161363c565b9050919050565b7f4552433732313a2061646472657373207a65726f206973206e6f74206120766160008201527f6c6964206f776e65720000000000000000000000000000000000000000000000602082015250565b60006136db602983612c0d565b91506136e68261367f565b604082019050919050565b6000602082019050818103600083015261370a816136ce565b9050919050565b600081905092915050565b600061372782612c02565b6137318185613711565b9350613741818560208601612c1e565b80840191505092915050565b6000613759828561371c565b9150613765828461371c565b91508190509392505050565b7f4f776e61626c653a206e6577206f776e657220697320746865207a65726f206160008201527f6464726573730000000000000000000000000000000000000000000000000000602082015250565b60006137cd602683612c0d565b91506137d882613771565b604082019050919050565b600060208201905081810360008301526137fc816137c0565b9050919050565b7f4552433732313a207472616e736665722066726f6d20696e636f72726563742060008201527f6f776e6572000000000000000000000000000000000000000000000000000000602082015250565b600061385f602583612c0d565b915061386a82613803565b604082019050919050565b6000602082019050818103600083015261388e81613852565b9050919050565b7f4552433732313a207472616e7366657220746f20746865207a65726f2061646460008201527f7265737300000000000000000000000000000000000000000000000000000000602082015250565b60006138f1602483612c0d565b91506138fc82613895565b604082019050919050565b60006020820190508181036000830152613920816138e4565b9050919050565b7f4f776e61626c653a2063616c6c6572206973206e6f7420746865206f776e6572600082015250565b600061395d602083612c0d565b915061396882613927565b602082019050919050565b6000602082019050818103600083015261398c81613950565b9050919050565b600061399e82612cbd565b91506139a983612cbd565b9250828210156139bc576139bb6133e6565b5b828203905092915050565b7f796f752068617665206e6f206574682079657400000000000000000000000000600082015250565b60006139fd601383612c0d565b9150613a08826139c7565b602082019050919050565b60006020820190508181036000830152613a2c816139f0565b9050919050565b600081519050613a4281612d7c565b92915050565b600060208284031215613a5e57613a5d612b3d565b5b6000613a6c84828501613a33565b91505092915050565b7f4e487b7100000000000000000000000000000000000000000000000000000000600052603260045260246000fd5b6000613aaf82612cbd565b9150613aba83612cbd565b9250827fffffffffffffffffffffffffffffffffffffffffffffffffffffffffffffffff03821115613aef57613aee6133e6565b5b828201905092915050565b600081519050919050565b600082825260208201905092915050565b6000819050602082019050919050565b613b2f81612d40565b82525050565b6000613b418383613b26565b60208301905092915050565b6000602082019050919050565b6000613b6582613afa565b613b6f8185613b05565b9350613b7a83613b16565b8060005b83811015613bab578151613b928882613b35565b9750613b9d83613b4d565b925050600181019050613b7e565b5085935050505092915050565b6000608082019050613bcd6000830187612de8565b8181036020830152613bdf8186613b5a565b9050613bee6040830185612d52565b613bfb6060830184612de8565b95945050505050565b600067ffffffffffffffff821115613c1f57613c1e612f71565b5b602082029050602081019050919050565b600080fd5b600081519050613c4481612cc7565b92915050565b6000613c5d613c5884613c04565b612fd1565b90508083825260208201905060208402830185811115613c8057613c7f613c30565b5b835b81811015613ca95780613c958882613c35565b845260208401935050602081019050613c82565b5050509392505050565b600082601f830112613cc857613cc7612f67565b5b8151613cd8848260208601613c4a565b91505092915050565b600060208284031215613cf757613cf6612b3d565b5b600082015167ffffffffffffffff811115613d1557613d14612b42565b5b613d2184828501613cb3565b91505092915050565b7f45524337323155524953746f726167653a2055524920736574206f66206e6f6e60008201527f6578697374656e7420746f6b656e000000000000000000000000000000000000602082015250565b6000613d86602e83612c0d565b9150613d9182613d2a565b604082019050919050565b60006020820190508181036000830152613db581613d79565b9050919050565b60008190508160005260206000209050919050565b60006020601f8301049050919050565b600082821b905092915050565b600060088302613e1e7fffffffffffffffffffffffffffffffffffffffffffffffffffffffffffffffff82613de1565b613e288683613de1565b95508019841693508086168417925050509392505050565b6000819050919050565b6000613e65613e60613e5b84612cbd565b613e40565b612cbd565b9050919050565b6000819050919050565b613e7f83613e4a565b613e93613e8b82613e6c565b848454613dee565b825550505050565b600090565b613ea8613e9b565b613eb3818484613e76565b505050565b5b81811015613ed757613ecc600082613ea0565b600181019050613eb9565b5050565b601f821115613f1c57613eed81613dbc565b613ef684613dd1565b81016020851015613f05578190505b613f19613f1185613dd1565b830182613eb8565b50505b505050565b600082821c905092915050565b6000613f3f60001984600802613f21565b1980831691505092915050565b6000613f588383613f2e565b9150826002028217905092915050565b613f7182612c02565b67ffffffffffffffff811115613f8a57613f89612f71565b5b613f9482546131ff565b613f9f828285613edb565b600060209050601f831160018114613fd25760008415613fc0578287015190505b613fca8582613f4c565b865550614032565b601f198416613fe086613dbc565b60005b8281101561400857848901518255600182019150602085019450602081019050613fe3565b868310156140255784890151614021601f891682613f2e565b8355505b6001600288020188555050505b505050505050565b7f4552433732313a20617070726f766520746f2063616c6c657200000000000000600082015250565b6000614070601983612c0d565b915061407b8261403a565b602082019050919050565b6000602082019050818103600083015261409f81614063565b9050919050565b7f4552433732313a207472616e7366657220746f206e6f6e20455243373231526560008201527f63656976657220696d706c656d656e7465720000000000000000000000000000602082015250565b6000614102603283612c0d565b915061410d826140a6565b604082019050919050565b60006020820190508181036000830152614131816140f5565b9050919050565b7f455243323938313a20726f79616c7479206665652077696c6c2065786365656460008201527f2073616c65507269636500000000000000000000000000000000000000000000602082015250565b6000614194602a83612c0d565b915061419f82614138565b604082019050919050565b600060208201905081810360008301526141c381614187565b9050919050565b7f455243323938313a20696e76616c696420726563656976657200000000000000600082015250565b6000614200601983612c0d565b915061420b826141ca565b602082019050919050565b6000602082019050818103600083015261422f816141f3565b9050919050565b600081519050919050565b600082825260208201905092915050565b600061425d82614236565b6142678185614241565b9350614277818560208601612c1e565b61428081612c51565b840191505092915050565b60006080820190506142a06000830187612d52565b6142ad6020830186612d52565b6142ba6040830185612de8565b81810360608301526142cc8184614252565b905095945050505050565b6000815190506142e681612b73565b92915050565b60006020828403121561430257614301612b3d565b5b6000614310848285016142d7565b91505092915050565b7f4552433732313a206d696e7420746f20746865207a65726f2061646472657373600082015250565b600061434f602083612c0d565b915061435a82614319565b602082019050919050565b6000602082019050818103600083015261437e81614342565b9050919050565b7f4552433732313a20746f6b656e20616c7265616479206d696e74656400000000600082015250565b60006143bb601c83612c0d565b91506143c682614385565b602082019050919050565b600060208201905081810360008301526143ea816143ae565b905091905056fea26469706673582212201571488e97e709d4e88d7cff45ff4e9cc0d5fc3ee723cb91d41c89f9f9f3b07a64736f6c634300080f0033",
  "immutableReferences": {},
  "source": "// SPDX-License-Identifier: MIT\npragma solidity >=0.4.22 <0.9.0;\n\nimport \"@openzeppelin/contracts/token/common/ERC2981.sol\";\nimport \"@openzeppelin/contracts/token/ERC721/extensions/ERC721URIStorage.sol\";\nimport \"@openzeppelin/contracts/access/Ownable.sol\";\nimport \"@openzeppelin/contracts/utils/Counters.sol\";\nimport \"@openzeppelin/contracts/token/ERC20/IERC20.sol\";\n\nimport \"@uniswap/v2-periphery/contracts/interfaces/IUniswapV2Router02.sol\";\n\n\ncontract LaelapsMasterKey is ERC721URIStorage, ERC2981, Ownable {\n  using Counters for Counters.Counter;\n  Counters.Counter private _tokenIds;\n  uint256 private mintCost = 100000;\n  string public tokenURI;\n  uint256 public locked = 0;\n  address private constant UNISWAP_ROUTER_ADDRESS = 0x7a250d5630B4cF539739dF2C5dAcb4c659F2488D;\n  // address public LAELAPS_ADDRESS = 0x811a10657440928c9cda3580eb54f271ac4b9a19;\n  address public LINK = 0x326C977E6efc84E512bB9C30f76E30c160eD06FB;\n  IUniswapV2Router02 private uniswapRouter;\n\n  \n  constructor(string memory _uri) ERC721(\"LaelapsMasterKey V1\", \"LMK\") {\n    _setDefaultRoyalty(msg.sender, 100);\n    tokenURI = _uri;\n    uniswapRouter = IUniswapV2Router02(UNISWAP_ROUTER_ADDRESS);\n  }\n\n  function setMintPrice(uint256 _mintPrice) public onlyOwner {\n    mintCost = _mintPrice;\n  }\n\n  function setRoyalty(uint96 _royalty) public onlyOwner {\n    _setDefaultRoyalty(msg.sender, _royalty);\n  }\n\n  function getBalance() public view returns (uint256) {\n    return address(this).balance;\n  }\n\n  function supportsInterface(bytes4 interfaceId)\n    public view virtual override(ERC2981, ERC721URIStorage)\n    returns (bool) {\n      return super.supportsInterface(interfaceId);\n  }\n\n  function _burn(uint256 tokenId) internal virtual override {\n    super._burn(tokenId);\n    _resetTokenRoyalty(tokenId);\n  }\n\n  function burnNFT(uint256 tokenId)\n    public onlyOwner {\n      _burn(tokenId);\n  }\n\n  function lock(uint256 _lock) public onlyOwner {\n    if (_lock == 0 || _lock == 1){\n      locked = _lock;\n    }\n  }\n\n  function mintNFT(address recipient)\n    public payable \n    returns (uint256) {\n      require(msg.value >= mintCost, \"Insufficient funds\");\n      require(bytes(tokenURI).length > 0, \"Token URI not set yet\");\n      require(locked != 1, \"Contract Locked\");\n      buyAndBurnLaelaps();\n      uint256 newItemId = _tokenIds.current();\n      _tokenIds.increment();\n      _safeMint(recipient, newItemId);\n      _setTokenURI(newItemId, tokenURI);\n      return newItemId;\n  }\n\n  function buyAndBurnLaelaps() internal {\n    address[] memory path = new address[](2);\n    uint amountOutMin = address(this).balance - 10;\n    require(amountOutMin > 0, \"you have no eth yet\");\n    address WETH_ADDRESS = uniswapRouter.WETH();\n    path[0] = WETH_ADDRESS;\n    path[1] = LINK;\n    // uint amountOutMin = address(this).balance - 10;\n    require(amountOutMin > 0, \"you have no eth yet\");\n    address to = address(this);\n    uint deadline = block.timestamp + 100;\n    uniswapRouter.swapExactETHForTokens{ value: amountOutMin }(amountOutMin, path, to, deadline);\n\n  }\n  \n\n}\n\n\n",
  "sourcePath": "/Users/Jesse.Jacob/Documents/laelaps/nft-royalty/contracts/LaelapsMasterKey.sol",
  "compiler": {
    "name": "solc",
    "version": "0.8.15+commit.e14f2714.Emscripten.clang"
  },
  "schemaVersion": "3.4.12",
  "updatedAt": "2023-06-03T01:18:50.395Z",
  "networkType": "ethereum",
  "devdoc": {
    "kind": "dev",
    "methods": {
      "approve(address,uint256)": {
        "details": "See {IERC721-approve}."
      },
      "balanceOf(address)": {
        "details": "See {IERC721-balanceOf}."
      },
      "getApproved(uint256)": {
        "details": "See {IERC721-getApproved}."
      },
      "isApprovedForAll(address,address)": {
        "details": "See {IERC721-isApprovedForAll}."
      },
      "name()": {
        "details": "See {IERC721Metadata-name}."
      },
      "owner()": {
        "details": "Returns the address of the current owner."
      },
      "ownerOf(uint256)": {
        "details": "See {IERC721-ownerOf}."
      },
      "renounceOwnership()": {
        "details": "Leaves the contract without owner. It will not be possible to call `onlyOwner` functions. Can only be called by the current owner. NOTE: Renouncing ownership will leave the contract without an owner, thereby disabling any functionality that is only available to the owner."
      },
      "royaltyInfo(uint256,uint256)": {
        "details": "Returns how much royalty is owed and to whom, based on a sale price that may be denominated in any unit of exchange. The royalty amount is denominated and should be paid in that same unit of exchange."
      },
      "safeTransferFrom(address,address,uint256)": {
        "details": "See {IERC721-safeTransferFrom}."
      },
      "safeTransferFrom(address,address,uint256,bytes)": {
        "details": "See {IERC721-safeTransferFrom}."
      },
      "setApprovalForAll(address,bool)": {
        "details": "See {IERC721-setApprovalForAll}."
      },
      "symbol()": {
        "details": "See {IERC721Metadata-symbol}."
      },
      "tokenURI(uint256)": {
        "details": "See {IERC721Metadata-tokenURI}."
      },
      "transferFrom(address,address,uint256)": {
        "details": "See {IERC721-transferFrom}."
      },
      "transferOwnership(address)": {
        "details": "Transfers ownership of the contract to a new account (`newOwner`). Can only be called by the current owner."
      }
    },
    "version": 1
  },
  "userdoc": {
    "kind": "user",
    "methods": {},
    "version": 1
  }
}