{
  "contractName": "LaelapsMasterKey",
  "abi": [
    {
      "inputs": [
        {
          "internalType": "string",
          "name": "_uri",
          "type": "string"
        }
      ],
      "stateMutability": "nonpayable",
      "type": "constructor"
    },
    {
      "anonymous": false,
      "inputs": [
        {
          "indexed": true,
          "internalType": "address",
          "name": "owner",
          "type": "address"
        },
        {
          "indexed": true,
          "internalType": "address",
          "name": "approved",
          "type": "address"
        },
        {
          "indexed": true,
          "internalType": "uint256",
          "name": "tokenId",
          "type": "uint256"
        }
      ],
      "name": "Approval",
      "type": "event"
    },
    {
      "anonymous": false,
      "inputs": [
        {
          "indexed": true,
          "internalType": "address",
          "name": "owner",
          "type": "address"
        },
        {
          "indexed": true,
          "internalType": "address",
          "name": "operator",
          "type": "address"
        },
        {
          "indexed": false,
          "internalType": "bool",
          "name": "approved",
          "type": "bool"
        }
      ],
      "name": "ApprovalForAll",
      "type": "event"
    },
    {
      "anonymous": false,
      "inputs": [
        {
          "indexed": false,
          "internalType": "uint256",
          "name": "_fromTokenId",
          "type": "uint256"
        },
        {
          "indexed": false,
          "internalType": "uint256",
          "name": "_toTokenId",
          "type": "uint256"
        }
      ],
      "name": "BatchMetadataUpdate",
      "type": "event"
    },
    {
      "anonymous": false,
      "inputs": [
        {
          "indexed": false,
          "internalType": "uint256",
          "name": "_tokenId",
          "type": "uint256"
        }
      ],
      "name": "MetadataUpdate",
      "type": "event"
    },
    {
      "anonymous": false,
      "inputs": [
        {
          "indexed": true,
          "internalType": "address",
          "name": "previousOwner",
          "type": "address"
        },
        {
          "indexed": true,
          "internalType": "address",
          "name": "newOwner",
          "type": "address"
        }
      ],
      "name": "OwnershipTransferred",
      "type": "event"
    },
    {
      "anonymous": false,
      "inputs": [
        {
          "indexed": true,
          "internalType": "address",
          "name": "from",
          "type": "address"
        },
        {
          "indexed": true,
          "internalType": "address",
          "name": "to",
          "type": "address"
        },
        {
          "indexed": true,
          "internalType": "uint256",
          "name": "tokenId",
          "type": "uint256"
        }
      ],
      "name": "Transfer",
      "type": "event"
    },
    {
      "inputs": [],
      "name": "BURN_ADDRESS",
      "outputs": [
        {
          "internalType": "address",
          "name": "",
          "type": "address"
        }
      ],
      "stateMutability": "view",
      "type": "function"
    },
    {
      "inputs": [],
      "name": "LAELAPS_ADDRESS",
      "outputs": [
        {
          "internalType": "address",
          "name": "",
          "type": "address"
        }
      ],
      "stateMutability": "view",
      "type": "function"
    },
    {
      "inputs": [
        {
          "internalType": "address",
          "name": "to",
          "type": "address"
        },
        {
          "internalType": "uint256",
          "name": "tokenId",
          "type": "uint256"
        }
      ],
      "name": "approve",
      "outputs": [],
      "stateMutability": "nonpayable",
      "type": "function"
    },
    {
      "inputs": [
        {
          "internalType": "address",
          "name": "owner",
          "type": "address"
        }
      ],
      "name": "balanceOf",
      "outputs": [
        {
          "internalType": "uint256",
          "name": "",
          "type": "uint256"
        }
      ],
      "stateMutability": "view",
      "type": "function"
    },
    {
      "inputs": [
        {
          "internalType": "uint256",
          "name": "tokenId",
          "type": "uint256"
        }
      ],
      "name": "getApproved",
      "outputs": [
        {
          "internalType": "address",
          "name": "",
          "type": "address"
        }
      ],
      "stateMutability": "view",
      "type": "function"
    },
    {
      "inputs": [
        {
          "internalType": "address",
          "name": "owner",
          "type": "address"
        },
        {
          "internalType": "address",
          "name": "operator",
          "type": "address"
        }
      ],
      "name": "isApprovedForAll",
      "outputs": [
        {
          "internalType": "bool",
          "name": "",
          "type": "bool"
        }
      ],
      "stateMutability": "view",
      "type": "function"
    },
    {
      "inputs": [],
      "name": "locked",
      "outputs": [
        {
          "internalType": "uint256",
          "name": "",
          "type": "uint256"
        }
      ],
      "stateMutability": "view",
      "type": "function"
    },
    {
      "inputs": [],
      "name": "mintCost",
      "outputs": [
        {
          "internalType": "uint256",
          "name": "",
          "type": "uint256"
        }
      ],
      "stateMutability": "view",
      "type": "function"
    },
    {
      "inputs": [],
      "name": "name",
      "outputs": [
        {
          "internalType": "string",
          "name": "",
          "type": "string"
        }
      ],
      "stateMutability": "view",
      "type": "function"
    },
    {
      "inputs": [],
      "name": "owner",
      "outputs": [
        {
          "internalType": "address",
          "name": "",
          "type": "address"
        }
      ],
      "stateMutability": "view",
      "type": "function"
    },
    {
      "inputs": [
        {
          "internalType": "uint256",
          "name": "tokenId",
          "type": "uint256"
        }
      ],
      "name": "ownerOf",
      "outputs": [
        {
          "internalType": "address",
          "name": "",
          "type": "address"
        }
      ],
      "stateMutability": "view",
      "type": "function"
    },
    {
      "inputs": [],
      "name": "percentage",
      "outputs": [
        {
          "internalType": "uint256",
          "name": "",
          "type": "uint256"
        }
      ],
      "stateMutability": "view",
      "type": "function"
    },
    {
      "inputs": [],
      "name": "renounceOwnership",
      "outputs": [],
      "stateMutability": "nonpayable",
      "type": "function"
    },
    {
      "inputs": [
        {
          "internalType": "uint256",
          "name": "tokenId",
          "type": "uint256"
        },
        {
          "internalType": "uint256",
          "name": "salePrice",
          "type": "uint256"
        }
      ],
      "name": "royaltyInfo",
      "outputs": [
        {
          "internalType": "address",
          "name": "",
          "type": "address"
        },
        {
          "internalType": "uint256",
          "name": "",
          "type": "uint256"
        }
      ],
      "stateMutability": "view",
      "type": "function"
    },
    {
      "inputs": [
        {
          "internalType": "address",
          "name": "from",
          "type": "address"
        },
        {
          "internalType": "address",
          "name": "to",
          "type": "address"
        },
        {
          "internalType": "uint256",
          "name": "tokenId",
          "type": "uint256"
        }
      ],
      "name": "safeTransferFrom",
      "outputs": [],
      "stateMutability": "nonpayable",
      "type": "function"
    },
    {
      "inputs": [
        {
          "internalType": "address",
          "name": "from",
          "type": "address"
        },
        {
          "internalType": "address",
          "name": "to",
          "type": "address"
        },
        {
          "internalType": "uint256",
          "name": "tokenId",
          "type": "uint256"
        },
        {
          "internalType": "bytes",
          "name": "data",
          "type": "bytes"
        }
      ],
      "name": "safeTransferFrom",
      "outputs": [],
      "stateMutability": "nonpayable",
      "type": "function"
    },
    {
      "inputs": [
        {
          "internalType": "address",
          "name": "operator",
          "type": "address"
        },
        {
          "internalType": "bool",
          "name": "approved",
          "type": "bool"
        }
      ],
      "name": "setApprovalForAll",
      "outputs": [],
      "stateMutability": "nonpayable",
      "type": "function"
    },
    {
      "inputs": [],
      "name": "symbol",
      "outputs": [
        {
          "internalType": "string",
          "name": "",
          "type": "string"
        }
      ],
      "stateMutability": "view",
      "type": "function"
    },
    {
      "inputs": [],
      "name": "tokenURI",
      "outputs": [
        {
          "internalType": "string",
          "name": "",
          "type": "string"
        }
      ],
      "stateMutability": "view",
      "type": "function"
    },
    {
      "inputs": [
        {
          "internalType": "uint256",
          "name": "tokenId",
          "type": "uint256"
        }
      ],
      "name": "tokenURI",
      "outputs": [
        {
          "internalType": "string",
          "name": "",
          "type": "string"
        }
      ],
      "stateMutability": "view",
      "type": "function"
    },
    {
      "inputs": [
        {
          "internalType": "address",
          "name": "from",
          "type": "address"
        },
        {
          "internalType": "address",
          "name": "to",
          "type": "address"
        },
        {
          "internalType": "uint256",
          "name": "tokenId",
          "type": "uint256"
        }
      ],
      "name": "transferFrom",
      "outputs": [],
      "stateMutability": "nonpayable",
      "type": "function"
    },
    {
      "inputs": [
        {
          "internalType": "address",
          "name": "newOwner",
          "type": "address"
        }
      ],
      "name": "transferOwnership",
      "outputs": [],
      "stateMutability": "nonpayable",
      "type": "function"
    },
    {
      "inputs": [
        {
          "internalType": "string",
          "name": "_uri",
          "type": "string"
        }
      ],
      "name": "setTokenUri",
      "outputs": [],
      "stateMutability": "nonpayable",
      "type": "function"
    },
    {
      "inputs": [
        {
          "internalType": "uint256",
          "name": "_mintPrice",
          "type": "uint256"
        }
      ],
      "name": "setMintPrice",
      "outputs": [],
      "stateMutability": "nonpayable",
      "type": "function"
    },
    {
      "inputs": [
        {
          "internalType": "uint96",
          "name": "_royalty",
          "type": "uint96"
        }
      ],
      "name": "setRoyalty",
      "outputs": [],
      "stateMutability": "nonpayable",
      "type": "function"
    },
    {
      "inputs": [],
      "name": "getContractBalance",
      "outputs": [
        {
          "internalType": "uint256",
          "name": "",
          "type": "uint256"
        }
      ],
      "stateMutability": "view",
      "type": "function"
    },
    {
      "inputs": [],
      "name": "getLaelapsBalance",
      "outputs": [
        {
          "internalType": "uint256",
          "name": "",
          "type": "uint256"
        }
      ],
      "stateMutability": "view",
      "type": "function"
    },
    {
      "inputs": [
        {
          "internalType": "bytes4",
          "name": "interfaceId",
          "type": "bytes4"
        }
      ],
      "name": "supportsInterface",
      "outputs": [
        {
          "internalType": "bool",
          "name": "",
          "type": "bool"
        }
      ],
      "stateMutability": "view",
      "type": "function"
    },
    {
      "inputs": [
        {
          "internalType": "uint256",
          "name": "tokenId",
          "type": "uint256"
        }
      ],
      "name": "burnNFT",
      "outputs": [],
      "stateMutability": "nonpayable",
      "type": "function"
    },
    {
      "inputs": [
        {
          "internalType": "uint256",
          "name": "_lock",
          "type": "uint256"
        }
      ],
      "name": "lock",
      "outputs": [],
      "stateMutability": "nonpayable",
      "type": "function"
    },
    {
      "inputs": [
        {
          "internalType": "address",
          "name": "_addr",
          "type": "address"
        }
      ],
      "name": "changeLaelapsAddress",
      "outputs": [],
      "stateMutability": "nonpayable",
      "type": "function"
    },
    {
      "inputs": [],
      "name": "transferBalanceToOwner",
      "outputs": [],
      "stateMutability": "nonpayable",
      "type": "function"
    },
    {
      "inputs": [
        {
          "internalType": "address",
          "name": "recipient",
          "type": "address"
        }
      ],
      "name": "mintNFT",
      "outputs": [
        {
          "internalType": "uint256",
          "name": "",
          "type": "uint256"
        }
      ],
      "stateMutability": "payable",
      "type": "function"
    }
  ],
  "bytecode": "0x6080604052620186a0600b556000600d55736c059413686565d5ad6cce6eed7742c42dbc44ca600e60006101000a81548173ffffffffffffffffffffffffffffffffffffffff021916908373ffffffffffffffffffffffffffffffffffffffff16021790555061dead600f60006101000a81548173ffffffffffffffffffffffffffffffffffffffff021916908373ffffffffffffffffffffffffffffffffffffffff1602179055506064601055348015620000ba57600080fd5b506040516200561a3803806200561a8339818101604052810190620000e091906200062b565b6040518060400160405280601281526020017f4c61656c617073204d6173746572204b657900000000000000000000000000008152506040518060400160405280600381526020017f4c4d4b000000000000000000000000000000000000000000000000000000000081525081600090816200015d9190620008c7565b5080600190816200016f9190620008c7565b50505062000192620001866200021360201b60201c565b6200021b60201b60201c565b620001a5336064620002e160201b60201c565b80600c9081620001b69190620008c7565b50737a250d5630b4cf539739df2c5dacb4c659f2488d601160006101000a81548173ffffffffffffffffffffffffffffffffffffffff021916908373ffffffffffffffffffffffffffffffffffffffff1602179055505062000ac9565b600033905090565b6000600960009054906101000a900473ffffffffffffffffffffffffffffffffffffffff16905081600960006101000a81548173ffffffffffffffffffffffffffffffffffffffff021916908373ffffffffffffffffffffffffffffffffffffffff1602179055508173ffffffffffffffffffffffffffffffffffffffff168173ffffffffffffffffffffffffffffffffffffffff167f8be0079c531659141344cd1fd0a4f28419497f9722a3daafe3b4186f6b6457e060405160405180910390a35050565b620002f16200048460201b60201c565b6bffffffffffffffffffffffff16816bffffffffffffffffffffffff16111562000352576040517f08c379a0000000000000000000000000000000000000000000000000000000008152600401620003499062000a35565b60405180910390fd5b600073ffffffffffffffffffffffffffffffffffffffff168273ffffffffffffffffffffffffffffffffffffffff1603620003c4576040517f08c379a0000000000000000000000000000000000000000000000000000000008152600401620003bb9062000aa7565b60405180910390fd5b60405180604001604052808373ffffffffffffffffffffffffffffffffffffffff168152602001826bffffffffffffffffffffffff16815250600760008201518160000160006101000a81548173ffffffffffffffffffffffffffffffffffffffff021916908373ffffffffffffffffffffffffffffffffffffffff16021790555060208201518160000160146101000a8154816bffffffffffffffffffffffff02191690836bffffffffffffffffffffffff1602179055509050505050565b6000612710905090565b6000604051905090565b600080fd5b600080fd5b600080fd5b600080fd5b6000601f19601f8301169050919050565b7f4e487b7100000000000000000000000000000000000000000000000000000000600052604160045260246000fd5b620004f782620004ac565b810181811067ffffffffffffffff82111715620005195762000518620004bd565b5b80604052505050565b60006200052e6200048e565b90506200053c8282620004ec565b919050565b600067ffffffffffffffff8211156200055f576200055e620004bd565b5b6200056a82620004ac565b9050602081019050919050565b60005b83811015620005975780820151818401526020810190506200057a565b83811115620005a7576000848401525b50505050565b6000620005c4620005be8462000541565b62000522565b905082815260208101848484011115620005e357620005e2620004a7565b5b620005f084828562000577565b509392505050565b600082601f83011262000610576200060f620004a2565b5b815162000622848260208601620005ad565b91505092915050565b60006020828403121562000644576200064362000498565b5b600082015167ffffffffffffffff8111156200066557620006646200049d565b5b6200067384828501620005f8565b91505092915050565b600081519050919050565b7f4e487b7100000000000000000000000000000000000000000000000000000000600052602260045260246000fd5b60006002820490506001821680620006cf57607f821691505b602082108103620006e557620006e462000687565b5b50919050565b60008190508160005260206000209050919050565b60006020601f8301049050919050565b600082821b905092915050565b6000600883026200074f7fffffffffffffffffffffffffffffffffffffffffffffffffffffffffffffffff8262000710565b6200075b868362000710565b95508019841693508086168417925050509392505050565b6000819050919050565b6000819050919050565b6000620007a8620007a26200079c8462000773565b6200077d565b62000773565b9050919050565b6000819050919050565b620007c48362000787565b620007dc620007d382620007af565b8484546200071d565b825550505050565b600090565b620007f3620007e4565b62000800818484620007b9565b505050565b5b8181101562000828576200081c600082620007e9565b60018101905062000806565b5050565b601f82111562000877576200084181620006eb565b6200084c8462000700565b810160208510156200085c578190505b620008746200086b8562000700565b83018262000805565b50505b505050565b600082821c905092915050565b60006200089c600019846008026200087c565b1980831691505092915050565b6000620008b7838362000889565b9150826002028217905092915050565b620008d2826200067c565b67ffffffffffffffff811115620008ee57620008ed620004bd565b5b620008fa8254620006b6565b620009078282856200082c565b600060209050601f8311600181146200093f57600084156200092a578287015190505b620009368582620008a9565b865550620009a6565b601f1984166200094f86620006eb565b60005b82811015620009795784890151825560018201915060208501945060208101905062000952565b8683101562000999578489015162000995601f89168262000889565b8355505b6001600288020188555050505b505050505050565b600082825260208201905092915050565b7f455243323938313a20726f79616c7479206665652077696c6c2065786365656460008201527f2073616c65507269636500000000000000000000000000000000000000000000602082015250565b600062000a1d602a83620009ae565b915062000a2a82620009bf565b604082019050919050565b6000602082019050818103600083015262000a508162000a0e565b9050919050565b7f455243323938313a20696e76616c696420726563656976657200000000000000600082015250565b600062000a8f601983620009ae565b915062000a9c8262000a57565b602082019050919050565b6000602082019050818103600083015262000ac28162000a80565b9050919050565b614b418062000ad96000396000f3fe6080604052600436106101ee5760003560e01c806370a082311161010d578063c78ad77f116100a0578063dd4670641161006f578063dd467064146106df578063e985e9c514610708578063f2fde38b14610745578063f4a0a5281461076e578063fccc281314610797576101ee565b8063c78ad77f14610623578063c87b56dd1461064e578063cac926691461068b578063cf309012146106b4576101ee565b806395d89b41116100dc57806395d89b411461057b578063a22cb465146105a6578063b88d4fde146105cf578063bdb4b848146105f8576101ee565b806370a08231146104d1578063715018a61461050e578063863065fb146105255780638da5cb5b14610550576101ee565b80632a55205a116101855780634e1ee2c8116101545780634e1ee2c81461040e57806354ba0f27146104395780636352211e146104695780636f9fb98a146104a6576101ee565b80632a55205a146103655780633c130d90146103a357806342842e0e146103ce57806347f07a8e146103f7576101ee565b8063095ea7b3116101c1578063095ea7b3146102c15780630e54fe85146102ea57806323b872dd146103135780632890e0d71461033c576101ee565b806301ffc9a7146101f35780630675b7c61461023057806306fdde0314610259578063081812fc14610284575b600080fd5b3480156101ff57600080fd5b5061021a60048036038101906102159190613128565b6107c2565b6040516102279190613170565b60405180910390f35b34801561023c57600080fd5b50610257600480360381019061025291906132d1565b6107d4565b005b34801561026557600080fd5b5061026e6107ef565b60405161027b91906133a2565b60405180910390f35b34801561029057600080fd5b506102ab60048036038101906102a691906133fa565b610881565b6040516102b89190613468565b60405180910390f35b3480156102cd57600080fd5b506102e860048036038101906102e391906134af565b6108c7565b005b3480156102f657600080fd5b50610311600480360381019061030c91906134ef565b6109de565b005b34801561031f57600080fd5b5061033a6004803603810190610335919061351c565b610a2a565b005b34801561034857600080fd5b50610363600480360381019061035e91906133fa565b610a8a565b005b34801561037157600080fd5b5061038c6004803603810190610387919061356f565b610a9e565b60405161039a9291906135be565b60405180910390f35b3480156103af57600080fd5b506103b8610c88565b6040516103c591906133a2565b60405180910390f35b3480156103da57600080fd5b506103f560048036038101906103f0919061351c565b610d16565b005b34801561040357600080fd5b5061040c610d36565b005b34801561041a57600080fd5b50610423610dd7565b60405161043091906135e7565b60405180910390f35b610453600480360381019061044e91906134ef565b610e88565b60405161046091906135e7565b60405180910390f35b34801561047557600080fd5b50610490600480360381019061048b91906133fa565b61102c565b60405161049d9190613468565b60405180910390f35b3480156104b257600080fd5b506104bb6110b2565b6040516104c891906135e7565b60405180910390f35b3480156104dd57600080fd5b506104f860048036038101906104f391906134ef565b6110c2565b60405161050591906135e7565b60405180910390f35b34801561051a57600080fd5b50610523611179565b005b34801561053157600080fd5b5061053a61118d565b6040516105479190613468565b60405180910390f35b34801561055c57600080fd5b506105656111b3565b6040516105729190613468565b60405180910390f35b34801561058757600080fd5b506105906111dd565b60405161059d91906133a2565b60405180910390f35b3480156105b257600080fd5b506105cd60048036038101906105c8919061362e565b61126f565b005b3480156105db57600080fd5b506105f660048036038101906105f1919061370f565b611285565b005b34801561060457600080fd5b5061060d6112e7565b60405161061a91906135e7565b60405180910390f35b34801561062f57600080fd5b506106386112ed565b60405161064591906135e7565b60405180910390f35b34801561065a57600080fd5b50610675600480360381019061067091906133fa565b6112f3565b60405161068291906133a2565b60405180910390f35b34801561069757600080fd5b506106b260048036038101906106ad91906137d6565b611405565b005b3480156106c057600080fd5b506106c961141a565b6040516106d691906135e7565b60405180910390f35b3480156106eb57600080fd5b50610706600480360381019061070191906133fa565b611420565b005b34801561071457600080fd5b5061072f600480360381019061072a9190613803565b611447565b60405161073c9190613170565b60405180910390f35b34801561075157600080fd5b5061076c600480360381019061076791906134ef565b6114db565b005b34801561077a57600080fd5b50610795600480360381019061079091906133fa565b61155e565b005b3480156107a357600080fd5b506107ac611570565b6040516107b99190613468565b60405180910390f35b60006107cd82611596565b9050919050565b6107dc611610565b80600c90816107eb9190613a4f565b5050565b6060600080546107fe90613872565b80601f016020809104026020016040519081016040528092919081815260200182805461082a90613872565b80156108775780601f1061084c57610100808354040283529160200191610877565b820191906000526020600020905b81548152906001019060200180831161085a57829003601f168201915b5050505050905090565b600061088c8261168e565b6004600083815260200190815260200160002060009054906101000a900473ffffffffffffffffffffffffffffffffffffffff169050919050565b60006108d28261102c565b90508073ffffffffffffffffffffffffffffffffffffffff168373ffffffffffffffffffffffffffffffffffffffff1603610942576040517f08c379a000000000000000000000000000000000000000000000000000000000815260040161093990613b93565b60405180910390fd5b8073ffffffffffffffffffffffffffffffffffffffff166109616116d9565b73ffffffffffffffffffffffffffffffffffffffff161480610990575061098f8161098a6116d9565b611447565b5b6109cf576040517f08c379a00000000000000000000000000000000000000000000000000000000081526004016109c690613c25565b60405180910390fd5b6109d983836116e1565b505050565b6109e6611610565b80600e60006101000a81548173ffffffffffffffffffffffffffffffffffffffff021916908373ffffffffffffffffffffffffffffffffffffffff16021790555050565b610a3b610a356116d9565b8261179a565b610a7a576040517f08c379a0000000000000000000000000000000000000000000000000000000008152600401610a7190613cb7565b60405180910390fd5b610a8583838361182f565b505050565b610a92611610565b610a9b81611b28565b50565b6000806000600860008681526020019081526020016000206040518060400160405290816000820160009054906101000a900473ffffffffffffffffffffffffffffffffffffffff1673ffffffffffffffffffffffffffffffffffffffff1673ffffffffffffffffffffffffffffffffffffffff1681526020016000820160149054906101000a90046bffffffffffffffffffffffff166bffffffffffffffffffffffff166bffffffffffffffffffffffff16815250509050600073ffffffffffffffffffffffffffffffffffffffff16816000015173ffffffffffffffffffffffffffffffffffffffff1603610c335760076040518060400160405290816000820160009054906101000a900473ffffffffffffffffffffffffffffffffffffffff1673ffffffffffffffffffffffffffffffffffffffff1673ffffffffffffffffffffffffffffffffffffffff1681526020016000820160149054906101000a90046bffffffffffffffffffffffff166bffffffffffffffffffffffff166bffffffffffffffffffffffff168152505090505b6000610c3d611b45565b6bffffffffffffffffffffffff1682602001516bffffffffffffffffffffffff1686610c699190613d06565b610c739190613d8f565b90508160000151819350935050509250929050565b600c8054610c9590613872565b80601f0160208091040260200160405190810160405280929190818152602001828054610cc190613872565b8015610d0e5780601f10610ce357610100808354040283529160200191610d0e565b820191906000526020600020905b815481529060010190602001808311610cf157829003601f168201915b505050505081565b610d3183838360405180602001604052806000815250611285565b505050565b610d3e611610565b600047905060008111610d86576040517f08c379a0000000000000000000000000000000000000000000000000000000008152600401610d7d90613e0c565b60405180910390fd5b610d8e6111b3565b73ffffffffffffffffffffffffffffffffffffffff166108fc829081150290604051600060405180830381858888f19350505050158015610dd3573d6000803e3d6000fd5b5050565b6000610de1611610565b6000600e60009054906101000a900473ffffffffffffffffffffffffffffffffffffffff1690508073ffffffffffffffffffffffffffffffffffffffff166370a08231306040518263ffffffff1660e01b8152600401610e419190613468565b602060405180830381865afa158015610e5e573d6000803e3d6000fd5b505050506040513d601f19601f82011682018060405250810190610e829190613e41565b91505090565b6000600b54341015610ecf576040517f08c379a0000000000000000000000000000000000000000000000000000000008152600401610ec690613eba565b60405180910390fd5b6000600c8054610ede90613872565b905011610f20576040517f08c379a0000000000000000000000000000000000000000000000000000000008152600401610f1790613f26565b60405180910390fd5b6001600d5403610f65576040517f08c379a0000000000000000000000000000000000000000000000000000000008152600401610f5c90613f92565b60405180910390fd5b610f6d611b4f565b6000610f79600a61205d565b9050610f85600a61206b565b610f8f8382612081565b61102381600c8054610fa090613872565b80601f0160208091040260200160405190810160405280929190818152602001828054610fcc90613872565b80156110195780601f10610fee57610100808354040283529160200191611019565b820191906000526020600020905b815481529060010190602001808311610ffc57829003601f168201915b505050505061209f565b80915050919050565b60008061103883612143565b9050600073ffffffffffffffffffffffffffffffffffffffff168173ffffffffffffffffffffffffffffffffffffffff16036110a9576040517f08c379a00000000000000000000000000000000000000000000000000000000081526004016110a090613ffe565b60405180910390fd5b80915050919050565b60006110bc611610565b47905090565b60008073ffffffffffffffffffffffffffffffffffffffff168273ffffffffffffffffffffffffffffffffffffffff1603611132576040517f08c379a000000000000000000000000000000000000000000000000000000000815260040161112990614090565b60405180910390fd5b600360008373ffffffffffffffffffffffffffffffffffffffff1673ffffffffffffffffffffffffffffffffffffffff168152602001908152602001600020549050919050565b611181611610565b61118b6000612180565b565b600e60009054906101000a900473ffffffffffffffffffffffffffffffffffffffff1681565b6000600960009054906101000a900473ffffffffffffffffffffffffffffffffffffffff16905090565b6060600180546111ec90613872565b80601f016020809104026020016040519081016040528092919081815260200182805461121890613872565b80156112655780601f1061123a57610100808354040283529160200191611265565b820191906000526020600020905b81548152906001019060200180831161124857829003601f168201915b5050505050905090565b61128161127a6116d9565b8383612246565b5050565b6112966112906116d9565b8361179a565b6112d5576040517f08c379a00000000000000000000000000000000000000000000000000000000081526004016112cc90613cb7565b60405180910390fd5b6112e1848484846123b2565b50505050565b600b5481565b60105481565b60606112fe8261168e565b600060066000848152602001908152602001600020805461131e90613872565b80601f016020809104026020016040519081016040528092919081815260200182805461134a90613872565b80156113975780601f1061136c57610100808354040283529160200191611397565b820191906000526020600020905b81548152906001019060200180831161137a57829003601f168201915b5050505050905060006113a861240e565b905060008151036113bd578192505050611400565b6000825111156113f25780826040516020016113da9291906140ec565b60405160208183030381529060405292505050611400565b6113fb84612425565b925050505b919050565b61140d611610565b611417338261248d565b50565b600d5481565b611428611610565b60008114806114375750600181145b156114445780600d819055505b50565b6000600560008473ffffffffffffffffffffffffffffffffffffffff1673ffffffffffffffffffffffffffffffffffffffff16815260200190815260200160002060008373ffffffffffffffffffffffffffffffffffffffff1673ffffffffffffffffffffffffffffffffffffffff16815260200190815260200160002060009054906101000a900460ff16905092915050565b6114e3611610565b600073ffffffffffffffffffffffffffffffffffffffff168173ffffffffffffffffffffffffffffffffffffffff1603611552576040517f08c379a000000000000000000000000000000000000000000000000000000000815260040161154990614182565b60405180910390fd5b61155b81612180565b50565b611566611610565b80600b8190555050565b600f60009054906101000a900473ffffffffffffffffffffffffffffffffffffffff1681565b60007f2a55205a000000000000000000000000000000000000000000000000000000007bffffffffffffffffffffffffffffffffffffffffffffffffffffffff1916827bffffffffffffffffffffffffffffffffffffffffffffffffffffffff19161480611609575061160882612622565b5b9050919050565b6116186116d9565b73ffffffffffffffffffffffffffffffffffffffff166116366111b3565b73ffffffffffffffffffffffffffffffffffffffff161461168c576040517f08c379a0000000000000000000000000000000000000000000000000000000008152600401611683906141ee565b60405180910390fd5b565b61169781612683565b6116d6576040517f08c379a00000000000000000000000000000000000000000000000000000000081526004016116cd90613ffe565b60405180910390fd5b50565b600033905090565b816004600083815260200190815260200160002060006101000a81548173ffffffffffffffffffffffffffffffffffffffff021916908373ffffffffffffffffffffffffffffffffffffffff160217905550808273ffffffffffffffffffffffffffffffffffffffff166117548361102c565b73ffffffffffffffffffffffffffffffffffffffff167f8c5be1e5ebec7d5bd14f71427d1e84f3dd0314c0f7b2291e5b200ac8c7c3b92560405160405180910390a45050565b6000806117a68361102c565b90508073ffffffffffffffffffffffffffffffffffffffff168473ffffffffffffffffffffffffffffffffffffffff1614806117e857506117e78185611447565b5b8061182657508373ffffffffffffffffffffffffffffffffffffffff1661180e84610881565b73ffffffffffffffffffffffffffffffffffffffff16145b91505092915050565b8273ffffffffffffffffffffffffffffffffffffffff1661184f8261102c565b73ffffffffffffffffffffffffffffffffffffffff16146118a5576040517f08c379a000000000000000000000000000000000000000000000000000000000815260040161189c90614280565b60405180910390fd5b600073ffffffffffffffffffffffffffffffffffffffff168273ffffffffffffffffffffffffffffffffffffffff1603611914576040517f08c379a000000000000000000000000000000000000000000000000000000000815260040161190b90614312565b60405180910390fd5b61192183838360016126c4565b8273ffffffffffffffffffffffffffffffffffffffff166119418261102c565b73ffffffffffffffffffffffffffffffffffffffff1614611997576040517f08c379a000000000000000000000000000000000000000000000000000000000815260040161198e90614280565b60405180910390fd5b6004600082815260200190815260200160002060006101000a81549073ffffffffffffffffffffffffffffffffffffffff02191690556001600360008573ffffffffffffffffffffffffffffffffffffffff1673ffffffffffffffffffffffffffffffffffffffff168152602001908152602001600020600082825403925050819055506001600360008473ffffffffffffffffffffffffffffffffffffffff1673ffffffffffffffffffffffffffffffffffffffff16815260200190815260200160002060008282540192505081905550816002600083815260200190815260200160002060006101000a81548173ffffffffffffffffffffffffffffffffffffffff021916908373ffffffffffffffffffffffffffffffffffffffff160217905550808273ffffffffffffffffffffffffffffffffffffffff168473ffffffffffffffffffffffffffffffffffffffff167fddf252ad1be2c89b69c2b068fc378daa952ba7f163c4a11628f55a4df523b3ef60405160405180910390a4611b2383838360016126ca565b505050565b611b30611610565b611b39816126d0565b611b4281612723565b50565b6000612710905090565b6000600267ffffffffffffffff811115611b6c57611b6b6131a6565b5b604051908082528060200260200182016040528015611b9a5781602001602082028036833780820191505090505b5090506000606460105447611baf9190613d06565b611bb99190613d8f565b905060008111611bfe576040517f08c379a0000000000000000000000000000000000000000000000000000000008152600401611bf59061437e565b60405180910390fd5b6000601160009054906101000a900473ffffffffffffffffffffffffffffffffffffffff1673ffffffffffffffffffffffffffffffffffffffff1663ad5c46486040518163ffffffff1660e01b8152600401602060405180830381865afa158015611c6d573d6000803e3d6000fd5b505050506040513d601f19601f82011682018060405250810190611c9191906143b3565b90508083600081518110611ca857611ca76143e0565b5b602002602001019073ffffffffffffffffffffffffffffffffffffffff16908173ffffffffffffffffffffffffffffffffffffffff1681525050600e60009054906101000a900473ffffffffffffffffffffffffffffffffffffffff1683600181518110611d1957611d186143e0565b5b602002602001019073ffffffffffffffffffffffffffffffffffffffff16908173ffffffffffffffffffffffffffffffffffffffff168152505060008211611d96576040517f08c379a0000000000000000000000000000000000000000000000000000000008152600401611d8d9061437e565b60405180910390fd5b60003090506000606442611daa919061440f565b9050601160009054906101000a900473ffffffffffffffffffffffffffffffffffffffff1673ffffffffffffffffffffffffffffffffffffffff16637ff36ab585868886866040518663ffffffff1660e01b8152600401611e0e9493929190614523565b60006040518083038185885af1158015611e2c573d6000803e3d6000fd5b50505050506040513d6000823e3d601f19601f82011682018060405250810190611e569190614637565b506000600e60009054906101000a900473ffffffffffffffffffffffffffffffffffffffff16905060008173ffffffffffffffffffffffffffffffffffffffff166370a08231306040518263ffffffff1660e01b8152600401611eb99190613468565b602060405180830381865afa158015611ed6573d6000803e3d6000fd5b505050506040513d601f19601f82011682018060405250810190611efa9190613e41565b1015611f3b576040517f08c379a0000000000000000000000000000000000000000000000000000000008152600401611f3290613eba565b60405180910390fd5b8073ffffffffffffffffffffffffffffffffffffffff1663a9059cbb600f60009054906101000a900473ffffffffffffffffffffffffffffffffffffffff168373ffffffffffffffffffffffffffffffffffffffff166370a08231306040518263ffffffff1660e01b8152600401611fb39190613468565b602060405180830381865afa158015611fd0573d6000803e3d6000fd5b505050506040513d601f19601f82011682018060405250810190611ff49190613e41565b6040518363ffffffff1660e01b81526004016120119291906135be565b6020604051808303816000875af1158015612030573d6000803e3d6000fd5b505050506040513d601f19601f820116820180604052508101906120549190614695565b50505050505050565b600081600001549050919050565b6001816000016000828254019250508190555050565b61209b828260405180602001604052806000815250612782565b5050565b6120a882612683565b6120e7576040517f08c379a00000000000000000000000000000000000000000000000000000000081526004016120de90614734565b60405180910390fd5b806006600084815260200190815260200160002090816121079190613a4f565b507ff8e1a15aba9398e019f0b49df1a4fde98ee17ae345cb5f6b5e2c27f5033e8ce78260405161213791906135e7565b60405180910390a15050565b60006002600083815260200190815260200160002060009054906101000a900473ffffffffffffffffffffffffffffffffffffffff169050919050565b6000600960009054906101000a900473ffffffffffffffffffffffffffffffffffffffff16905081600960006101000a81548173ffffffffffffffffffffffffffffffffffffffff021916908373ffffffffffffffffffffffffffffffffffffffff1602179055508173ffffffffffffffffffffffffffffffffffffffff168173ffffffffffffffffffffffffffffffffffffffff167f8be0079c531659141344cd1fd0a4f28419497f9722a3daafe3b4186f6b6457e060405160405180910390a35050565b8173ffffffffffffffffffffffffffffffffffffffff168373ffffffffffffffffffffffffffffffffffffffff16036122b4576040517f08c379a00000000000000000000000000000000000000000000000000000000081526004016122ab906147a0565b60405180910390fd5b80600560008573ffffffffffffffffffffffffffffffffffffffff1673ffffffffffffffffffffffffffffffffffffffff16815260200190815260200160002060008473ffffffffffffffffffffffffffffffffffffffff1673ffffffffffffffffffffffffffffffffffffffff16815260200190815260200160002060006101000a81548160ff0219169083151502179055508173ffffffffffffffffffffffffffffffffffffffff168373ffffffffffffffffffffffffffffffffffffffff167f17307eab39ab6107e8899845ad3d59bd9653f200f220920489ca2b5937696c31836040516123a59190613170565b60405180910390a3505050565b6123bd84848461182f565b6123c9848484846127dd565b612408576040517f08c379a00000000000000000000000000000000000000000000000000000000081526004016123ff90614832565b60405180910390fd5b50505050565b606060405180602001604052806000815250905090565b60606124308261168e565b600061243a61240e565b9050600081511161245a5760405180602001604052806000815250612485565b8061246484612964565b6040516020016124759291906140ec565b6040516020818303038152906040525b915050919050565b612495611b45565b6bffffffffffffffffffffffff16816bffffffffffffffffffffffff1611156124f3576040517f08c379a00000000000000000000000000000000000000000000000000000000081526004016124ea906148c4565b60405180910390fd5b600073ffffffffffffffffffffffffffffffffffffffff168273ffffffffffffffffffffffffffffffffffffffff1603612562576040517f08c379a000000000000000000000000000000000000000000000000000000000815260040161255990614930565b60405180910390fd5b60405180604001604052808373ffffffffffffffffffffffffffffffffffffffff168152602001826bffffffffffffffffffffffff16815250600760008201518160000160006101000a81548173ffffffffffffffffffffffffffffffffffffffff021916908373ffffffffffffffffffffffffffffffffffffffff16021790555060208201518160000160146101000a8154816bffffffffffffffffffffffff02191690836bffffffffffffffffffffffff1602179055509050505050565b6000634906490660e01b7bffffffffffffffffffffffffffffffffffffffffffffffffffffffff1916827bffffffffffffffffffffffffffffffffffffffffffffffffffffffff1916148061267c575061267b82612a32565b5b9050919050565b60008073ffffffffffffffffffffffffffffffffffffffff166126a583612143565b73ffffffffffffffffffffffffffffffffffffffff1614159050919050565b50505050565b50505050565b6126d981612b14565b60006006600083815260200190815260200160002080546126f990613872565b9050146127205760066000828152602001908152602001600020600061271f919061305f565b5b50565b60086000828152602001908152602001600020600080820160006101000a81549073ffffffffffffffffffffffffffffffffffffffff02191690556000820160146101000a8154906bffffffffffffffffffffffff0219169055505050565b61278c8383612c62565b61279960008484846127dd565b6127d8576040517f08c379a00000000000000000000000000000000000000000000000000000000081526004016127cf90614832565b60405180910390fd5b505050565b60006127fe8473ffffffffffffffffffffffffffffffffffffffff16612e7f565b15612957578373ffffffffffffffffffffffffffffffffffffffff1663150b7a026128276116d9565b8786866040518563ffffffff1660e01b815260040161284994939291906149a5565b6020604051808303816000875af192505050801561288557506040513d601f19601f820116820180604052508101906128829190614a06565b60015b612907573d80600081146128b5576040519150601f19603f3d011682016040523d82523d6000602084013e6128ba565b606091505b5060008151036128ff576040517f08c379a00000000000000000000000000000000000000000000000000000000081526004016128f690614832565b60405180910390fd5b805181602001fd5b63150b7a0260e01b7bffffffffffffffffffffffffffffffffffffffffffffffffffffffff1916817bffffffffffffffffffffffffffffffffffffffffffffffffffffffff19161491505061295c565b600190505b949350505050565b60606000600161297384612ea2565b01905060008167ffffffffffffffff811115612992576129916131a6565b5b6040519080825280601f01601f1916602001820160405280156129c45781602001600182028036833780820191505090505b509050600082602001820190505b600115612a27578080600190039150507f3031323334353637383961626364656600000000000000000000000000000000600a86061a8153600a8581612a1b57612a1a613d60565b5b049450600085036129d2575b819350505050919050565b60007f80ac58cd000000000000000000000000000000000000000000000000000000007bffffffffffffffffffffffffffffffffffffffffffffffffffffffff1916827bffffffffffffffffffffffffffffffffffffffffffffffffffffffff19161480612afd57507f5b5e139f000000000000000000000000000000000000000000000000000000007bffffffffffffffffffffffffffffffffffffffffffffffffffffffff1916827bffffffffffffffffffffffffffffffffffffffffffffffffffffffff1916145b80612b0d5750612b0c82612ff5565b5b9050919050565b6000612b1f8261102c565b9050612b2f8160008460016126c4565b612b388261102c565b90506004600083815260200190815260200160002060006101000a81549073ffffffffffffffffffffffffffffffffffffffff02191690556001600360008373ffffffffffffffffffffffffffffffffffffffff1673ffffffffffffffffffffffffffffffffffffffff168152602001908152602001600020600082825403925050819055506002600083815260200190815260200160002060006101000a81549073ffffffffffffffffffffffffffffffffffffffff021916905581600073ffffffffffffffffffffffffffffffffffffffff168273ffffffffffffffffffffffffffffffffffffffff167fddf252ad1be2c89b69c2b068fc378daa952ba7f163c4a11628f55a4df523b3ef60405160405180910390a4612c5e8160008460016126ca565b5050565b600073ffffffffffffffffffffffffffffffffffffffff168273ffffffffffffffffffffffffffffffffffffffff1603612cd1576040517f08c379a0000000000000000000000000000000000000000000000000000000008152600401612cc890614a7f565b60405180910390fd5b612cda81612683565b15612d1a576040517f08c379a0000000000000000000000000000000000000000000000000000000008152600401612d1190614aeb565b60405180910390fd5b612d286000838360016126c4565b612d3181612683565b15612d71576040517f08c379a0000000000000000000000000000000000000000000000000000000008152600401612d6890614aeb565b60405180910390fd5b6001600360008473ffffffffffffffffffffffffffffffffffffffff1673ffffffffffffffffffffffffffffffffffffffff16815260200190815260200160002060008282540192505081905550816002600083815260200190815260200160002060006101000a81548173ffffffffffffffffffffffffffffffffffffffff021916908373ffffffffffffffffffffffffffffffffffffffff160217905550808273ffffffffffffffffffffffffffffffffffffffff16600073ffffffffffffffffffffffffffffffffffffffff167fddf252ad1be2c89b69c2b068fc378daa952ba7f163c4a11628f55a4df523b3ef60405160405180910390a4612e7b6000838360016126ca565b5050565b6000808273ffffffffffffffffffffffffffffffffffffffff163b119050919050565b600080600090507a184f03e93ff9f4daa797ed6e38ed64bf6a1f0100000000000000008310612f00577a184f03e93ff9f4daa797ed6e38ed64bf6a1f0100000000000000008381612ef657612ef5613d60565b5b0492506040810190505b6d04ee2d6d415b85acef81000000008310612f3d576d04ee2d6d415b85acef81000000008381612f3357612f32613d60565b5b0492506020810190505b662386f26fc100008310612f6c57662386f26fc100008381612f6257612f61613d60565b5b0492506010810190505b6305f5e1008310612f95576305f5e1008381612f8b57612f8a613d60565b5b0492506008810190505b6127108310612fba576127108381612fb057612faf613d60565b5b0492506004810190505b60648310612fdd5760648381612fd357612fd2613d60565b5b0492506002810190505b600a8310612fec576001810190505b80915050919050565b60007f01ffc9a7000000000000000000000000000000000000000000000000000000007bffffffffffffffffffffffffffffffffffffffffffffffffffffffff1916827bffffffffffffffffffffffffffffffffffffffffffffffffffffffff1916149050919050565b50805461306b90613872565b6000825580601f1061307d575061309c565b601f01602090049060005260206000209081019061309b919061309f565b5b50565b5b808211156130b85760008160009055506001016130a0565b5090565b6000604051905090565b600080fd5b600080fd5b60007fffffffff0000000000000000000000000000000000000000000000000000000082169050919050565b613105816130d0565b811461311057600080fd5b50565b600081359050613122816130fc565b92915050565b60006020828403121561313e5761313d6130c6565b5b600061314c84828501613113565b91505092915050565b60008115159050919050565b61316a81613155565b82525050565b60006020820190506131856000830184613161565b92915050565b600080fd5b600080fd5b6000601f19601f8301169050919050565b7f4e487b7100000000000000000000000000000000000000000000000000000000600052604160045260246000fd5b6131de82613195565b810181811067ffffffffffffffff821117156131fd576131fc6131a6565b5b80604052505050565b60006132106130bc565b905061321c82826131d5565b919050565b600067ffffffffffffffff82111561323c5761323b6131a6565b5b61324582613195565b9050602081019050919050565b82818337600083830152505050565b600061327461326f84613221565b613206565b9050828152602081018484840111156132905761328f613190565b5b61329b848285613252565b509392505050565b600082601f8301126132b8576132b761318b565b5b81356132c8848260208601613261565b91505092915050565b6000602082840312156132e7576132e66130c6565b5b600082013567ffffffffffffffff811115613305576133046130cb565b5b613311848285016132a3565b91505092915050565b600081519050919050565b600082825260208201905092915050565b60005b83811015613354578082015181840152602081019050613339565b83811115613363576000848401525b50505050565b60006133748261331a565b61337e8185613325565b935061338e818560208601613336565b61339781613195565b840191505092915050565b600060208201905081810360008301526133bc8184613369565b905092915050565b6000819050919050565b6133d7816133c4565b81146133e257600080fd5b50565b6000813590506133f4816133ce565b92915050565b6000602082840312156134105761340f6130c6565b5b600061341e848285016133e5565b91505092915050565b600073ffffffffffffffffffffffffffffffffffffffff82169050919050565b600061345282613427565b9050919050565b61346281613447565b82525050565b600060208201905061347d6000830184613459565b92915050565b61348c81613447565b811461349757600080fd5b50565b6000813590506134a981613483565b92915050565b600080604083850312156134c6576134c56130c6565b5b60006134d48582860161349a565b92505060206134e5858286016133e5565b9150509250929050565b600060208284031215613505576135046130c6565b5b60006135138482850161349a565b91505092915050565b600080600060608486031215613535576135346130c6565b5b60006135438682870161349a565b93505060206135548682870161349a565b9250506040613565868287016133e5565b9150509250925092565b60008060408385031215613586576135856130c6565b5b6000613594858286016133e5565b92505060206135a5858286016133e5565b9150509250929050565b6135b8816133c4565b82525050565b60006040820190506135d36000830185613459565b6135e060208301846135af565b9392505050565b60006020820190506135fc60008301846135af565b92915050565b61360b81613155565b811461361657600080fd5b50565b60008135905061362881613602565b92915050565b60008060408385031215613645576136446130c6565b5b60006136538582860161349a565b925050602061366485828601613619565b9150509250929050565b600067ffffffffffffffff821115613689576136886131a6565b5b61369282613195565b9050602081019050919050565b60006136b26136ad8461366e565b613206565b9050828152602081018484840111156136ce576136cd613190565b5b6136d9848285613252565b509392505050565b600082601f8301126136f6576136f561318b565b5b813561370684826020860161369f565b91505092915050565b60008060008060808587031215613729576137286130c6565b5b60006137378782880161349a565b94505060206137488782880161349a565b9350506040613759878288016133e5565b925050606085013567ffffffffffffffff81111561377a576137796130cb565b5b613786878288016136e1565b91505092959194509250565b60006bffffffffffffffffffffffff82169050919050565b6137b381613792565b81146137be57600080fd5b50565b6000813590506137d0816137aa565b92915050565b6000602082840312156137ec576137eb6130c6565b5b60006137fa848285016137c1565b91505092915050565b6000806040838503121561381a576138196130c6565b5b60006138288582860161349a565b92505060206138398582860161349a565b9150509250929050565b7f4e487b7100000000000000000000000000000000000000000000000000000000600052602260045260246000fd5b6000600282049050600182168061388a57607f821691505b60208210810361389d5761389c613843565b5b50919050565b60008190508160005260206000209050919050565b60006020601f8301049050919050565b600082821b905092915050565b6000600883026139057fffffffffffffffffffffffffffffffffffffffffffffffffffffffffffffffff826138c8565b61390f86836138c8565b95508019841693508086168417925050509392505050565b6000819050919050565b600061394c613947613942846133c4565b613927565b6133c4565b9050919050565b6000819050919050565b61396683613931565b61397a61397282613953565b8484546138d5565b825550505050565b600090565b61398f613982565b61399a81848461395d565b505050565b5b818110156139be576139b3600082613987565b6001810190506139a0565b5050565b601f821115613a03576139d4816138a3565b6139dd846138b8565b810160208510156139ec578190505b613a006139f8856138b8565b83018261399f565b50505b505050565b600082821c905092915050565b6000613a2660001984600802613a08565b1980831691505092915050565b6000613a3f8383613a15565b9150826002028217905092915050565b613a588261331a565b67ffffffffffffffff811115613a7157613a706131a6565b5b613a7b8254613872565b613a868282856139c2565b600060209050601f831160018114613ab95760008415613aa7578287015190505b613ab18582613a33565b865550613b19565b601f198416613ac7866138a3565b60005b82811015613aef57848901518255600182019150602085019450602081019050613aca565b86831015613b0c5784890151613b08601f891682613a15565b8355505b6001600288020188555050505b505050505050565b7f4552433732313a20617070726f76616c20746f2063757272656e74206f776e6560008201527f7200000000000000000000000000000000000000000000000000000000000000602082015250565b6000613b7d602183613325565b9150613b8882613b21565b604082019050919050565b60006020820190508181036000830152613bac81613b70565b9050919050565b7f4552433732313a20617070726f76652063616c6c6572206973206e6f7420746f60008201527f6b656e206f776e6572206f7220617070726f76656420666f7220616c6c000000602082015250565b6000613c0f603d83613325565b9150613c1a82613bb3565b604082019050919050565b60006020820190508181036000830152613c3e81613c02565b9050919050565b7f4552433732313a2063616c6c6572206973206e6f7420746f6b656e206f776e6560008201527f72206f7220617070726f76656400000000000000000000000000000000000000602082015250565b6000613ca1602d83613325565b9150613cac82613c45565b604082019050919050565b60006020820190508181036000830152613cd081613c94565b9050919050565b7f4e487b7100000000000000000000000000000000000000000000000000000000600052601160045260246000fd5b6000613d11826133c4565b9150613d1c836133c4565b9250817fffffffffffffffffffffffffffffffffffffffffffffffffffffffffffffffff0483118215151615613d5557613d54613cd7565b5b828202905092915050565b7f4e487b7100000000000000000000000000000000000000000000000000000000600052601260045260246000fd5b6000613d9a826133c4565b9150613da5836133c4565b925082613db557613db4613d60565b5b828204905092915050565b7f436f6e74726163742062616c616e6365206973207a65726f0000000000000000600082015250565b6000613df6601883613325565b9150613e0182613dc0565b602082019050919050565b60006020820190508181036000830152613e2581613de9565b9050919050565b600081519050613e3b816133ce565b92915050565b600060208284031215613e5757613e566130c6565b5b6000613e6584828501613e2c565b91505092915050565b7f496e73756666696369656e742066756e64730000000000000000000000000000600082015250565b6000613ea4601283613325565b9150613eaf82613e6e565b602082019050919050565b60006020820190508181036000830152613ed381613e97565b9050919050565b7f546f6b656e20555249206e6f7420736574207965740000000000000000000000600082015250565b6000613f10601583613325565b9150613f1b82613eda565b602082019050919050565b60006020820190508181036000830152613f3f81613f03565b9050919050565b7f436f6e7472616374204c6f636b65640000000000000000000000000000000000600082015250565b6000613f7c600f83613325565b9150613f8782613f46565b602082019050919050565b60006020820190508181036000830152613fab81613f6f565b9050919050565b7f4552433732313a20696e76616c696420746f6b656e2049440000000000000000600082015250565b6000613fe8601883613325565b9150613ff382613fb2565b602082019050919050565b6000602082019050818103600083015261401781613fdb565b9050919050565b7f4552433732313a2061646472657373207a65726f206973206e6f74206120766160008201527f6c6964206f776e65720000000000000000000000000000000000000000000000602082015250565b600061407a602983613325565b91506140858261401e565b604082019050919050565b600060208201905081810360008301526140a98161406d565b9050919050565b600081905092915050565b60006140c68261331a565b6140d081856140b0565b93506140e0818560208601613336565b80840191505092915050565b60006140f882856140bb565b915061410482846140bb565b91508190509392505050565b7f4f776e61626c653a206e6577206f776e657220697320746865207a65726f206160008201527f6464726573730000000000000000000000000000000000000000000000000000602082015250565b600061416c602683613325565b915061417782614110565b604082019050919050565b6000602082019050818103600083015261419b8161415f565b9050919050565b7f4f776e61626c653a2063616c6c6572206973206e6f7420746865206f776e6572600082015250565b60006141d8602083613325565b91506141e3826141a2565b602082019050919050565b60006020820190508181036000830152614207816141cb565b9050919050565b7f4552433732313a207472616e736665722066726f6d20696e636f72726563742060008201527f6f776e6572000000000000000000000000000000000000000000000000000000602082015250565b600061426a602583613325565b91506142758261420e565b604082019050919050565b600060208201905081810360008301526142998161425d565b9050919050565b7f4552433732313a207472616e7366657220746f20746865207a65726f2061646460008201527f7265737300000000000000000000000000000000000000000000000000000000602082015250565b60006142fc602483613325565b9150614307826142a0565b604082019050919050565b6000602082019050818103600083015261432b816142ef565b9050919050565b7f796f752068617665206e6f206574682079657400000000000000000000000000600082015250565b6000614368601383613325565b915061437382614332565b602082019050919050565b600060208201905081810360008301526143978161435b565b9050919050565b6000815190506143ad81613483565b92915050565b6000602082840312156143c9576143c86130c6565b5b60006143d78482850161439e565b91505092915050565b7f4e487b7100000000000000000000000000000000000000000000000000000000600052603260045260246000fd5b600061441a826133c4565b9150614425836133c4565b9250827fffffffffffffffffffffffffffffffffffffffffffffffffffffffffffffffff0382111561445a57614459613cd7565b5b828201905092915050565b600081519050919050565b600082825260208201905092915050565b6000819050602082019050919050565b61449a81613447565b82525050565b60006144ac8383614491565b60208301905092915050565b6000602082019050919050565b60006144d082614465565b6144da8185614470565b93506144e583614481565b8060005b838110156145165781516144fd88826144a0565b9750614508836144b8565b9250506001810190506144e9565b5085935050505092915050565b600060808201905061453860008301876135af565b818103602083015261454a81866144c5565b90506145596040830185613459565b61456660608301846135af565b95945050505050565b600067ffffffffffffffff82111561458a576145896131a6565b5b602082029050602081019050919050565b600080fd5b60006145b36145ae8461456f565b613206565b905080838252602082019050602084028301858111156145d6576145d561459b565b5b835b818110156145ff57806145eb8882613e2c565b8452602084019350506020810190506145d8565b5050509392505050565b600082601f83011261461e5761461d61318b565b5b815161462e8482602086016145a0565b91505092915050565b60006020828403121561464d5761464c6130c6565b5b600082015167ffffffffffffffff81111561466b5761466a6130cb565b5b61467784828501614609565b91505092915050565b60008151905061468f81613602565b92915050565b6000602082840312156146ab576146aa6130c6565b5b60006146b984828501614680565b91505092915050565b7f45524337323155524953746f726167653a2055524920736574206f66206e6f6e60008201527f6578697374656e7420746f6b656e000000000000000000000000000000000000602082015250565b600061471e602e83613325565b9150614729826146c2565b604082019050919050565b6000602082019050818103600083015261474d81614711565b9050919050565b7f4552433732313a20617070726f766520746f2063616c6c657200000000000000600082015250565b600061478a601983613325565b915061479582614754565b602082019050919050565b600060208201905081810360008301526147b98161477d565b9050919050565b7f4552433732313a207472616e7366657220746f206e6f6e20455243373231526560008201527f63656976657220696d706c656d656e7465720000000000000000000000000000602082015250565b600061481c603283613325565b9150614827826147c0565b604082019050919050565b6000602082019050818103600083015261484b8161480f565b9050919050565b7f455243323938313a20726f79616c7479206665652077696c6c2065786365656460008201527f2073616c65507269636500000000000000000000000000000000000000000000602082015250565b60006148ae602a83613325565b91506148b982614852565b604082019050919050565b600060208201905081810360008301526148dd816148a1565b9050919050565b7f455243323938313a20696e76616c696420726563656976657200000000000000600082015250565b600061491a601983613325565b9150614925826148e4565b602082019050919050565b600060208201905081810360008301526149498161490d565b9050919050565b600081519050919050565b600082825260208201905092915050565b600061497782614950565b614981818561495b565b9350614991818560208601613336565b61499a81613195565b840191505092915050565b60006080820190506149ba6000830187613459565b6149c76020830186613459565b6149d460408301856135af565b81810360608301526149e6818461496c565b905095945050505050565b600081519050614a00816130fc565b92915050565b600060208284031215614a1c57614a1b6130c6565b5b6000614a2a848285016149f1565b91505092915050565b7f4552433732313a206d696e7420746f20746865207a65726f2061646472657373600082015250565b6000614a69602083613325565b9150614a7482614a33565b602082019050919050565b60006020820190508181036000830152614a9881614a5c565b9050919050565b7f4552433732313a20746f6b656e20616c7265616479206d696e74656400000000600082015250565b6000614ad5601c83613325565b9150614ae082614a9f565b602082019050919050565b60006020820190508181036000830152614b0481614ac8565b905091905056fea26469706673582212205cde6597f61897b4fae84347c5fe51e379c3c971344b878f09565f84d3dcfbbd64736f6c634300080f0033",
  "immutableReferences": {},
  "source": "// SPDX-License-Identifier: MIT\npragma solidity >=0.4.22 <0.9.0;\n\nimport \"@openzeppelin/contracts/token/common/ERC2981.sol\";\nimport \"@openzeppelin/contracts/token/ERC721/extensions/ERC721URIStorage.sol\";\nimport \"@openzeppelin/contracts/access/Ownable.sol\";\nimport \"@openzeppelin/contracts/utils/Counters.sol\";\nimport \"@openzeppelin/contracts/token/ERC20/IERC20.sol\";\nimport \"@uniswap/v2-periphery/contracts/interfaces/IUniswapV2Router02.sol\";\n\ncontract LaelapsMasterKey is ERC721URIStorage, ERC2981, Ownable {\n  using Counters for Counters.Counter;\n  Counters.Counter private _tokenIds;\n  uint256 public mintCost = 100000;\n  string public tokenURI;\n  uint256 public locked = 0;\n  address private constant UNISWAP_ROUTER_ADDRESS = 0x7a250d5630B4cF539739dF2C5dAcb4c659F2488D;\n  address public LAELAPS_ADDRESS = 0x6C059413686565D5aD6cce6EED7742c42DbC44CA;\n  address public BURN_ADDRESS = 0x000000000000000000000000000000000000dEaD;\n  uint256 public percentage = 100;\n\n  IUniswapV2Router02 private uniswapRouter;\n\n  \n  constructor(string memory _uri) ERC721(\"Laelaps Master Key\", \"LMK\") {\n    _setDefaultRoyalty(msg.sender, 100);\n    tokenURI = _uri;\n    uniswapRouter = IUniswapV2Router02(UNISWAP_ROUTER_ADDRESS);\n  }\n\n  function setTokenUri(string memory _uri) public onlyOwner {\n    tokenURI = _uri;\n  }\n\n  function setMintPrice(uint256 _mintPrice) public onlyOwner {\n    mintCost = _mintPrice;\n  }\n\n  function setRoyalty(uint96 _royalty) public onlyOwner {\n    _setDefaultRoyalty(msg.sender, _royalty);\n  }\n\n  function getContractBalance() public view onlyOwner returns (uint256) {\n    return address(this).balance;\n  }\n\n  function getLaelapsBalance() public view onlyOwner returns (uint256) {\n    IERC20 laelaps_token = IERC20(LAELAPS_ADDRESS);\n    return laelaps_token.balanceOf(address(this));\n  }\n\n  function supportsInterface(bytes4 interfaceId)\n    public view virtual override(ERC2981, ERC721URIStorage)\n    returns (bool) {\n      return super.supportsInterface(interfaceId);\n  }\n\n  function _burn(uint256 tokenId) internal virtual override onlyOwner{\n    super._burn(tokenId);\n    _resetTokenRoyalty(tokenId);\n  }\n\n  function burnNFT(uint256 tokenId)\n    public onlyOwner {\n      _burn(tokenId);\n  }\n\n  function lock(uint256 _lock) public onlyOwner {\n    if (_lock == 0 || _lock == 1){\n      locked = _lock;\n    }\n  }\n\n  function changeLaelapsAddress(address _addr) public onlyOwner {\n    LAELAPS_ADDRESS = _addr;\n  }\n\n  function transferBalanceToOwner() public onlyOwner {\n     uint256 balance = address(this).balance;\n     require(balance > 0, \"Contract balance is zero\");\n     payable(owner()).transfer(balance);\n  }\n\n  function mintNFT(address recipient)\n    public payable \n    returns (uint256) {\n      require(msg.value >= mintCost, \"Insufficient funds\");\n      require(bytes(tokenURI).length > 0, \"Token URI not set yet\");\n      require(locked != 1, \"Contract Locked\");\n      buyAndBurnLaelaps();\n      uint256 newItemId = _tokenIds.current();\n      _tokenIds.increment();\n      _safeMint(recipient, newItemId);\n      _setTokenURI(newItemId, tokenURI);\n      return newItemId;\n  }\n\n  function buyAndBurnLaelaps() internal {\n    address[] memory path = new address[](2);\n    uint amountOutMin = address(this).balance * percentage / 100;\n    require(amountOutMin > 0, \"you have no eth yet\");\n    address WETH_ADDRESS = uniswapRouter.WETH();\n    path[0] = WETH_ADDRESS;\n    path[1] = LAELAPS_ADDRESS;\n    require(amountOutMin > 0, \"you have no eth yet\");\n    address to = address(this);\n    uint deadline = block.timestamp + 100;\n    uniswapRouter.swapExactETHForTokens{ value: amountOutMin }(amountOutMin, path, to, deadline);\n    IERC20 laelaps_token = IERC20(LAELAPS_ADDRESS);\n    require(laelaps_token.balanceOf(address(this)) >= 0, \"Insufficient funds\");\n    laelaps_token.transfer(BURN_ADDRESS, laelaps_token.balanceOf(address(this)));\n\n\n  }\n  \n\n}\n\n\n",
  "sourcePath": "/Users/Jesse.Jacob/Documents/laelaps/nft-royalty/contracts/LaelapsMasterKey.sol",
  "compiler": {
    "name": "solc",
    "version": "0.8.15+commit.e14f2714.Emscripten.clang"
  },
  "schemaVersion": "3.4.12",
  "updatedAt": "2023-06-04T17:09:13.349Z",
  "devdoc": {
    "kind": "dev",
    "methods": {
      "approve(address,uint256)": {
        "details": "See {IERC721-approve}."
      },
      "balanceOf(address)": {
        "details": "See {IERC721-balanceOf}."
      },
      "getApproved(uint256)": {
        "details": "See {IERC721-getApproved}."
      },
      "isApprovedForAll(address,address)": {
        "details": "See {IERC721-isApprovedForAll}."
      },
      "name()": {
        "details": "See {IERC721Metadata-name}."
      },
      "owner()": {
        "details": "Returns the address of the current owner."
      },
      "ownerOf(uint256)": {
        "details": "See {IERC721-ownerOf}."
      },
      "renounceOwnership()": {
        "details": "Leaves the contract without owner. It will not be possible to call `onlyOwner` functions. Can only be called by the current owner. NOTE: Renouncing ownership will leave the contract without an owner, thereby disabling any functionality that is only available to the owner."
      },
      "royaltyInfo(uint256,uint256)": {
        "details": "Returns how much royalty is owed and to whom, based on a sale price that may be denominated in any unit of exchange. The royalty amount is denominated and should be paid in that same unit of exchange."
      },
      "safeTransferFrom(address,address,uint256)": {
        "details": "See {IERC721-safeTransferFrom}."
      },
      "safeTransferFrom(address,address,uint256,bytes)": {
        "details": "See {IERC721-safeTransferFrom}."
      },
      "setApprovalForAll(address,bool)": {
        "details": "See {IERC721-setApprovalForAll}."
      },
      "symbol()": {
        "details": "See {IERC721Metadata-symbol}."
      },
      "tokenURI(uint256)": {
        "details": "See {IERC721Metadata-tokenURI}."
      },
      "transferFrom(address,address,uint256)": {
        "details": "See {IERC721-transferFrom}."
      },
      "transferOwnership(address)": {
        "details": "Transfers ownership of the contract to a new account (`newOwner`). Can only be called by the current owner."
      }
    },
    "version": 1
  },
  "userdoc": {
    "kind": "user",
    "methods": {},
    "version": 1
  }
}